{
  "contractName": "Houses",
  "abi": [
    {
      "constant": false,
      "inputs": [
        {
          "name": "_okeyDokeyAddress",
          "type": "address"
        }
      ],
      "name": "initializeContracts",
      "outputs": [
        {
          "name": "success",
          "type": "bool"
        }
      ],
      "payable": false,
      "stateMutability": "nonpayable",
      "type": "function"
    },
    {
      "constant": true,
      "inputs": [
        {
          "name": "id",
          "type": "uint256"
        }
      ],
      "name": "getHouseInfo3",
      "outputs": [
        {
          "name": "success",
          "type": "bool"
        },
        {
          "name": "hourlyRate",
          "type": "uint256"
        },
        {
          "name": "dailyRate",
          "type": "uint256"
        },
        {
          "name": "utilityFee",
          "type": "uint256"
        },
        {
          "name": "cleaningFee",
          "type": "uint256"
        },
        {
          "name": "latitude",
          "type": "uint256"
        },
        {
          "name": "longitude",
          "type": "uint256"
        }
      ],
      "payable": false,
      "stateMutability": "view",
      "type": "function"
    },
    {
      "constant": false,
      "inputs": [
        {
          "name": "id",
          "type": "uint256"
        },
        {
          "name": "hourlyRate",
          "type": "uint256"
        },
        {
          "name": "dailyRate",
          "type": "uint256"
        },
        {
          "name": "utilityFee",
          "type": "uint256"
        },
        {
          "name": "cleaningFee",
          "type": "uint256"
        },
        {
          "name": "latitude",
          "type": "uint256"
        },
        {
          "name": "longitude",
          "type": "uint256"
        }
      ],
      "name": "registerHouse3",
      "outputs": [
        {
          "name": "success",
          "type": "bool"
        },
        {
          "name": "newId",
          "type": "uint256"
        }
      ],
      "payable": false,
      "stateMutability": "nonpayable",
      "type": "function"
    },
    {
      "constant": false,
      "inputs": [
        {
          "name": "id",
          "type": "uint256"
        },
        {
          "name": "housePolicy",
          "type": "string"
        },
        {
          "name": "cancellationPolicy",
          "type": "string"
        },
        {
          "name": "houseType",
          "type": "uint8"
        },
        {
          "name": "numGuest",
          "type": "uint256"
        },
        {
          "name": "numBedroom",
          "type": "uint256"
        },
        {
          "name": "numBed",
          "type": "uint256"
        },
        {
          "name": "numBathroom",
          "type": "uint256"
        }
      ],
      "name": "registerHouse2",
      "outputs": [
        {
          "name": "success",
          "type": "bool"
        },
        {
          "name": "newId",
          "type": "uint256"
        }
      ],
      "payable": false,
      "stateMutability": "nonpayable",
      "type": "function"
    },
    {
      "constant": false,
      "inputs": [
        {
          "name": "id",
          "type": "uint256"
        },
        {
          "name": "hourlyRate",
          "type": "uint256"
        },
        {
          "name": "dailyRate",
          "type": "uint256"
        },
        {
          "name": "utilityFee",
          "type": "uint256"
        },
        {
          "name": "cleaningFee",
          "type": "uint256"
        },
        {
          "name": "latitude",
          "type": "uint256"
        },
        {
          "name": "longitude",
          "type": "uint256"
        }
      ],
      "name": "editHouse3",
      "outputs": [
        {
          "name": "success",
          "type": "bool"
        }
      ],
      "payable": false,
      "stateMutability": "nonpayable",
      "type": "function"
    },
    {
      "constant": false,
      "inputs": [],
      "name": "kill",
      "outputs": [],
      "payable": false,
      "stateMutability": "nonpayable",
      "type": "function"
    },
    {
      "constant": false,
      "inputs": [
        {
          "name": "id",
          "type": "uint256"
        },
        {
          "name": "housePolicy",
          "type": "string"
        },
        {
          "name": "cancellationPolicy",
          "type": "string"
        },
        {
          "name": "houseType",
          "type": "uint8"
        },
        {
          "name": "numGuest",
          "type": "uint256"
        },
        {
          "name": "numBedroom",
          "type": "uint256"
        },
        {
          "name": "numBed",
          "type": "uint256"
        },
        {
          "name": "numBathroom",
          "type": "uint256"
        }
      ],
      "name": "editHouse2",
      "outputs": [
        {
          "name": "success",
          "type": "bool"
        }
      ],
      "payable": false,
      "stateMutability": "nonpayable",
      "type": "function"
    },
    {
      "constant": true,
      "inputs": [
        {
          "name": "id",
          "type": "uint256"
        }
      ],
      "name": "getHouseInfo1",
      "outputs": [
        {
          "name": "success",
          "type": "bool"
        },
        {
          "name": "houseName",
          "type": "string"
        },
        {
          "name": "hostName",
          "type": "string"
        },
        {
          "name": "addrFull",
          "type": "string"
        },
        {
          "name": "addrSummary",
          "type": "string"
        },
        {
          "name": "addrDirection",
          "type": "string"
        },
        {
          "name": "description",
          "type": "string"
        }
      ],
      "payable": false,
      "stateMutability": "view",
      "type": "function"
    },
    {
      "constant": false,
      "inputs": [
        {
          "name": "id",
          "type": "uint256"
        },
        {
          "name": "houseName",
          "type": "string"
        }
      ],
      "name": "setHouseName",
      "outputs": [
        {
          "name": "success",
          "type": "bool"
        }
      ],
      "payable": false,
      "stateMutability": "nonpayable",
      "type": "function"
    },
    {
      "constant": false,
      "inputs": [
        {
          "name": "houseName",
          "type": "string"
        },
        {
          "name": "hostName",
          "type": "string"
        },
        {
          "name": "addrFull",
          "type": "string"
        },
        {
          "name": "addrSummary",
          "type": "string"
        },
        {
          "name": "addrDirection",
          "type": "string"
        },
        {
          "name": "description",
          "type": "string"
        }
      ],
      "name": "registerHouse1",
      "outputs": [
        {
          "name": "success",
          "type": "bool"
        },
        {
          "name": "newId",
          "type": "uint256"
        }
      ],
      "payable": false,
      "stateMutability": "nonpayable",
      "type": "function"
    },
    {
      "constant": true,
      "inputs": [
        {
          "name": "id",
          "type": "uint256"
        }
      ],
      "name": "getHouseName",
      "outputs": [
        {
          "name": "success",
          "type": "bool"
        },
        {
          "name": "houseName",
          "type": "string"
        }
      ],
      "payable": false,
      "stateMutability": "view",
      "type": "function"
    },
    {
      "constant": true,
      "inputs": [
        {
          "name": "id",
          "type": "uint256"
        }
      ],
      "name": "getHostName",
      "outputs": [
        {
          "name": "success",
          "type": "bool"
        },
        {
          "name": "hostName",
          "type": "string"
        }
      ],
      "payable": false,
      "stateMutability": "view",
      "type": "function"
    },
    {
      "constant": true,
      "inputs": [
        {
          "name": "id",
          "type": "uint256"
        }
      ],
      "name": "getHouseInfo2",
      "outputs": [
        {
          "name": "success",
          "type": "bool"
        },
        {
          "name": "housePolicy",
          "type": "string"
        },
        {
          "name": "cancellationPolicy",
          "type": "string"
        },
        {
          "name": "houseType",
          "type": "uint8"
        },
        {
          "name": "numGuest",
          "type": "uint256"
        },
        {
          "name": "numBedroom",
          "type": "uint256"
        },
        {
          "name": "numBed",
          "type": "uint256"
        },
        {
          "name": "numBathroom",
          "type": "uint256"
        }
      ],
      "payable": false,
      "stateMutability": "view",
      "type": "function"
    },
    {
      "constant": false,
      "inputs": [
        {
          "name": "id",
          "type": "uint256"
        },
        {
          "name": "hostName",
          "type": "string"
        }
      ],
      "name": "setHostName",
      "outputs": [
        {
          "name": "success",
          "type": "bool"
        }
      ],
      "payable": false,
      "stateMutability": "nonpayable",
      "type": "function"
    },
    {
      "constant": false,
      "inputs": [
        {
          "name": "id",
          "type": "uint256"
        },
        {
          "name": "houseName",
          "type": "string"
        },
        {
          "name": "hostName",
          "type": "string"
        },
        {
          "name": "addrFull",
          "type": "string"
        },
        {
          "name": "addrSummary",
          "type": "string"
        },
        {
          "name": "addrDirection",
          "type": "string"
        },
        {
          "name": "description",
          "type": "string"
        }
      ],
      "name": "editHouse1",
      "outputs": [
        {
          "name": "success",
          "type": "bool"
        }
      ],
      "payable": false,
      "stateMutability": "nonpayable",
      "type": "function"
    },
    {
      "constant": false,
      "inputs": [
        {
          "name": "latitude",
          "type": "uint256"
        },
        {
          "name": "longitude",
          "type": "uint256"
        }
      ],
      "name": "getGridId",
      "outputs": [
        {
          "name": "success",
          "type": "bool"
        },
        {
          "name": "gridId",
          "type": "uint256"
        }
      ],
      "payable": false,
      "stateMutability": "nonpayable",
      "type": "function"
    },
    {
      "inputs": [],
      "payable": false,
      "stateMutability": "nonpayable",
      "type": "constructor"
    }
  ],
  "bytecode": "0x60606040526000600155341561001457600080fd5b336000806101000a81548173ffffffffffffffffffffffffffffffffffffffff021916908373ffffffffffffffffffffffffffffffffffffffff16021790555061713680620000646000396000f3006060604052600436106100e6576000357c0100000000000000000000000000000000000000000000000000000000900463ffffffff16806312bb0604146100eb57806312f356661461013c57806324549f51146101a15780632da564ff1461021957806333633c951461031157806341c0e1b5146103825780634469eb68146103975780636f25f07a14610488578063734a884e1461074b5780637ca83082146107c9578063853982b9146109945780638d86bc6614610a3b578063a63cb6f714610ae2578063bc5fd72e14610c1e578063c82a78d914610c9c578063d98c998314610e69575b600080fd5b34156100f657600080fd5b610122600480803573ffffffffffffffffffffffffffffffffffffffff16906020019091905050610eb4565b604051808215151515815260200191505060405180910390f35b341561014757600080fd5b61015d600480803590602001909190505061101f565b604051808815151515815260200187815260200186815260200185815260200184815260200183815260200182815260200197505050505050505060405180910390f35b34156101ac57600080fd5b6101f86004808035906020019091908035906020019091908035906020019091908035906020019091908035906020019091908035906020019091908035906020019091905050611955565b60405180831515151581526020018281526020019250505060405180910390f35b341561022457600080fd5b6102f0600480803590602001909190803590602001908201803590602001908080601f0160208091040260200160405190810160405280939291908181526020018383808284378201915050505050509190803590602001908201803590602001908080601f0160208091040260200160405190810160405280939291908181526020018383808284378201915050505050509190803560ff16906020019091908035906020019091908035906020019091908035906020019091908035906020019091905050611c78565b60405180831515151581526020018281526020019250505060405180910390f35b341561031c57600080fd5b6103686004808035906020019091908035906020019091908035906020019091908035906020019091908035906020019091908035906020019091908035906020019091905050611dda565b604051808215151515815260200191505060405180910390f35b341561038d57600080fd5b610395611f74565b005b34156103a257600080fd5b61046e600480803590602001909190803590602001908201803590602001908080601f0160208091040260200160405190810160405280939291908181526020018383808284378201915050505050509190803590602001908201803590602001908080601f0160208091040260200160405190810160405280939291908181526020018383808284378201915050505050509190803560ff16906020019091908035906020019091908035906020019091908035906020019091908035906020019091905050612060565b604051808215151515815260200191505060405180910390f35b341561049357600080fd5b6104a960048080359060200190919050506121e2565b604051808815151515815260200180602001806020018060200180602001806020018060200187810387528d818151815260200191508051906020019080838360005b838110156105075780820151818401526020810190506104ec565b50505050905090810190601f1680156105345780820380516001836020036101000a031916815260200191505b5087810386528c818151815260200191508051906020019080838360005b8381101561056d578082015181840152602081019050610552565b50505050905090810190601f16801561059a5780820380516001836020036101000a031916815260200191505b5087810385528b818151815260200191508051906020019080838360005b838110156105d35780820151818401526020810190506105b8565b50505050905090810190601f1680156106005780820380516001836020036101000a031916815260200191505b5087810384528a818151815260200191508051906020019080838360005b8381101561063957808201518184015260208101905061061e565b50505050905090810190601f1680156106665780820380516001836020036101000a031916815260200191505b50878103835289818151815260200191508051906020019080838360005b8381101561069f578082015181840152602081019050610684565b50505050905090810190601f1680156106cc5780820380516001836020036101000a031916815260200191505b50878103825288818151815260200191508051906020019080838360005b838110156107055780820151818401526020810190506106ea565b50505050905090810190601f1680156107325780820380516001836020036101000a031916815260200191505b509d505050505050505050505050505060405180910390f35b341561075657600080fd5b6107af600480803590602001909190803590602001908201803590602001908080601f01602080910402602001604051908101604052809392919081815260200183838082843782019150505050505091905050612b3b565b604051808215151515815260200191505060405180910390f35b34156107d457600080fd5b610973600480803590602001908201803590602001908080601f0160208091040260200160405190810160405280939291908181526020018383808284378201915050505050509190803590602001908201803590602001908080601f0160208091040260200160405190810160405280939291908181526020018383808284378201915050505050509190803590602001908201803590602001908080601f0160208091040260200160405190810160405280939291908181526020018383808284378201915050505050509190803590602001908201803590602001908080601f0160208091040260200160405190810160405280939291908181526020018383808284378201915050505050509190803590602001908201803590602001908080601f0160208091040260200160405190810160405280939291908181526020018383808284378201915050505050509190803590602001908201803590602001908080601f0160208091040260200160405190810160405280939291908181526020018383808284378201915050505050509190505061343b565b60405180831515151581526020018281526020019250505060405180910390f35b341561099f57600080fd5b6109b5600480803590602001909190505061396f565b604051808315151515815260200180602001828103825283818151815260200191508051906020019080838360005b838110156109ff5780820151818401526020810190506109e4565b50505050905090810190601f168015610a2c5780820380516001836020036101000a031916815260200191505b50935050505060405180910390f35b3415610a4657600080fd5b610a5c6004808035906020019091905050614274565b604051808315151515815260200180602001828103825283818151815260200191508051906020019080838360005b83811015610aa6578082015181840152602081019050610a8b565b50505050905090810190601f168015610ad35780820380516001836020036101000a031916815260200191505b50935050505060405180910390f35b3415610aed57600080fd5b610b036004808035906020019091905050614b79565b604051808915151515815260200180602001806020018860ff1660ff16815260200187815260200186815260200185815260200184815260200183810383528a818151815260200191508051906020019080838360005b83811015610b75578082015181840152602081019050610b5a565b50505050905090810190601f168015610ba25780820380516001836020036101000a031916815260200191505b50838103825289818151815260200191508051906020019080838360005b83811015610bdb578082015181840152602081019050610bc0565b50505050905090810190601f168015610c085780820380516001836020036101000a031916815260200191505b509a505050505050505050505060405180910390f35b3415610c2957600080fd5b610c82600480803590602001909190803590602001908201803590602001908080601f016020809104026020016040519081016040528093929190818152602001838380828437820191505050505050919050506154c6565b604051808215151515815260200191505060405180910390f35b3415610ca757600080fd5b610e4f600480803590602001909190803590602001908201803590602001908080601f0160208091040260200160405190810160405280939291908181526020018383808284378201915050505050509190803590602001908201803590602001908080601f0160208091040260200160405190810160405280939291908181526020018383808284378201915050505050509190803590602001908201803590602001908080601f0160208091040260200160405190810160405280939291908181526020018383808284378201915050505050509190803590602001908201803590602001908080601f0160208091040260200160405190810160405280939291908181526020018383808284378201915050505050509190803590602001908201803590602001908080601f0160208091040260200160405190810160405280939291908181526020018383808284378201915050505050509190803590602001908201803590602001908080601f01602080910402602001604051908101604052809392919081815260200183838082843782019150505050505091905050615dc6565b604051808215151515815260200191505060405180910390f35b3415610e7457600080fd5b610e936004808035906020019091908035906020019091905050615ff1565b60405180831515151581526020018281526020019250505060405180910390f35b60008060009054906101000a900473ffffffffffffffffffffffffffffffffffffffff1673ffffffffffffffffffffffffffffffffffffffff163373ffffffffffffffffffffffffffffffffffffffff16141515610f1157600080fd5b60008273ffffffffffffffffffffffffffffffffffffffff1614151515610f3757600080fd5b3073ffffffffffffffffffffffffffffffffffffffff168273ffffffffffffffffffffffffffffffffffffffff1614151515610f7257600080fd5b81600560006101000a81548173ffffffffffffffffffffffffffffffffffffffff021916908373ffffffffffffffffffffffffffffffffffffffff160217905550600560009054906101000a900473ffffffffffffffffffffffffffffffffffffffff16600660006101000a81548173ffffffffffffffffffffffffffffffffffffffff021916908373ffffffffffffffffffffffffffffffffffffffff16021790555060019050919050565b6000806000806000806000611032616b6b565b60009750600260008a81526020019081526020016000206103606040519081016040529081600082015481526020016001820160009054906101000a900473ffffffffffffffffffffffffffffffffffffffff1673ffffffffffffffffffffffffffffffffffffffff1673ffffffffffffffffffffffffffffffffffffffff168152602001600282018054600181600116156101000203166002900480601f01602080910402602001604051908101604052809291908181526020018280546001816001161561010002031660029004801561114f5780601f106111245761010080835404028352916020019161114f565b820191906000526020600020905b81548152906001019060200180831161113257829003601f168201915b50505050508152602001600382018054806020026020016040519081016040528092919081815260200182805480156111dd57602002820191906000526020600020905b8160009054906101000a900473ffffffffffffffffffffffffffffffffffffffff1673ffffffffffffffffffffffffffffffffffffffff1681526020019060010190808311611193575b505050505081526020016004820180548060200260200160405190810160405280929190818152602001828054801561126b57602002820191906000526020600020905b8160009054906101000a900473ffffffffffffffffffffffffffffffffffffffff1673ffffffffffffffffffffffffffffffffffffffff1681526020019060010190808311611221575b50505050508152602001600582018054600181600116156101000203166002900480601f01602080910402602001604051908101604052809291908181526020018280546001816001161561010002031660029004801561130d5780601f106112e25761010080835404028352916020019161130d565b820191906000526020600020905b8154815290600101906020018083116112f057829003601f168201915b50505050508152602001600682018054600181600116156101000203166002900480601f0160208091040260200160405190810160405280929190818152602001828054600181600116156101000203166002900480156113af5780601f10611384576101008083540402835291602001916113af565b820191906000526020600020905b81548152906001019060200180831161139257829003601f168201915b50505050508152602001600782018054600181600116156101000203166002900480601f0160208091040260200160405190810160405280929190818152602001828054600181600116156101000203166002900480156114515780601f1061142657610100808354040283529160200191611451565b820191906000526020600020905b81548152906001019060200180831161143457829003601f168201915b50505050508152602001600882018054600181600116156101000203166002900480601f0160208091040260200160405190810160405280929190818152602001828054600181600116156101000203166002900480156114f35780601f106114c8576101008083540402835291602001916114f3565b820191906000526020600020905b8154815290600101906020018083116114d657829003601f168201915b50505050508152602001600982018054600181600116156101000203166002900480601f0160208091040260200160405190810160405280929190818152602001828054600181600116156101000203166002900480156115955780601f1061156a57610100808354040283529160200191611595565b820191906000526020600020905b81548152906001019060200180831161157857829003601f168201915b50505050508152602001600a82018054600181600116156101000203166002900480601f0160208091040260200160405190810160405280929190818152602001828054600181600116156101000203166002900480156116375780601f1061160c57610100808354040283529160200191611637565b820191906000526020600020905b81548152906001019060200180831161161a57829003601f168201915b50505050508152602001600b82018054600181600116156101000203166002900480601f0160208091040260200160405190810160405280929190818152602001828054600181600116156101000203166002900480156116d95780601f106116ae576101008083540402835291602001916116d9565b820191906000526020600020905b8154815290600101906020018083116116bc57829003601f168201915b50505050508152602001600c820160009054906101000a900460ff1660ff1660ff168152602001600d8201548152602001600e8201548152602001600f8201548152602001601082015481526020016011820180548060200260200160405190810160405280929190818152602001828054801561179c57602002820191906000526020600020906000905b82829054906101000a900460ff1660ff16815260200190600101906020826000010492830192600103820291508084116117655790505b5050505050815260200160128201805480602002602001604051908101604052809291908181526020016000905b8282101561188757838290600052602060002090018054600181600116156101000203166002900480601f0160208091040260200160405190810160405280929190818152602001828054600181600116156101000203166002900480156118735780601f1061184857610100808354040283529160200191611873565b820191906000526020600020905b81548152906001019060200180831161185657829003601f168201915b5050505050815260200190600101906117ca565b5050505081526020016013820154815260200160148201548152602001601582015481526020016016820154815260200160178201548152602001601882015481526020016019820160009054906101000a900460ff161515151581526020016019820160019054906101000a900460ff1615151515815250509050806103400151151561191457611949565b80610260015196508061028001519550806102a001519450806102c001519350806102e0015192508061030001519150600197505b50919395979092949650565b600080600080600080945061196a8787615ff1565b8093508194505050821515611b1f57600260008d81526020019081526020016000206000808201600090556001820160006101000a81549073ffffffffffffffffffffffffffffffffffffffff02191690556002820160006119cc9190616c9b565b6003820160006119dc9190616ce3565b6004820160006119ec9190616ce3565b6005820160006119fc9190616c9b565b600682016000611a0c9190616c9b565b600782016000611a1c9190616c9b565b600882016000611a2c9190616c9b565b600982016000611a3c9190616c9b565b600a82016000611a4c9190616c9b565b600b82016000611a5c9190616c9b565b600c820160006101000a81549060ff0219169055600d820160009055600e820160009055600f8201600090556010820160009055601182016000611aa09190616d04565b601282016000611ab09190616d2c565b6013820160009055601482016000905560158201600090556016820160009055601782016000905560188201600090556019820160006101000a81549060ff02191690556019820160016101000a81549060ff0219169055505060018060008282540392505081905550611c69565b600260008d815260200190815260200160002090508060190160019054906101000a900460ff161515611b5157611c69565b3373ffffffffffffffffffffffffffffffffffffffff168160010160009054906101000a900473ffffffffffffffffffffffffffffffffffffffff1673ffffffffffffffffffffffffffffffffffffffff16141515611baf57611c69565b8a816013018190555089816014018190555088816015018190555087816016018190555086816017018190555085816018018190555060018160190160006101000a81548160ff02191690831515021790555060018160190160016101000a81548160ff021916908315150217905550600460008381526020019081526020016000208054806001018281611c449190616d4d565b9160005260206000209001600083600001549091909150555060019450806000015493505b50505097509795505050505050565b600080600080925060009150600260008c815260200190815260200160002090508060190160019054906101000a900460ff161515611cb657611dcc565b3373ffffffffffffffffffffffffffffffffffffffff168160010160009054906101000a900473ffffffffffffffffffffffffffffffffffffffff1673ffffffffffffffffffffffffffffffffffffffff161415611d1357611dcc565b8981600a019080519060200190611d2b929190616d79565b508881600b019080519060200190611d44929190616d79565b508781600c0160006101000a81548160ff021916908360ff1602179055508681600d01819055508581600e01819055508481600f018190555083816010018190555060008160190160006101000a81548160ff02191690831515021790555060008160190160016101000a81548160ff02191690831515021790555060019250806000015491505b509850989650505050505050565b600080600089600080611deb616df9565b60006002600086815260200190815260200160002093508360190160019054906101000a900460ff161515611e1f57600080fd5b6000925083600301805480602002602001604051908101604052809291908181526020018280548015611ea757602002820191906000526020600020905b8160009054906101000a900473ffffffffffffffffffffffffffffffffffffffff1673ffffffffffffffffffffffffffffffffffffffff1681526020019060010190808311611e5d575b50505050509150600090505b8151811015611f19573373ffffffffffffffffffffffffffffffffffffffff168282815181101515611ee157fe5b9060200190602002015173ffffffffffffffffffffffffffffffffffffffff161415611f0c57600192505b8080600101915050611eb3565b821515611f2557600080fd5b60009750611f368f8f8f8f8f616007565b9650861515611f4457611f62565b611f4f8f8b8b61606f565b9550851515611f5d57611f62565b600197505b50505050505050979650505050505050565b3373ffffffffffffffffffffffffffffffffffffffff166000809054906101000a900473ffffffffffffffffffffffffffffffffffffffff1673ffffffffffffffffffffffffffffffffffffffff16141515611fcf57600080fd5b6000809054906101000a900473ffffffffffffffffffffffffffffffffffffffff1673ffffffffffffffffffffffffffffffffffffffff163373ffffffffffffffffffffffffffffffffffffffff16141561205e576000809054906101000a900473ffffffffffffffffffffffffffffffffffffffff1673ffffffffffffffffffffffffffffffffffffffff16ff5b565b6000808960008061206f616df9565b60006002600086815260200190815260200160002093508360190160019054906101000a900460ff1615156120a357600080fd5b600092508360030180548060200260200160405190810160405280929190818152602001828054801561212b57602002820191906000526020600020905b8160009054906101000a900473ffffffffffffffffffffffffffffffffffffffff1673ffffffffffffffffffffffffffffffffffffffff16815260200190600101908083116120e1575b50505050509150600090505b815181101561219d573373ffffffffffffffffffffffffffffffffffffffff16828281518110151561216557fe5b9060200190602002015173ffffffffffffffffffffffffffffffffffffffff16141561219057600192505b8080600101915050612137565b8215156121a957600080fd5b600096506121bd8f8f8f8f8f8f8f8f616a25565b95508515156121cb576121d0565b600196505b50505050505098975050505050505050565b60006121ec616e0d565b6121f4616e0d565b6121fc616e0d565b612204616e0d565b61220c616e0d565b612214616e0d565b61221c616b6b565b60009750600260008a81526020019081526020016000206103606040519081016040529081600082015481526020016001820160009054906101000a900473ffffffffffffffffffffffffffffffffffffffff1673ffffffffffffffffffffffffffffffffffffffff1673ffffffffffffffffffffffffffffffffffffffff168152602001600282018054600181600116156101000203166002900480601f0160208091040260200160405190810160405280929190818152602001828054600181600116156101000203166002900480156123395780601f1061230e57610100808354040283529160200191612339565b820191906000526020600020905b81548152906001019060200180831161231c57829003601f168201915b50505050508152602001600382018054806020026020016040519081016040528092919081815260200182805480156123c757602002820191906000526020600020905b8160009054906101000a900473ffffffffffffffffffffffffffffffffffffffff1673ffffffffffffffffffffffffffffffffffffffff168152602001906001019080831161237d575b505050505081526020016004820180548060200260200160405190810160405280929190818152602001828054801561245557602002820191906000526020600020905b8160009054906101000a900473ffffffffffffffffffffffffffffffffffffffff1673ffffffffffffffffffffffffffffffffffffffff168152602001906001019080831161240b575b50505050508152602001600582018054600181600116156101000203166002900480601f0160208091040260200160405190810160405280929190818152602001828054600181600116156101000203166002900480156124f75780601f106124cc576101008083540402835291602001916124f7565b820191906000526020600020905b8154815290600101906020018083116124da57829003601f168201915b50505050508152602001600682018054600181600116156101000203166002900480601f0160208091040260200160405190810160405280929190818152602001828054600181600116156101000203166002900480156125995780601f1061256e57610100808354040283529160200191612599565b820191906000526020600020905b81548152906001019060200180831161257c57829003601f168201915b50505050508152602001600782018054600181600116156101000203166002900480601f01602080910402602001604051908101604052809291908181526020018280546001816001161561010002031660029004801561263b5780601f106126105761010080835404028352916020019161263b565b820191906000526020600020905b81548152906001019060200180831161261e57829003601f168201915b50505050508152602001600882018054600181600116156101000203166002900480601f0160208091040260200160405190810160405280929190818152602001828054600181600116156101000203166002900480156126dd5780601f106126b2576101008083540402835291602001916126dd565b820191906000526020600020905b8154815290600101906020018083116126c057829003601f168201915b50505050508152602001600982018054600181600116156101000203166002900480601f01602080910402602001604051908101604052809291908181526020018280546001816001161561010002031660029004801561277f5780601f106127545761010080835404028352916020019161277f565b820191906000526020600020905b81548152906001019060200180831161276257829003601f168201915b50505050508152602001600a82018054600181600116156101000203166002900480601f0160208091040260200160405190810160405280929190818152602001828054600181600116156101000203166002900480156128215780601f106127f657610100808354040283529160200191612821565b820191906000526020600020905b81548152906001019060200180831161280457829003601f168201915b50505050508152602001600b82018054600181600116156101000203166002900480601f0160208091040260200160405190810160405280929190818152602001828054600181600116156101000203166002900480156128c35780601f10612898576101008083540402835291602001916128c3565b820191906000526020600020905b8154815290600101906020018083116128a657829003601f168201915b50505050508152602001600c820160009054906101000a900460ff1660ff1660ff168152602001600d8201548152602001600e8201548152602001600f8201548152602001601082015481526020016011820180548060200260200160405190810160405280929190818152602001828054801561298657602002820191906000526020600020906000905b82829054906101000a900460ff1660ff168152602001906001019060208260000104928301926001038202915080841161294f5790505b5050505050815260200160128201805480602002602001604051908101604052809291908181526020016000905b82821015612a7157838290600052602060002090018054600181600116156101000203166002900480601f016020809104026020016040519081016040528092919081815260200182805460018160011615610100020316600290048015612a5d5780601f10612a3257610100808354040283529160200191612a5d565b820191906000526020600020905b815481529060010190602001808311612a4057829003601f168201915b5050505050815260200190600101906129b4565b5050505081526020016013820154815260200160148201548152602001601582015481526020016016820154815260200160178201548152602001601882015481526020016019820160009054906101000a900460ff161515151581526020016019820160019054906101000a900460ff16151515158152505090508061034001511515612afe57612b2f565b806040015195508060a0015196508060c0015194508060e00151935080610100015192508061012001519150600197505b50919395979092949650565b6000612b45616b6b565b60009150600260008581526020019081526020016000206103606040519081016040529081600082015481526020016001820160009054906101000a900473ffffffffffffffffffffffffffffffffffffffff1673ffffffffffffffffffffffffffffffffffffffff1673ffffffffffffffffffffffffffffffffffffffff168152602001600282018054600181600116156101000203166002900480601f016020809104026020016040519081016040528092919081815260200182805460018160011615610100020316600290048015612c625780601f10612c3757610100808354040283529160200191612c62565b820191906000526020600020905b815481529060010190602001808311612c4557829003601f168201915b5050505050815260200160038201805480602002602001604051908101604052809291908181526020018280548015612cf057602002820191906000526020600020905b8160009054906101000a900473ffffffffffffffffffffffffffffffffffffffff1673ffffffffffffffffffffffffffffffffffffffff1681526020019060010190808311612ca6575b5050505050815260200160048201805480602002602001604051908101604052809291908181526020018280548015612d7e57602002820191906000526020600020905b8160009054906101000a900473ffffffffffffffffffffffffffffffffffffffff1673ffffffffffffffffffffffffffffffffffffffff1681526020019060010190808311612d34575b50505050508152602001600582018054600181600116156101000203166002900480601f016020809104026020016040519081016040528092919081815260200182805460018160011615610100020316600290048015612e205780601f10612df557610100808354040283529160200191612e20565b820191906000526020600020905b815481529060010190602001808311612e0357829003601f168201915b50505050508152602001600682018054600181600116156101000203166002900480601f016020809104026020016040519081016040528092919081815260200182805460018160011615610100020316600290048015612ec25780601f10612e9757610100808354040283529160200191612ec2565b820191906000526020600020905b815481529060010190602001808311612ea557829003601f168201915b50505050508152602001600782018054600181600116156101000203166002900480601f016020809104026020016040519081016040528092919081815260200182805460018160011615610100020316600290048015612f645780601f10612f3957610100808354040283529160200191612f64565b820191906000526020600020905b815481529060010190602001808311612f4757829003601f168201915b50505050508152602001600882018054600181600116156101000203166002900480601f0160208091040260200160405190810160405280929190818152602001828054600181600116156101000203166002900480156130065780601f10612fdb57610100808354040283529160200191613006565b820191906000526020600020905b815481529060010190602001808311612fe957829003601f168201915b50505050508152602001600982018054600181600116156101000203166002900480601f0160208091040260200160405190810160405280929190818152602001828054600181600116156101000203166002900480156130a85780601f1061307d576101008083540402835291602001916130a8565b820191906000526020600020905b81548152906001019060200180831161308b57829003601f168201915b50505050508152602001600a82018054600181600116156101000203166002900480601f01602080910402602001604051908101604052809291908181526020018280546001816001161561010002031660029004801561314a5780601f1061311f5761010080835404028352916020019161314a565b820191906000526020600020905b81548152906001019060200180831161312d57829003601f168201915b50505050508152602001600b82018054600181600116156101000203166002900480601f0160208091040260200160405190810160405280929190818152602001828054600181600116156101000203166002900480156131ec5780601f106131c1576101008083540402835291602001916131ec565b820191906000526020600020905b8154815290600101906020018083116131cf57829003601f168201915b50505050508152602001600c820160009054906101000a900460ff1660ff1660ff168152602001600d8201548152602001600e8201548152602001600f820154815260200160108201548152602001601182018054806020026020016040519081016040528092919081815260200182805480156132af57602002820191906000526020600020906000905b82829054906101000a900460ff1660ff16815260200190600101906020826000010492830192600103820291508084116132785790505b5050505050815260200160128201805480602002602001604051908101604052809291908181526020016000905b8282101561339a57838290600052602060002090018054600181600116156101000203166002900480601f0160208091040260200160405190810160405280929190818152602001828054600181600116156101000203166002900480156133865780601f1061335b57610100808354040283529160200191613386565b820191906000526020600020905b81548152906001019060200180831161336957829003601f168201915b5050505050815260200190600101906132dd565b5050505081526020016013820154815260200160148201548152602001601582015481526020016016820154815260200160178201548152602001601882015481526020016019820160009054906101000a900460ff161515151581526020016019820160019054906101000a900460ff16151515158152505090508061034001511561343357828160a0018190525060019150613434565b5b5092915050565b600080600080925060009150600180600082825401925050819055506001548160000181905550338160010160006101000a81548173ffffffffffffffffffffffffffffffffffffffff021916908373ffffffffffffffffffffffffffffffffffffffff160217905550878160020190805190602001906134bd929190616d79565b508060030180548060010182816134d49190616e21565b9160005260206000209001600033909190916101000a81548173ffffffffffffffffffffffffffffffffffffffff021916908373ffffffffffffffffffffffffffffffffffffffff160217905550508881600501908051906020019061353b929190616d79565b5086816006019080519060200190613554929190616d79565b508581600701908051906020019061356d929190616d79565b5084816008019080519060200190613586929190616d79565b508381600901908051906020019061359f929190616d79565b50806002600083600001548152602001908152602001600020600082015481600001556001820160009054906101000a900473ffffffffffffffffffffffffffffffffffffffff168160010160006101000a81548173ffffffffffffffffffffffffffffffffffffffff021916908373ffffffffffffffffffffffffffffffffffffffff16021790555060028201816002019080546001816001161561010002031660029004613650929190616e4d565b506003820181600301908054613667929190616ed4565b50600482018160040190805461367e929190616ed4565b50600582018160050190805460018160011615610100020316600290046136a6929190616e4d565b50600682018160060190805460018160011615610100020316600290046136ce929190616e4d565b50600782018160070190805460018160011615610100020316600290046136f6929190616e4d565b506008820181600801908054600181600116156101000203166002900461371e929190616e4d565b5060098201816009019080546001816001161561010002031660029004613746929190616e4d565b50600a820181600a01908054600181600116156101000203166002900461376e929190616e4d565b50600b820181600b019080546001816001161561010002031660029004613796929190616e4d565b50600c820160009054906101000a900460ff1681600c0160006101000a81548160ff021916908360ff160217905550600d82015481600d0155600e82015481600e0155600f82015481600f0155601082015481601001556011820181601101908054613803929190616f26565b50601282018160120190805461381a929190616f86565b506013820154816013015560148201548160140155601582015481601501556016820154816016015560178201548160170155601882015481601801556019820160009054906101000a900460ff168160190160006101000a81548160ff0219169083151502179055506019820160019054906101000a900460ff168160190160016101000a81548160ff021916908315150217905550905050600360003373ffffffffffffffffffffffffffffffffffffffff1673ffffffffffffffffffffffffffffffffffffffff16815260200190815260200160002080548060010182816139059190616d4d565b9160005260206000209001600083600001549091909150555060008160190160006101000a81548160ff02191690831515021790555060008160190160016101000a81548160ff021916908315150217905550600192508060000154915050965096945050505050565b6000613979616e0d565b613981616b6b565b60009250600260008581526020019081526020016000206103606040519081016040529081600082015481526020016001820160009054906101000a900473ffffffffffffffffffffffffffffffffffffffff1673ffffffffffffffffffffffffffffffffffffffff1673ffffffffffffffffffffffffffffffffffffffff168152602001600282018054600181600116156101000203166002900480601f016020809104026020016040519081016040528092919081815260200182805460018160011615610100020316600290048015613a9e5780601f10613a7357610100808354040283529160200191613a9e565b820191906000526020600020905b815481529060010190602001808311613a8157829003601f168201915b5050505050815260200160038201805480602002602001604051908101604052809291908181526020018280548015613b2c57602002820191906000526020600020905b8160009054906101000a900473ffffffffffffffffffffffffffffffffffffffff1673ffffffffffffffffffffffffffffffffffffffff1681526020019060010190808311613ae2575b5050505050815260200160048201805480602002602001604051908101604052809291908181526020018280548015613bba57602002820191906000526020600020905b8160009054906101000a900473ffffffffffffffffffffffffffffffffffffffff1673ffffffffffffffffffffffffffffffffffffffff1681526020019060010190808311613b70575b50505050508152602001600582018054600181600116156101000203166002900480601f016020809104026020016040519081016040528092919081815260200182805460018160011615610100020316600290048015613c5c5780601f10613c3157610100808354040283529160200191613c5c565b820191906000526020600020905b815481529060010190602001808311613c3f57829003601f168201915b50505050508152602001600682018054600181600116156101000203166002900480601f016020809104026020016040519081016040528092919081815260200182805460018160011615610100020316600290048015613cfe5780601f10613cd357610100808354040283529160200191613cfe565b820191906000526020600020905b815481529060010190602001808311613ce157829003601f168201915b50505050508152602001600782018054600181600116156101000203166002900480601f016020809104026020016040519081016040528092919081815260200182805460018160011615610100020316600290048015613da05780601f10613d7557610100808354040283529160200191613da0565b820191906000526020600020905b815481529060010190602001808311613d8357829003601f168201915b50505050508152602001600882018054600181600116156101000203166002900480601f016020809104026020016040519081016040528092919081815260200182805460018160011615610100020316600290048015613e425780601f10613e1757610100808354040283529160200191613e42565b820191906000526020600020905b815481529060010190602001808311613e2557829003601f168201915b50505050508152602001600982018054600181600116156101000203166002900480601f016020809104026020016040519081016040528092919081815260200182805460018160011615610100020316600290048015613ee45780601f10613eb957610100808354040283529160200191613ee4565b820191906000526020600020905b815481529060010190602001808311613ec757829003601f168201915b50505050508152602001600a82018054600181600116156101000203166002900480601f016020809104026020016040519081016040528092919081815260200182805460018160011615610100020316600290048015613f865780601f10613f5b57610100808354040283529160200191613f86565b820191906000526020600020905b815481529060010190602001808311613f6957829003601f168201915b50505050508152602001600b82018054600181600116156101000203166002900480601f0160208091040260200160405190810160405280929190818152602001828054600181600116156101000203166002900480156140285780601f10613ffd57610100808354040283529160200191614028565b820191906000526020600020905b81548152906001019060200180831161400b57829003601f168201915b50505050508152602001600c820160009054906101000a900460ff1660ff1660ff168152602001600d8201548152602001600e8201548152602001600f820154815260200160108201548152602001601182018054806020026020016040519081016040528092919081815260200182805480156140eb57602002820191906000526020600020906000905b82829054906101000a900460ff1660ff16815260200190600101906020826000010492830192600103820291508084116140b45790505b5050505050815260200160128201805480602002602001604051908101604052809291908181526020016000905b828210156141d657838290600052602060002090018054600181600116156101000203166002900480601f0160208091040260200160405190810160405280929190818152602001828054600181600116156101000203166002900480156141c25780601f10614197576101008083540402835291602001916141c2565b820191906000526020600020905b8154815290600101906020018083116141a557829003601f168201915b505050505081526020019060010190614119565b5050505081526020016013820154815260200160148201548152602001601582015481526020016016820154815260200160178201548152602001601882015481526020016019820160009054906101000a900460ff161515151581526020016019820160019054906101000a900460ff16151515158152505090508061034001511561426d57600192508060a00151915061426e565b5b50915091565b600061427e616e0d565b614286616b6b565b60009250600260008581526020019081526020016000206103606040519081016040529081600082015481526020016001820160009054906101000a900473ffffffffffffffffffffffffffffffffffffffff1673ffffffffffffffffffffffffffffffffffffffff1673ffffffffffffffffffffffffffffffffffffffff168152602001600282018054600181600116156101000203166002900480601f0160208091040260200160405190810160405280929190818152602001828054600181600116156101000203166002900480156143a35780601f10614378576101008083540402835291602001916143a3565b820191906000526020600020905b81548152906001019060200180831161438657829003601f168201915b505050505081526020016003820180548060200260200160405190810160405280929190818152602001828054801561443157602002820191906000526020600020905b8160009054906101000a900473ffffffffffffffffffffffffffffffffffffffff1673ffffffffffffffffffffffffffffffffffffffff16815260200190600101908083116143e7575b50505050508152602001600482018054806020026020016040519081016040528092919081815260200182805480156144bf57602002820191906000526020600020905b8160009054906101000a900473ffffffffffffffffffffffffffffffffffffffff1673ffffffffffffffffffffffffffffffffffffffff1681526020019060010190808311614475575b50505050508152602001600582018054600181600116156101000203166002900480601f0160208091040260200160405190810160405280929190818152602001828054600181600116156101000203166002900480156145615780601f1061453657610100808354040283529160200191614561565b820191906000526020600020905b81548152906001019060200180831161454457829003601f168201915b50505050508152602001600682018054600181600116156101000203166002900480601f0160208091040260200160405190810160405280929190818152602001828054600181600116156101000203166002900480156146035780601f106145d857610100808354040283529160200191614603565b820191906000526020600020905b8154815290600101906020018083116145e657829003601f168201915b50505050508152602001600782018054600181600116156101000203166002900480601f0160208091040260200160405190810160405280929190818152602001828054600181600116156101000203166002900480156146a55780601f1061467a576101008083540402835291602001916146a5565b820191906000526020600020905b81548152906001019060200180831161468857829003601f168201915b50505050508152602001600882018054600181600116156101000203166002900480601f0160208091040260200160405190810160405280929190818152602001828054600181600116156101000203166002900480156147475780601f1061471c57610100808354040283529160200191614747565b820191906000526020600020905b81548152906001019060200180831161472a57829003601f168201915b50505050508152602001600982018054600181600116156101000203166002900480601f0160208091040260200160405190810160405280929190818152602001828054600181600116156101000203166002900480156147e95780601f106147be576101008083540402835291602001916147e9565b820191906000526020600020905b8154815290600101906020018083116147cc57829003601f168201915b50505050508152602001600a82018054600181600116156101000203166002900480601f01602080910402602001604051908101604052809291908181526020018280546001816001161561010002031660029004801561488b5780601f106148605761010080835404028352916020019161488b565b820191906000526020600020905b81548152906001019060200180831161486e57829003601f168201915b50505050508152602001600b82018054600181600116156101000203166002900480601f01602080910402602001604051908101604052809291908181526020018280546001816001161561010002031660029004801561492d5780601f106149025761010080835404028352916020019161492d565b820191906000526020600020905b81548152906001019060200180831161491057829003601f168201915b50505050508152602001600c820160009054906101000a900460ff1660ff1660ff168152602001600d8201548152602001600e8201548152602001600f820154815260200160108201548152602001601182018054806020026020016040519081016040528092919081815260200182805480156149f057602002820191906000526020600020906000905b82829054906101000a900460ff1660ff16815260200190600101906020826000010492830192600103820291508084116149b95790505b5050505050815260200160128201805480602002602001604051908101604052809291908181526020016000905b82821015614adb57838290600052602060002090018054600181600116156101000203166002900480601f016020809104026020016040519081016040528092919081815260200182805460018160011615610100020316600290048015614ac75780601f10614a9c57610100808354040283529160200191614ac7565b820191906000526020600020905b815481529060010190602001808311614aaa57829003601f168201915b505050505081526020019060010190614a1e565b5050505081526020016013820154815260200160148201548152602001601582015481526020016016820154815260200160178201548152602001601882015481526020016019820160009054906101000a900460ff161515151581526020016019820160019054906101000a900460ff161515151581525050905080610340015115614b72576001925080604001519150614b73565b5b50915091565b6000614b83616e0d565b614b8b616e0d565b6000806000806000614b9b616b6b565b60009850600260008b81526020019081526020016000206103606040519081016040529081600082015481526020016001820160009054906101000a900473ffffffffffffffffffffffffffffffffffffffff1673ffffffffffffffffffffffffffffffffffffffff1673ffffffffffffffffffffffffffffffffffffffff168152602001600282018054600181600116156101000203166002900480601f016020809104026020016040519081016040528092919081815260200182805460018160011615610100020316600290048015614cb85780601f10614c8d57610100808354040283529160200191614cb8565b820191906000526020600020905b815481529060010190602001808311614c9b57829003601f168201915b5050505050815260200160038201805480602002602001604051908101604052809291908181526020018280548015614d4657602002820191906000526020600020905b8160009054906101000a900473ffffffffffffffffffffffffffffffffffffffff1673ffffffffffffffffffffffffffffffffffffffff1681526020019060010190808311614cfc575b5050505050815260200160048201805480602002602001604051908101604052809291908181526020018280548015614dd457602002820191906000526020600020905b8160009054906101000a900473ffffffffffffffffffffffffffffffffffffffff1673ffffffffffffffffffffffffffffffffffffffff1681526020019060010190808311614d8a575b50505050508152602001600582018054600181600116156101000203166002900480601f016020809104026020016040519081016040528092919081815260200182805460018160011615610100020316600290048015614e765780601f10614e4b57610100808354040283529160200191614e76565b820191906000526020600020905b815481529060010190602001808311614e5957829003601f168201915b50505050508152602001600682018054600181600116156101000203166002900480601f016020809104026020016040519081016040528092919081815260200182805460018160011615610100020316600290048015614f185780601f10614eed57610100808354040283529160200191614f18565b820191906000526020600020905b815481529060010190602001808311614efb57829003601f168201915b50505050508152602001600782018054600181600116156101000203166002900480601f016020809104026020016040519081016040528092919081815260200182805460018160011615610100020316600290048015614fba5780601f10614f8f57610100808354040283529160200191614fba565b820191906000526020600020905b815481529060010190602001808311614f9d57829003601f168201915b50505050508152602001600882018054600181600116156101000203166002900480601f01602080910402602001604051908101604052809291908181526020018280546001816001161561010002031660029004801561505c5780601f106150315761010080835404028352916020019161505c565b820191906000526020600020905b81548152906001019060200180831161503f57829003601f168201915b50505050508152602001600982018054600181600116156101000203166002900480601f0160208091040260200160405190810160405280929190818152602001828054600181600116156101000203166002900480156150fe5780601f106150d3576101008083540402835291602001916150fe565b820191906000526020600020905b8154815290600101906020018083116150e157829003601f168201915b50505050508152602001600a82018054600181600116156101000203166002900480601f0160208091040260200160405190810160405280929190818152602001828054600181600116156101000203166002900480156151a05780601f10615175576101008083540402835291602001916151a0565b820191906000526020600020905b81548152906001019060200180831161518357829003601f168201915b50505050508152602001600b82018054600181600116156101000203166002900480601f0160208091040260200160405190810160405280929190818152602001828054600181600116156101000203166002900480156152425780601f1061521757610100808354040283529160200191615242565b820191906000526020600020905b81548152906001019060200180831161522557829003601f168201915b50505050508152602001600c820160009054906101000a900460ff1660ff1660ff168152602001600d8201548152602001600e8201548152602001600f8201548152602001601082015481526020016011820180548060200260200160405190810160405280929190818152602001828054801561530557602002820191906000526020600020906000905b82829054906101000a900460ff1660ff16815260200190600101906020826000010492830192600103820291508084116152ce5790505b5050505050815260200160128201805480602002602001604051908101604052809291908181526020016000905b828210156153f057838290600052602060002090018054600181600116156101000203166002900480601f0160208091040260200160405190810160405280929190818152602001828054600181600116156101000203166002900480156153dc5780601f106153b1576101008083540402835291602001916153dc565b820191906000526020600020905b8154815290600101906020018083116153bf57829003601f168201915b505050505081526020019060010190615333565b5050505081526020016013820154815260200160148201548152602001601582015481526020016016820154815260200160178201548152602001601882015481526020016019820160009054906101000a900460ff161515151581526020016019820160019054906101000a900460ff1615151515815250509050806103400151151561547d576154ba565b806101400151975080610160015196508061018001519550806101a001519450806101c001519350806101e0015192508061020001519150600198505b50919395975091939597565b60006154d0616b6b565b60009150600260008581526020019081526020016000206103606040519081016040529081600082015481526020016001820160009054906101000a900473ffffffffffffffffffffffffffffffffffffffff1673ffffffffffffffffffffffffffffffffffffffff1673ffffffffffffffffffffffffffffffffffffffff168152602001600282018054600181600116156101000203166002900480601f0160208091040260200160405190810160405280929190818152602001828054600181600116156101000203166002900480156155ed5780601f106155c2576101008083540402835291602001916155ed565b820191906000526020600020905b8154815290600101906020018083116155d057829003601f168201915b505050505081526020016003820180548060200260200160405190810160405280929190818152602001828054801561567b57602002820191906000526020600020905b8160009054906101000a900473ffffffffffffffffffffffffffffffffffffffff1673ffffffffffffffffffffffffffffffffffffffff1681526020019060010190808311615631575b505050505081526020016004820180548060200260200160405190810160405280929190818152602001828054801561570957602002820191906000526020600020905b8160009054906101000a900473ffffffffffffffffffffffffffffffffffffffff1673ffffffffffffffffffffffffffffffffffffffff16815260200190600101908083116156bf575b50505050508152602001600582018054600181600116156101000203166002900480601f0160208091040260200160405190810160405280929190818152602001828054600181600116156101000203166002900480156157ab5780601f10615780576101008083540402835291602001916157ab565b820191906000526020600020905b81548152906001019060200180831161578e57829003601f168201915b50505050508152602001600682018054600181600116156101000203166002900480601f01602080910402602001604051908101604052809291908181526020018280546001816001161561010002031660029004801561584d5780601f106158225761010080835404028352916020019161584d565b820191906000526020600020905b81548152906001019060200180831161583057829003601f168201915b50505050508152602001600782018054600181600116156101000203166002900480601f0160208091040260200160405190810160405280929190818152602001828054600181600116156101000203166002900480156158ef5780601f106158c4576101008083540402835291602001916158ef565b820191906000526020600020905b8154815290600101906020018083116158d257829003601f168201915b50505050508152602001600882018054600181600116156101000203166002900480601f0160208091040260200160405190810160405280929190818152602001828054600181600116156101000203166002900480156159915780601f1061596657610100808354040283529160200191615991565b820191906000526020600020905b81548152906001019060200180831161597457829003601f168201915b50505050508152602001600982018054600181600116156101000203166002900480601f016020809104026020016040519081016040528092919081815260200182805460018160011615610100020316600290048015615a335780601f10615a0857610100808354040283529160200191615a33565b820191906000526020600020905b815481529060010190602001808311615a1657829003601f168201915b50505050508152602001600a82018054600181600116156101000203166002900480601f016020809104026020016040519081016040528092919081815260200182805460018160011615610100020316600290048015615ad55780601f10615aaa57610100808354040283529160200191615ad5565b820191906000526020600020905b815481529060010190602001808311615ab857829003601f168201915b50505050508152602001600b82018054600181600116156101000203166002900480601f016020809104026020016040519081016040528092919081815260200182805460018160011615610100020316600290048015615b775780601f10615b4c57610100808354040283529160200191615b77565b820191906000526020600020905b815481529060010190602001808311615b5a57829003601f168201915b50505050508152602001600c820160009054906101000a900460ff1660ff1660ff168152602001600d8201548152602001600e8201548152602001600f82015481526020016010820154815260200160118201805480602002602001604051908101604052809291908181526020018280548015615c3a57602002820191906000526020600020906000905b82829054906101000a900460ff1660ff1681526020019060010190602082600001049283019260010382029150808411615c035790505b5050505050815260200160128201805480602002602001604051908101604052809291908181526020016000905b82821015615d2557838290600052602060002090018054600181600116156101000203166002900480601f016020809104026020016040519081016040528092919081815260200182805460018160011615610100020316600290048015615d115780601f10615ce657610100808354040283529160200191615d11565b820191906000526020600020905b815481529060010190602001808311615cf457829003601f168201915b505050505081526020019060010190615c68565b5050505081526020016013820154815260200160148201548152602001601582015481526020016016820154815260200160178201548152602001601882015481526020016019820160009054906101000a900460ff161515151581526020016019820160019054906101000a900460ff161515151581525050905080610340015115615dbe5782816040018190525060019150615dbf565b5b5092915050565b60008088600080615dd5616df9565b60006002600086815260200190815260200160002093508360190160019054906101000a900460ff161515615e0957600080fd5b6000925083600301805480602002602001604051908101604052809291908181526020018280548015615e9157602002820191906000526020600020905b8160009054906101000a900473ffffffffffffffffffffffffffffffffffffffff1673ffffffffffffffffffffffffffffffffffffffff1681526020019060010190808311615e47575b50505050509150600090505b8151811015615f03573373ffffffffffffffffffffffffffffffffffffffff168282815181101515615ecb57fe5b9060200190602002015173ffffffffffffffffffffffffffffffffffffffff161415615ef657600192505b8080600101915050615e9d565b821515615f0f57600080fd5b60009650600260008f815260200190815260200160002095508560190160019054906101000a900460ff161515615f4557615fe0565b8b866002019080519060200190615f5d929190616d79565b508c866005019080519060200190615f76929190616d79565b508a866006019080519060200190615f8f929190616d79565b5089866007019080519060200190615fa8929190616d79565b5088866008019080519060200190615fc1929190616d79565b5087866009019080519060200190615fda929190616d79565b50600196505b505050505050979650505050505050565b6000806000915060019150600090509250929050565b6000806002600088815260200190815260200160002090508060190160019054906101000a900460ff16151561603c57616065565b858160130181905550848160140181905550838160150181905550828160160181905550600191505b5095945050505050565b600080600061607c616b6b565b6000806000955061608d8888615ff1565b80955081965050508415156160a157616a19565b600260008a81526020019081526020016000206103606040519081016040529081600082015481526020016001820160009054906101000a900473ffffffffffffffffffffffffffffffffffffffff1673ffffffffffffffffffffffffffffffffffffffff1673ffffffffffffffffffffffffffffffffffffffff168152602001600282018054600181600116156101000203166002900480601f0160208091040260200160405190810160405280929190818152602001828054600181600116156101000203166002900480156161ba5780601f1061618f576101008083540402835291602001916161ba565b820191906000526020600020905b81548152906001019060200180831161619d57829003601f168201915b505050505081526020016003820180548060200260200160405190810160405280929190818152602001828054801561624857602002820191906000526020600020905b8160009054906101000a900473ffffffffffffffffffffffffffffffffffffffff1673ffffffffffffffffffffffffffffffffffffffff16815260200190600101908083116161fe575b50505050508152602001600482018054806020026020016040519081016040528092919081815260200182805480156162d657602002820191906000526020600020905b8160009054906101000a900473ffffffffffffffffffffffffffffffffffffffff1673ffffffffffffffffffffffffffffffffffffffff168152602001906001019080831161628c575b50505050508152602001600582018054600181600116156101000203166002900480601f0160208091040260200160405190810160405280929190818152602001828054600181600116156101000203166002900480156163785780601f1061634d57610100808354040283529160200191616378565b820191906000526020600020905b81548152906001019060200180831161635b57829003601f168201915b50505050508152602001600682018054600181600116156101000203166002900480601f01602080910402602001604051908101604052809291908181526020018280546001816001161561010002031660029004801561641a5780601f106163ef5761010080835404028352916020019161641a565b820191906000526020600020905b8154815290600101906020018083116163fd57829003601f168201915b50505050508152602001600782018054600181600116156101000203166002900480601f0160208091040260200160405190810160405280929190818152602001828054600181600116156101000203166002900480156164bc5780601f10616491576101008083540402835291602001916164bc565b820191906000526020600020905b81548152906001019060200180831161649f57829003601f168201915b50505050508152602001600882018054600181600116156101000203166002900480601f01602080910402602001604051908101604052809291908181526020018280546001816001161561010002031660029004801561655e5780601f106165335761010080835404028352916020019161655e565b820191906000526020600020905b81548152906001019060200180831161654157829003601f168201915b50505050508152602001600982018054600181600116156101000203166002900480601f0160208091040260200160405190810160405280929190818152602001828054600181600116156101000203166002900480156166005780601f106165d557610100808354040283529160200191616600565b820191906000526020600020905b8154815290600101906020018083116165e357829003601f168201915b50505050508152602001600a82018054600181600116156101000203166002900480601f0160208091040260200160405190810160405280929190818152602001828054600181600116156101000203166002900480156166a25780601f10616677576101008083540402835291602001916166a2565b820191906000526020600020905b81548152906001019060200180831161668557829003601f168201915b50505050508152602001600b82018054600181600116156101000203166002900480601f0160208091040260200160405190810160405280929190818152602001828054600181600116156101000203166002900480156167445780601f1061671957610100808354040283529160200191616744565b820191906000526020600020905b81548152906001019060200180831161672757829003601f168201915b50505050508152602001600c820160009054906101000a900460ff1660ff1660ff168152602001600d8201548152602001600e8201548152602001600f8201548152602001601082015481526020016011820180548060200260200160405190810160405280929190818152602001828054801561680757602002820191906000526020600020906000905b82829054906101000a900460ff1660ff16815260200190600101906020826000010492830192600103820291508084116167d05790505b5050505050815260200160128201805480602002602001604051908101604052809291908181526020016000905b828210156168f257838290600052602060002090018054600181600116156101000203166002900480601f0160208091040260200160405190810160405280929190818152602001828054600181600116156101000203166002900480156168de5780601f106168b3576101008083540402835291602001916168de565b820191906000526020600020905b8154815290600101906020018083116168c157829003601f168201915b505050505081526020019060010190616835565b5050505081526020016013820154815260200160148201548152602001601582015481526020016016820154815260200160178201548152602001601882015481526020016019820160009054906101000a900460ff161515151581526020016019820160019054906101000a900460ff1615151515815250509250826103400151151561697f57616a19565b616993836102e00151846103000151615ff1565b80925081935050508115156169a757616a19565b83811415156169fe576004600085815260200190815260200160002080548060010182816169d59190616d4d565b916000526020600020900160008560000151909190915055506169fc818460000151616adf565b505b87836102e00181815250508683610300018181525050600195505b50505050509392505050565b600080600260008b815260200190815260200160002090508060190160019054906101000a900460ff161515616a5a57616ad2565b8881600a019080519060200190616a72929190616d79565b508781600b019080519060200190616a8b929190616d79565b508681600c0160006101000a81548160ff021916908360ff1602179055508581600d01819055508481600e01819055508381600f0181905550828160100181905550600191505b5098975050505050505050565b60008060008060009350600460008781526020019081526020016000209250600090505b8280549050811015616b4157848382815481101515616b1e57fe5b9060005260206000209001541415616b34578091505b8080600101915050616b03565b8282815481101515616b4f57fe5b9060005260206000209001600090556001935050505092915050565b6103606040519081016040528060008152602001600073ffffffffffffffffffffffffffffffffffffffff168152602001616ba4616ff6565b8152602001616bb161700a565b8152602001616bbe61700a565b8152602001616bcb616ff6565b8152602001616bd8616ff6565b8152602001616be5616ff6565b8152602001616bf2616ff6565b8152602001616bff616ff6565b8152602001616c0c616ff6565b8152602001616c19616ff6565b8152602001600060ff16815260200160008152602001600081526020016000815260200160008152602001616c4c61701e565b8152602001616c59617032565b81526020016000815260200160008152602001600081526020016000815260200160008152602001600081526020016000151581526020016000151581525090565b50805460018160011615610100020316600290046000825580601f10616cc15750616ce0565b601f016020900490600052602060002090810190616cdf9190617046565b5b50565b5080546000825590600052602060002090810190616d019190617046565b50565b50805460008255601f016020900490600052602060002090810190616d299190617046565b50565b5080546000825590600052602060002090810190616d4a919061706b565b50565b815481835581811511616d7457818360005260206000209182019101616d739190617046565b5b505050565b828054600181600116156101000203166002900490600052602060002090601f016020900481019282601f10616dba57805160ff1916838001178555616de8565b82800160010185558215616de8579182015b82811115616de7578251825591602001919060010190616dcc565b5b509050616df59190617046565b5090565b602060405190810160405280600081525090565b602060405190810160405280600081525090565b815481835581811511616e4857818360005260206000209182019101616e479190617046565b5b505050565b828054600181600116156101000203166002900490600052602060002090601f016020900481019282601f10616e865780548555616ec3565b82800160010185558215616ec357600052602060002091601f016020900482015b82811115616ec2578254825591600101919060010190616ea7565b5b509050616ed09190617046565b5090565b828054828255906000526020600020908101928215616f155760005260206000209182015b82811115616f14578254825591600101919060010190616ef9565b5b509050616f229190617097565b5090565b82805482825590600052602060002090601f01602090048101928215616f7557600052602060002091601f016020900482015b82811115616f74578254825591600101919060010190616f59565b5b509050616f8291906170da565b5090565b828054828255906000526020600020908101928215616fe55760005260206000209182015b82811115616fe45782829080546001816001161561010002031660029004616fd4929190616e4d565b5091600101919060010190616fab565b5b509050616ff2919061706b565b5090565b602060405190810160405280600081525090565b602060405190810160405280600081525090565b602060405190810160405280600081525090565b602060405190810160405280600081525090565b61706891905b8082111561706457600081600090555060010161704c565b5090565b90565b61709491905b8082111561709057600081816170879190616c9b565b50600101617071565b5090565b90565b6170d791905b808211156170d357600081816101000a81549073ffffffffffffffffffffffffffffffffffffffff02191690555060010161709d565b5090565b90565b61710791905b8082111561710357600081816101000a81549060ff0219169055506001016170e0565b5090565b905600a165627a7a723058207bfa15350695fc06fee55532bd209cd7c8eb89ab13993bfd9969b181017c616e0029",
  "source": "pragma solidity ^0.4.19;\n\ncontract OkeyDokey {\n    /** Get addresses of other contracts. */\n    function getAddress(uint16) public view returns (address);\n}\n\n\n// contract Devices {\n\n// }\n\n// contract Reservations {\n\n// }\n\ncontract Houses {\n\n    /** Admin of this contract. */\n    address private admin;\n\n    /** Running count of house ids. Smallest valid house index is 1. */\n    uint256 houseId = 0;\n\n    /** Map of house ids to each corresponding house. */\n    mapping(uint256 => House) private houses;\n\n    /** Map of addresses to ids of houses it owns. */\n    mapping(address => uint256[]) private housesOf;\n\n    /** Map of a grid's id to houses located in that particular grid. */\n    mapping(uint256 => uint256[]) private housesInGrid;\n\n    /** Address of OkeyDokey contract. */\n    address private okeyDokeyAddress;\n\n    /** Instance of Devices contract. */\n    OkeyDokey private okeyDokey;\n\n    // /** Address of Devices contract. */\n    // address private devicesAddress;\n\n    // /** Instance of Devices contract. */\n    // Devices private devices;\n\n    /** Address of Reservations contract. */\n    // address private reservationsAddress;\n\n    /** Instance of Reservations contract. */\n    // Reservations private reservations;\n\n    /** Structure of a house. */\n    struct House {\n        uint256 id;\n\n        /* Owner info */\n        address host;\n        string hostName;\n        address[] administrators;\n        address[] devices;\n\n        /* House info */\n        string houseName;\n        string addrFull;\n        string addrSummary;\n        string addrDirection;\n        string description;\n        string housePolicy;\n        string cancellationPolicy;\n        uint8 houseType;\n        uint256 numGuest;\n        uint256 numBedroom;\n        uint256 numBed;\n        uint256 numBathroom;\n        uint8[] amenities;\n        string[] imageHashes;\n\n        /* Price */\n        uint256 hourlyRate;\n        uint256 dailyRate;\n        uint256 utilityFee;\n        uint256 cleaningFee;\n\n        /* Location */\n        uint256 latitude;\n        uint256 longitude;\n\n        /* Logistics */\n        bool active;\n        bool valid;\n    }\n\n    /**\n     * Modifier for functions only smart contract owner can run.\n     */\n    modifier system() {\n        /* Verify admin. */\n        if (admin != msg.sender) {\n            throw;\n        }\n\n        _;\n    }\n\n    /**\n     * Modifier for functions only house host(owner) can run.\n     *\n     * @param id The id of house being manipulated.\n     */\n    modifier onlyHost(uint256 id) {\n        House storage house = houses[id];   \n        if (!house.valid) {\n            throw;\n        } \n\n        /* Verify owner. */\n        if (house.host != msg.sender) {\n            throw;\n        }\n\n        _;\n    }\n\n    /**\n     * Modifier for functions only designated admins can run.\n     *\n     * @param id The id of house being manipulated.\n     */\n    modifier onlyAdmins(uint256 id) {\n        House storage house = houses[id];   \n        if (!house.valid) {\n            throw;\n        } \n\n        /* Search for admin address. */\n        bool found = false;\n        address[] memory admins = house.administrators;\n        for (uint256 i=0; i < admins.length; i++) {\n            if (admins[i] == msg.sender) {\n                found = true;\n            }\n        }\n\n        if (!found) {\n            throw;\n        }\n\n        _;\n    }\n\n    /**\n     * Constrctor function.\n     *\n     * Assign owner.\n     *\n     */\n    function Houses() public {\n        admin = msg.sender;\n    }\n\n    /**\n     * Reinitialize values dependant on other functions.\n     *\n     * @param _okeyDokeyAddress The address of main application contract.\n     * @return success Whether the reinitialization was successful.\n     */\n    function initializeContracts(address _okeyDokeyAddress) public returns (bool success) {\n        require(msg.sender == admin);\n        require(_okeyDokeyAddress != 0);\n        require(_okeyDokeyAddress != address(this));\n\n        okeyDokeyAddress = _okeyDokeyAddress;\n        okeyDokey = OkeyDokey(okeyDokeyAddress);\n\n        // devicesAddress = okeyDokey.getAddress(2);\n        // devices = Devices(devicesAddress);\n\n        // reservationsAddress = okeyDokey.getAddress(3);\n        // reservations = Reservations(reservationsAddress);\n\n        // require(devicesAddress != 0x0);\n        // require(devicesAddress != address(this));\n\n        // require(reservationsAddress != 0x0);\n        // require(reservationsAddress != address(this));\n\n        return true;\n    }\n\n    /**\n     * Register and list a new house (1).\n     *\n     * Divided into three functions because \n     * Solidity limits the number of local variables to 16.\n     *\n     * @param houseName The name of the house. Also used as the title of listing.\n     * @param hostName The name of the host.\n     * @param addrFull Full address of the house.\n     * @param addrSummary Shortened address of the house.\n     * @param addrDirection Instructions on how to find the house.\n     * @param description House description, provided by the host.\n     * @return success Whether the registration was successful.\n     * @return newId Id of the new house. Must be greater than 0 to be considered valid.\n     */\n    function registerHouse1(string houseName, string hostName, \n        string addrFull, string addrSummary, string addrDirection, \n        string description) public returns (bool success, uint256 newId) {\n\n        success = false;\n        newId = 0;\n\n        /* Smallest houseId is 1 */\n        houseId += 1;\n\n        House storage house; \n\n        house.id = houseId;\n\n        /* Owner info */\n        house.host = msg.sender;\n        house.hostName = hostName;\n        house.administrators.push(msg.sender);\n\n        /* House info */\n        house.houseName = houseName;\n        house.addrFull = addrFull;\n        house.addrSummary = addrSummary;\n        house.addrDirection = addrDirection;\n        house.description = description;\n\n        /* Add newly created house to storage. */\n        houses[house.id] = house;\n        housesOf[msg.sender].push(house.id);\n\n        /* Logistics */\n        house.active = false;\n        house.valid = false;\n\n        success = true;\n        newId = house.id;\n    } \n\n    /**\n     * Register and list a new house (2).\n     *\n     * Divided into three functions because \n     * Solidity limits the number of local variables to 16.\n     *\n     * @param id The id of the house to continue initializing.\n     * @param housePolicy Basic house rules set by the host.\n     * @param cancellationPolicy The cancellation policy of the booking.\n     * @param houseType The type of the house.\n     * @param numGuest The number of guests the house can accomodate.\n     * @param numBedroom The number of bedrooms in the house.\n     * @param numBed The total number of beds in the house.\n     * @param numBathroom The number of bathrooms in the house.\n     * @return success Whether the registration was successful.\n     * @return newId Id of the new house. Must be greater than 0 to be considered valid.\n     */\n    function registerHouse2(uint256 id, string housePolicy, string cancellationPolicy, \n        uint8 houseType, uint256 numGuest, uint256 numBedroom, \n        uint256 numBed, uint256 numBathroom) public returns (bool success, uint256 newId) {\n\n        success = false;\n        newId = 0;\n\n        House storage house = houses[id];   \n        if (!house.valid) {\n            return;\n        } else if (house.host == msg.sender) {\n            return;\n        }\n\n        /* House info */\n        house.housePolicy = housePolicy;\n        house.cancellationPolicy = cancellationPolicy;\n        house.houseType = houseType;\n        house.numGuest = numGuest;\n        house.numBedroom = numBedroom;\n        house.numBed = numBed;\n        house.numBathroom = numBathroom;\n\n        /* Logistics */\n        house.active = false;\n        house.valid = false;\n\n        success = true;\n        newId = house.id;\n    } \n\n    /**\n     * Register and list a new house (3).\n     *\n     * Divided into three functions because \n     * Solidity limits the number of local variables to 16.\n     *\n     * @param id The id of the house to continue initializing.\n     * @param hourlyRate The hourly rate of the house.\n     * @param dailyRate The daily rate of the house.\n     * @param utilityFee The utility fee of the house.\n     * @param cleaningFee The cleaning fee of the house.\n     * @param latitude The lattitude of the house, multiplied by 1 million.\n     * @param longitude The longitude of the house, multiplied by 1 million.\n     * @return success Whether the registration was successful.\n     * @return newId Id of the new house. Must be greater than 0 to be considered valid.\n     */\n    function registerHouse3(uint256 id,  \n        uint256 hourlyRate, uint256 dailyRate, uint256 utilityFee, uint256 cleaningFee, \n        uint256 latitude, uint256 longitude) public returns (bool success, uint256 newId) {\n\n        success = false;\n\n        bool succ;\n        uint256 gridId;\n        (succ, gridId) = getGridId(latitude, longitude);\n        if (!succ) {\n            /* This listing failed. Erase houseId. */\n            delete houses[id];\n            houseId -= 1;\n            return;\n        }\n\n        House storage house = houses[id];   \n        if (!house.valid) {\n            return;\n        } else if (house.host != msg.sender) {\n            return;\n        }\n\n        /* Price */\n        house.hourlyRate = hourlyRate;\n        house.dailyRate = dailyRate;\n        house.utilityFee = utilityFee;\n        house.cleaningFee = cleaningFee;\n\n        /* Location */\n        house.latitude = latitude;\n        house.longitude = longitude;\n\n        /* Logistics */\n        house.active = true;\n        house.valid = true;\n\n        /* Add newly created house to storage. */\n        housesInGrid[gridId].push(house.id);\n\n        success = true;\n        newId = house.id;\n    } \n\n    /**\n     * Edit a listed house (1).\n     *\n     * Divided into three functions because \n     * Solidity limits the number of local variables to 16.\n     *\n     * @param id The id of the house to edit.\n     * @param houseName The name of the house. Also used as the title of listing.\n     * @param hostName The name of the host.\n     * @param addrFull Full address of the house.\n     * @param addrSummary Shortened address of the house.\n     * @param addrDirection Instructions on how to find the house.\n     * @param description House description, provided by the host.\n     * @return success Whether the edit was successful.\n     */\n    function editHouse1(uint256 id, string houseName, string hostName, \n        string addrFull, string addrSummary, string addrDirection, \n        string description) onlyAdmins(id) public returns (bool success) {\n\n        success = false;\n\n        House storage house = houses[id]; \n        if (!house.valid) {\n            return;\n        } \n\n        /* Owner info */\n        house.hostName = hostName;\n\n        /* House info */\n        house.houseName = houseName;\n        house.addrFull = addrFull;\n        house.addrSummary = addrSummary;\n        house.addrDirection = addrDirection;\n        house.description = description;\n\n        success = true;\n    } \n\n    /**\n     * Edit a listed house (2).\n     *\n     * Divided into three functions because \n     * Solidity limits the number of local variables to 16.\n     *\n     * @param id The id of the house to edit.\n     * @param housePolicy Basic house rules set by the host.\n     * @param cancellationPolicy The cancellation policy of the booking.\n     * @param houseType The type of the house.\n     * @param numGuest The number of guests the house can accomodate.\n     * @param numBedroom The number of bedrooms in the house.\n     * @param numBed The total number of beds in the house.\n     * @param numBathroom The number of bathrooms in the house.\n     * @return success Whether the edit was successful.\n     */\n    function editHouse2(uint256 id, string housePolicy, string cancellationPolicy, \n        uint8 houseType, uint256 numGuest, uint256 numBedroom, \n        uint256 numBed, uint256 numBathroom) onlyAdmins(id) public returns (bool success) {\n\n        success = false;\n\n        /* Prices */\n        bool succ = updateSecondaryInfo(id, housePolicy, cancellationPolicy, \n                                        houseType, numGuest, numBedroom, \n                                        numBed, numBathroom);\n        if (!succ) {\n            return;\n        }\n\n        success = true;\n    } \n\n    /**\n     * Update secondary info for a house listing.\n     *\n     * Helper function for editHouse2. \n     *\n     * @param id The id of the house to edit.\n     * @param housePolicy Basic house rules set by the host.\n     * @param cancellationPolicy The cancellation policy of the booking.\n     * @param houseType The type of the house.\n     * @param numGuest The number of guests the house can accomodate.\n     * @param numBedroom The number of bedrooms in the house.\n     * @param numBed The total number of beds in the house.\n     * @param numBathroom The number of bathrooms in the house.\n     * @return success Whether the update was successful.\n     */\n    function updateSecondaryInfo(uint256 id, string housePolicy, string cancellationPolicy, \n        uint8 houseType, uint256 numGuest, uint256 numBedroom, \n        uint256 numBed, uint256 numBathroom) internal returns (bool success) {\n\n        House storage house = houses[id];  \n        if (!house.valid) {\n            return;\n        }\n\n        /* House info */\n        house.housePolicy = housePolicy;\n        house.cancellationPolicy = cancellationPolicy;\n        house.houseType = houseType;\n        house.numGuest = numGuest;\n        house.numBedroom = numBedroom;\n        house.numBed = numBed;\n        house.numBathroom = numBathroom;\n\n        success = true;\n     }\n\n    /**\n     * Edit a listed house (3).\n     *\n     * Divided into three functions because \n     * Solidity limits the number of local variables to 16.\n     *\n     * @param id The id of the house to edit.\n     * @param hourlyRate The hourly rate of the house.\n     * @param dailyRate The daily rate of the house.\n     * @param utilityFee The utility fee of the house.\n     * @param cleaningFee The cleaning fee of the house.\n     * @param latitude The lattitude of the house, multiplied by 1 million.\n     * @param longitude The longitude of the house, multiplied by 1 million.\n     * @return success Whether the edit was successful.\n     */\n    function editHouse3(uint256 id, uint256 hourlyRate, \n        uint256 dailyRate, uint256 utilityFee, uint256 cleaningFee, \n        uint256 latitude, uint256 longitude) onlyAdmins(id) public returns (bool success) {\n\n        success = false;\n\n        /* Prices */\n        bool succ1 = updatePrices(id, hourlyRate, dailyRate, utilityFee, cleaningFee);\n        if (!succ1) {\n            return;\n        }\n\n        /* Coordinates */\n        bool succ2 = updateCoordinates(id, latitude, longitude);\n        if (!succ2) {\n            return;\n        }\n\n        success = true;\n    } \n\n    /**\n     * Update prices for a house listing.\n     *\n     * Helper function for editHouse3. \n     * Currently public due to stack size limitations in EVM.\n     *\n     * @param id The id of the house to edit.\n     * @param hourlyRate The hourly rate of the house.\n     * @param dailyRate The daily rate of the house.\n     * @param utilityFee The utility fee of the house.\n     * @param cleaningFee The cleaning fee of the house.\n     * @return success Whether the update was successful.\n     */\n    function updatePrices(uint256 id, uint256 hourlyRate, uint256 dailyRate, \n        uint256 utilityFee, uint256 cleaningFee) internal returns (bool success) {\n\n        House storage house = houses[id];  \n        if (!house.valid) {\n            return;\n        }\n\n        /* Price */\n        house.hourlyRate = hourlyRate;\n        house.dailyRate = dailyRate;\n        house.utilityFee = utilityFee;\n        house.cleaningFee = cleaningFee;\n\n        success = true;\n     }\n\n    /**\n     * Update coordinates for a house listing.\n     *\n     * Helper function for editHouse3. \n     *\n     * @param id The id of the house to edit.\n     * @param latitude The lattitude of the house, multiplied by 1 million.\n     * @param longitude The longitude of the house, multiplied by 1 million.\n     * @return success Whether the update was successful.\n     */\n    function updateCoordinates(uint256 id, uint256 latitude, uint256 longitude) \n        internal returns (bool success) {\n\n        success = false;\n\n        /* Check new coordinates. */\n        bool succ;\n        uint256 gridId;\n        (succ, gridId) = getGridId(latitude, longitude);\n        if (!succ) {\n            return;\n        }\n\n        /* Fetch previous coordinates. */\n        House memory house = houses[id];  \n        if (!house.valid) {\n            return;\n        }\n\n        bool prevSucc;\n        uint256 prevGridId;\n        (prevSucc, prevGridId) = getGridId(house.latitude, house.longitude);\n        if (!prevSucc) {\n            return;\n        }\n\n        /* Add newly created house to storage. */\n        if (prevGridId != gridId) {\n            housesInGrid[gridId].push(house.id);\n            /* Erase from previous gridId */\n            removeFromGridId(prevGridId, house.id);\n        }\n\n        /* Update location. */\n        house.latitude = latitude;\n        house.longitude = longitude;\n\n        success = true;\n     }\n\n     /**\n     * Remove houseId from grid.\n     *\n     * Helper function for editHouse3. \n     *\n     * @param prevGridId The id of the grid to erase from.\n     * @param id The id of the house to erase.\n     * @return success Whether the deletion was successful.\n     */\n    function removeFromGridId(uint256 prevGridId, uint256 id) internal returns (bool success) {\n        success = false;\n        uint256[] storage ids = housesInGrid[prevGridId];\n        uint256 toErase;\n        for (uint256 i=0; i < ids.length; i++) {\n            if (ids[i] == id) {\n                toErase = i;\n            }\n        } \n        delete ids[toErase];\n        success = true;\n    }\n\n    /**\n     * Fetch house info (1).\n     *\n     * Divided into three functions because \n     * Solidity limits the number of local variables to 16.\n     *\n     * @param id The id of the house to query.\n     * @return success Whether the query was successful.\n     * @return houseName The name of the house. Also used as the title of listing.\n     * @return hostName The name of the host.\n     * @return addrFull Full address of the house.\n     * @return addrSummary Shortened address of the house.\n     * @return addrDirection Instructions on how to find the house.\n     * @return description House description, provided by the host.\n     * @return housePolicy Basic house rules set by the host.\n     * @return cancellationPolicy The cancellation policy of the booking.\n     * @return houseType The type of the house.\n     */\n    function getHouseInfo1(uint256 id) public view \n        returns (bool success, string houseName, string hostName,\n                 string addrFull, string addrSummary, string addrDirection,\n                 string description) {\n\n        success = false;\n        \n        House memory house = houses[id];   \n\n        if (!house.valid) {\n            return;\n        }\n\n        /* Owner info */\n        hostName = house.hostName;\n\n        /* House info */\n        houseName = house.houseName; \n        addrFull = house.addrFull;\n        addrSummary = house.addrSummary; \n        addrDirection = house.addrDirection; \n        description = house.description;\n\n        success = true;\n    } \n\n    /**\n     * Fetch house info (2).\n     *\n     * Divided into three functions because \n     * Solidity limits the number of local variables to 16.\n     *\n     * @param id The id of the house to query.\n     * @return success Whether the query was successful.\n     * @return description House description, provided by the host.\n     * @return housePolicy Basic house rules set by the host.\n     * @return cancellationPolicy The cancellation policy of the booking.\n     * @return houseType The type of the house.\n     * @return numGuest The number of guests the house can accomodate.\n     * @return numBedroom The number of bedrooms in the house.\n     * @return numBed The total number of beds in the house.\n     * @return numBathroom The number of bathrooms in the house.\n     */\n    function getHouseInfo2(uint256 id) public view \n        returns (bool success, string housePolicy, string cancellationPolicy, \n                 uint8 houseType, uint256 numGuest, uint256 numBedroom, \n                 uint256 numBed, uint256 numBathroom) {\n\n        success = false;\n        \n        House memory house = houses[id];   \n\n        if (!house.valid) {\n            return;\n        }\n\n        /* House info */\n        housePolicy = house.housePolicy;\n        cancellationPolicy = house.cancellationPolicy;\n        houseType = house.houseType;\n        numGuest = house.numGuest;\n        numBedroom = house.numBedroom;\n        numBed = house.numBed;\n        numBathroom = house.numBathroom;\n\n        success = true;\n    } \n\n    /**\n     * Fetch house info (3).\n     *\n     * Divided into three functions because \n     * Solidity limits the number of local variables to 16.\n     *\n     * @param id The id of the house to query.\n     * @return success Whether the query was successful.\n     * @return hourlyRate The hourly rate of the house.\n     * @return dailyRate The daily rate of the house.\n     * @return utilityFee The utility fee of the house.\n     * @return cleaningFee The cleaning fee of the house.\n     * @return latitude The lattitude of the house, multiplied by 1 million.\n     * @return longitude The longitude of the house, multiplied by 1 million.\n     */\n    function getHouseInfo3(uint256 id) public view \n        returns (bool success, uint256 hourlyRate, uint256 dailyRate, \n                 uint256 utilityFee, uint256 cleaningFee, \n                 uint256 latitude, uint256 longitude) {\n\n        success = false;\n        \n        House memory house = houses[id];   \n\n        if (!house.valid) {\n            return;\n        }\n\n        /* House info */\n        hourlyRate = house.hourlyRate; \n        dailyRate = house.dailyRate;\n        utilityFee = house.utilityFee; \n        cleaningFee = house.cleaningFee; \n        latitude = house.latitude; \n        longitude = house.longitude;\n\n        success = true;\n    } \n\n    /**\n     * Setter for house name.\n     *\n     * @param id If of house to edit.\n     * @param houseName New name of house.\n     * @return success Whether the operation was successful.\n     */\n    function setHouseName(uint256 id, string houseName) public returns (bool success) {\n        success = false;\n\n        House memory house = houses[id];\n        if (house.valid) {\n            house.houseName = houseName;\n            success = true;\n            return;\n        }\n    }\n\n    /**\n     * Getter for house name.\n     *\n     * @param id If of house to query.\n     * @return success Whether the query was successful.\n     * @return houseName Name of the house.\n     */\n    function getHouseName(uint256 id) public view returns (bool success, string houseName) {\n        success = false;\n\n        House memory house = houses[id];\n        if (house.valid) {\n            success = true;\n            houseName = house.houseName;\n            return;\n        }\n    }\n\n    /**\n     * Setter for host name.\n     *\n     * @param id If of house to edit.\n     * @param hostName New name of host.\n     * @return success Whether the operation was successful.\n     */\n    function setHostName(uint256 id, string hostName) public returns (bool success) {\n        success = false;\n\n        House memory house = houses[id];\n        if (house.valid) {\n            house.hostName = hostName;\n            success = true;\n            return;\n        }\n    }\n\n    /**\n     * Getter for host name.\n     *\n     * @param id If of house to query.\n     * @return success Whether the query was successful.\n     * @return hostName Name of the house.\n     */\n    function getHostName(uint256 id) public view returns (bool success, string hostName) {\n        success = false;\n\n        House memory house = houses[id];\n        if (house.valid) {\n            success = true;\n            hostName = house.hostName;\n            return;\n        }\n    }\n\n    /**\n     * Calculate grid id from coordinates.\n     *\n     * @param latitude The lattitude of the house, multiplied by 1 million.\n     * @param longitude The longitude of the house, multiplied by 1 million.\n     * @return success Whether the coordinates were valid.\n     * @return gridId Id within the earth's grid.\n     */\n    function getGridId(uint256 latitude, uint256 longitude) public returns (bool success, uint256 gridId) {\n        success = false;\n\n        success = true;\n        gridId = 0;\n    }\n\n    /**\n     * Self destruct.\n     */\n    function kill() system public { \n        if (msg.sender == admin) selfdestruct(admin); \n    }\n\n}",
  "sourcePath": "/home/seongmin/okeydokey/contracts/houses.sol",
  "compiler": {
    "name": "solc",
    "version": "0.4.19+commit.c4cbbb05.Emscripten.clang"
  },
  "schemaVersion": "1.0.1",
  "updatedAt": "2018-02-08T16:23:55.475Z"
}