{
  "contractName": "Houses",
  "abi": [
    {
      "constant": false,
      "inputs": [
        {
          "name": "_okeyDokeyAddress",
          "type": "address"
        }
      ],
      "name": "initializeContracts",
      "outputs": [
        {
          "name": "success",
          "type": "bool"
        }
      ],
      "payable": false,
      "stateMutability": "nonpayable",
      "type": "function"
    },
    {
      "constant": false,
      "inputs": [
        {
          "name": "id",
          "type": "uint256"
        },
        {
          "name": "newAdmin",
          "type": "address"
        }
      ],
      "name": "addAdministrator",
      "outputs": [
        {
          "name": "success",
          "type": "bool"
        }
      ],
      "payable": false,
      "stateMutability": "nonpayable",
      "type": "function"
    },
    {
      "constant": false,
      "inputs": [],
      "name": "kill",
      "outputs": [],
      "payable": false,
      "stateMutability": "nonpayable",
      "type": "function"
    },
    {
      "constant": false,
      "inputs": [
        {
          "name": "id",
          "type": "uint256"
        },
        {
          "name": "toDelete",
          "type": "address"
        }
      ],
      "name": "removeAdministrator",
      "outputs": [
        {
          "name": "success",
          "type": "bool"
        }
      ],
      "payable": false,
      "stateMutability": "nonpayable",
      "type": "function"
    },
    {
      "constant": false,
      "inputs": [
        {
          "name": "ipfsHash",
          "type": "bytes"
        },
        {
          "name": "latitude",
          "type": "uint256"
        },
        {
          "name": "longitude",
          "type": "uint256"
        }
      ],
      "name": "registerHouse",
      "outputs": [
        {
          "name": "success",
          "type": "bool"
        },
        {
          "name": "newId",
          "type": "uint256"
        }
      ],
      "payable": false,
      "stateMutability": "nonpayable",
      "type": "function"
    },
    {
      "constant": true,
      "inputs": [
        {
          "name": "id",
          "type": "uint256"
        }
      ],
      "name": "getIpfsHash",
      "outputs": [
        {
          "name": "success",
          "type": "bool"
        },
        {
          "name": "ipfsHash",
          "type": "bytes"
        }
      ],
      "payable": false,
      "stateMutability": "view",
      "type": "function"
    },
    {
      "constant": true,
      "inputs": [
        {
          "name": "latitude",
          "type": "uint256"
        },
        {
          "name": "longitude",
          "type": "uint256"
        }
      ],
      "name": "getGridId",
      "outputs": [
        {
          "name": "success",
          "type": "bool"
        },
        {
          "name": "gridId",
          "type": "uint256"
        }
      ],
      "payable": false,
      "stateMutability": "pure",
      "type": "function"
    },
    {
      "constant": false,
      "inputs": [
        {
          "name": "id",
          "type": "uint256"
        },
        {
          "name": "ipfsHash",
          "type": "bytes"
        },
        {
          "name": "latitude",
          "type": "uint256"
        },
        {
          "name": "longitude",
          "type": "uint256"
        }
      ],
      "name": "editHouse",
      "outputs": [
        {
          "name": "success",
          "type": "bool"
        }
      ],
      "payable": false,
      "stateMutability": "nonpayable",
      "type": "function"
    },
    {
      "inputs": [],
      "payable": false,
      "stateMutability": "nonpayable",
      "type": "constructor"
    }
  ],
  "bytecode": "0x60606040526000600155341561001457600080fd5b336000806101000a81548173ffffffffffffffffffffffffffffffffffffffff021916908373ffffffffffffffffffffffffffffffffffffffff160217905550611dcc806100636000396000f30060606040526004361061008e576000357c0100000000000000000000000000000000000000000000000000000000900463ffffffff16806312bb0604146100935780631e786cc1146100e457806341c0e1b51461013e578063b62f066714610153578063bbf2e9ac146101ad578063d450fbc91461023b578063d98c9983146102e2578063da130c351461032d575b600080fd5b341561009e57600080fd5b6100ca600480803573ffffffffffffffffffffffffffffffffffffffff169060200190919050506103bd565b604051808215151515815260200191505060405180910390f35b34156100ef57600080fd5b610124600480803590602001909190803573ffffffffffffffffffffffffffffffffffffffff16906020019091905050610684565b604051808215151515815260200191505060405180910390f35b341561014957600080fd5b610151610b2b565b005b341561015e57600080fd5b610193600480803590602001909190803573ffffffffffffffffffffffffffffffffffffffff16906020019091905050610bc0565b604051808215151515815260200191505060405180910390f35b34156101b857600080fd5b61021a600480803590602001908201803590602001908080601f01602080910402602001604051908101604052809392919081815260200183838082843782019150505050505091908035906020019091908035906020019091905050611033565b60405180831515151581526020018281526020019250505060405180910390f35b341561024657600080fd5b61025c6004808035906020019091905050611295565b604051808315151515815260200180602001828103825283818151815260200191508051906020019080838360005b838110156102a657808201518184015260208101905061028b565b50505050905090810190601f1680156102d35780820380516001836020036101000a031916815260200191505b50935050505060405180910390f35b34156102ed57600080fd5b61030c6004808035906020019091908035906020019091905050611557565b60405180831515151581526020018281526020019250505060405180910390f35b341561033857600080fd5b6103a3600480803590602001909190803590602001908201803590602001908080601f0160208091040260200160405190810160405280939291908181526020018383808284378201915050505050509190803590602001909190803590602001909190505061156d565b604051808215151515815260200191505060405180910390f35b60008060009054906101000a900473ffffffffffffffffffffffffffffffffffffffff1673ffffffffffffffffffffffffffffffffffffffff163373ffffffffffffffffffffffffffffffffffffffff1614151561041a57600080fd5b60008273ffffffffffffffffffffffffffffffffffffffff161415151561044057600080fd5b3073ffffffffffffffffffffffffffffffffffffffff168273ffffffffffffffffffffffffffffffffffffffff161415151561047b57600080fd5b81600560006101000a81548173ffffffffffffffffffffffffffffffffffffffff021916908373ffffffffffffffffffffffffffffffffffffffff160217905550600560009054906101000a900473ffffffffffffffffffffffffffffffffffffffff16600660006101000a81548173ffffffffffffffffffffffffffffffffffffffff021916908373ffffffffffffffffffffffffffffffffffffffff160217905550600660009054906101000a900473ffffffffffffffffffffffffffffffffffffffff1673ffffffffffffffffffffffffffffffffffffffff1663fda1213b60026000604051602001526040518263ffffffff167c0100000000000000000000000000000000000000000000000000000000028152600401808261ffff168152602001915050602060405180830381600087803b15156105bd57600080fd5b6102c65a03f115156105ce57600080fd5b50505060405180519050600760006101000a81548173ffffffffffffffffffffffffffffffffffffffff021916908373ffffffffffffffffffffffffffffffffffffffff160217905550600560009054906101000a900473ffffffffffffffffffffffffffffffffffffffff16600860006101000a81548173ffffffffffffffffffffffffffffffffffffffff021916908373ffffffffffffffffffffffffffffffffffffffff16021790555060019050919050565b600080600080610692611a8d565b60008761069d611aa1565b60026000838152602001908152602001600020610120604051908101604052908160008201548152602001600182018054600181600116156101000203166002900480601f0160208091040260200160405190810160405280929190818152602001828054600181600116156101000203166002900480156107605780601f1061073557610100808354040283529160200191610760565b820191906000526020600020905b81548152906001019060200180831161074357829003601f168201915b505050505081526020016002820160009054906101000a900473ffffffffffffffffffffffffffffffffffffffff1673ffffffffffffffffffffffffffffffffffffffff1673ffffffffffffffffffffffffffffffffffffffff1681526020016003820180548060200260200160405190810160405280929190818152602001828054801561084457602002820191906000526020600020905b8160009054906101000a900473ffffffffffffffffffffffffffffffffffffffff1673ffffffffffffffffffffffffffffffffffffffff16815260200190600101908083116107fa575b50505050508152602001600482018054806020026020016040519081016040528092919081815260200182805480156108d257602002820191906000526020600020905b8160009054906101000a900473ffffffffffffffffffffffffffffffffffffffff1673ffffffffffffffffffffffffffffffffffffffff1681526020019060010190808311610888575b5050505050815260200160058201548152602001600682015481526020016007820160009054906101000a900460ff161515151581526020016007820160019054906101000a900460ff1615151515815250509050806101000151151561093857600080fd5b3373ffffffffffffffffffffffffffffffffffffffff16816040015173ffffffffffffffffffffffffffffffffffffffff1614151561097657600080fd5b60009750600260008b815260200190815260200160002096508660070160019054906101000a900460ff1615610b1d57600095506000945086600301805480602002602001604051908101604052809291908181526020018280548015610a3257602002820191906000526020600020905b8160009054906101000a900473ffffffffffffffffffffffffffffffffffffffff1673ffffffffffffffffffffffffffffffffffffffff16815260200190600101908083116109e8575b50505050509350600092505b8351831015610aa7578873ffffffffffffffffffffffffffffffffffffffff168484815181101515610a6c57fe5b9060200190602002015173ffffffffffffffffffffffffffffffffffffffff161415610a9a57600195508294505b8280600101935050610a3e565b851515610b1c57866003018054806001018281610ac49190611b1a565b916000526020600020900160008b909190916101000a81548173ffffffffffffffffffffffffffffffffffffffff021916908373ffffffffffffffffffffffffffffffffffffffff1602179055505060019750610b1e565b5b5b5050505050505092915050565b3373ffffffffffffffffffffffffffffffffffffffff166000809054906101000a900473ffffffffffffffffffffffffffffffffffffffff1673ffffffffffffffffffffffffffffffffffffffff16141515610b8657600080fd5b6000809054906101000a900473ffffffffffffffffffffffffffffffffffffffff1673ffffffffffffffffffffffffffffffffffffffff16ff5b600080600080610bce611a8d565b600087610bd9611aa1565b60026000838152602001908152602001600020610120604051908101604052908160008201548152602001600182018054600181600116156101000203166002900480601f016020809104026020016040519081016040528092919081815260200182805460018160011615610100020316600290048015610c9c5780601f10610c7157610100808354040283529160200191610c9c565b820191906000526020600020905b815481529060010190602001808311610c7f57829003601f168201915b505050505081526020016002820160009054906101000a900473ffffffffffffffffffffffffffffffffffffffff1673ffffffffffffffffffffffffffffffffffffffff1673ffffffffffffffffffffffffffffffffffffffff16815260200160038201805480602002602001604051908101604052809291908181526020018280548015610d8057602002820191906000526020600020905b8160009054906101000a900473ffffffffffffffffffffffffffffffffffffffff1673ffffffffffffffffffffffffffffffffffffffff1681526020019060010190808311610d36575b5050505050815260200160048201805480602002602001604051908101604052809291908181526020018280548015610e0e57602002820191906000526020600020905b8160009054906101000a900473ffffffffffffffffffffffffffffffffffffffff1673ffffffffffffffffffffffffffffffffffffffff1681526020019060010190808311610dc4575b5050505050815260200160058201548152602001600682015481526020016007820160009054906101000a900460ff161515151581526020016007820160019054906101000a900460ff16151515158152505090508061010001511515610e7457600080fd5b3373ffffffffffffffffffffffffffffffffffffffff16816040015173ffffffffffffffffffffffffffffffffffffffff16141515610eb257600080fd5b60009750600260008b815260200190815260200160002096508660070160019054906101000a900460ff161561102557600095506000945086600301805480602002602001604051908101604052809291908181526020018280548015610f6e57602002820191906000526020600020905b8160009054906101000a900473ffffffffffffffffffffffffffffffffffffffff1673ffffffffffffffffffffffffffffffffffffffff1681526020019060010190808311610f24575b50505050509350600092505b8351831015610fe3578873ffffffffffffffffffffffffffffffffffffffff168484815181101515610fa857fe5b9060200190602002015173ffffffffffffffffffffffffffffffffffffffff161415610fd657600195508294505b8280600101935050610f7a565b8515611024578385815181101515610ff757fe5b906020019060200201600073ffffffffffffffffffffffffffffffffffffffff1681525060019750611026565b5b5b5050505050505092915050565b60008061103e611aa1565b60008060009450600093506001806000828254019250508190555060015483600001818152505033836040019073ffffffffffffffffffffffffffffffffffffffff16908173ffffffffffffffffffffffffffffffffffffffff16815250508783602001819052508260026000856000015181526020019081526020016000206000820151816000015560208201518160010190805190602001906110e4929190611b46565b5060408201518160020160006101000a81548173ffffffffffffffffffffffffffffffffffffffff021916908373ffffffffffffffffffffffffffffffffffffffff1602179055506060820151816003019080519060200190611148929190611bc6565b506080820151816004019080519060200190611165929190611bc6565b5060a0820151816005015560c0820151816006015560e08201518160070160006101000a81548160ff0219169083151502179055506101008201518160070160016101000a81548160ff0219169083151502179055509050506111cd8360000151888861190b565b80925081935050508115156111f1576001806000828254039250508190555061128a565b60018360e0019015159081151581525050600183610100019015159081151581525050600360003373ffffffffffffffffffffffffffffffffffffffff1673ffffffffffffffffffffffffffffffffffffffff16815260200190815260200160002080548060010182816112659190611c50565b9160005260206000209001600085600001519091909150555060019450826000015193505b505050935093915050565b600061129f611c7c565b6112a7611aa1565b6000925060026000858152602001908152602001600020610120604051908101604052908160008201548152602001600182018054600181600116156101000203166002900480601f01602080910402602001604051908101604052809291908181526020018280546001816001161561010002031660029004801561136e5780601f106113435761010080835404028352916020019161136e565b820191906000526020600020905b81548152906001019060200180831161135157829003601f168201915b505050505081526020016002820160009054906101000a900473ffffffffffffffffffffffffffffffffffffffff1673ffffffffffffffffffffffffffffffffffffffff1673ffffffffffffffffffffffffffffffffffffffff1681526020016003820180548060200260200160405190810160405280929190818152602001828054801561145257602002820191906000526020600020905b8160009054906101000a900473ffffffffffffffffffffffffffffffffffffffff1673ffffffffffffffffffffffffffffffffffffffff1681526020019060010190808311611408575b50505050508152602001600482018054806020026020016040519081016040528092919081815260200182805480156114e057602002820191906000526020600020905b8160009054906101000a900473ffffffffffffffffffffffffffffffffffffffff1673ffffffffffffffffffffffffffffffffffffffff1681526020019060010190808311611496575b5050505050815260200160058201548152602001600682015481526020016007820160009054906101000a900460ff161515151581526020016007820160019054906101000a900460ff161515151581525050905080610100015115611550576001925080602001519150611551565b5b50915091565b6000806000915060019150600090509250929050565b6000806000808761157c611aa1565b6000611586611a8d565b600060026000868152602001908152602001600020610120604051908101604052908160008201548152602001600182018054600181600116156101000203166002900480601f01602080910402602001604051908101604052809291908181526020018280546001816001161561010002031660029004801561164b5780601f106116205761010080835404028352916020019161164b565b820191906000526020600020905b81548152906001019060200180831161162e57829003601f168201915b505050505081526020016002820160009054906101000a900473ffffffffffffffffffffffffffffffffffffffff1673ffffffffffffffffffffffffffffffffffffffff1673ffffffffffffffffffffffffffffffffffffffff1681526020016003820180548060200260200160405190810160405280929190818152602001828054801561172f57602002820191906000526020600020905b8160009054906101000a900473ffffffffffffffffffffffffffffffffffffffff1673ffffffffffffffffffffffffffffffffffffffff16815260200190600101908083116116e5575b50505050508152602001600482018054806020026020016040519081016040528092919081815260200182805480156117bd57602002820191906000526020600020905b8160009054906101000a900473ffffffffffffffffffffffffffffffffffffffff1673ffffffffffffffffffffffffffffffffffffffff1681526020019060010190808311611773575b5050505050815260200160058201548152602001600682015481526020016007820160009054906101000a900460ff161515151581526020016007820160019054906101000a900460ff1615151515815250509350836101000151151561182357600080fd5b6000925083606001519150600090505b8151811015611899573373ffffffffffffffffffffffffffffffffffffffff16828281518110151561186157fe5b9060200190602002015173ffffffffffffffffffffffffffffffffffffffff16141561188c57600192505b8080600101915050611833565b8215156118a557600080fd5b60009850600260008e815260200190815260200160002097508b8860010190805190602001906118d6929190611c90565b506118e28d8c8c61190b565b80975081985050508615156118f6576118fb565b600198505b5050505050505050949350505050565b600080600080600080600095506119228888611557565b8096508195505050831515611936576119f5565b600260008a815260200190815260200160002092508260070160019054906101000a900460ff16156119a05761197483600501548460060154611557565b8092508193505050811561199f578481141561198f576119f5565b61199d818460000154611a01565b505b5b6004600086815260200190815260200160002080548060010182816119c59190611c50565b91600052602060002090016000856000015490919091505550878360050181905550868360060181905550600195505b50505050935093915050565b60008060008060009350600460008781526020019081526020016000209250600090505b8280549050811015611a6357848382815481101515611a4057fe5b9060005260206000209001541415611a56578091505b8080600101915050611a25565b8282815481101515611a7157fe5b9060005260206000209001600090556001935050505092915050565b602060405190810160405280600081525090565b6101206040519081016040528060008152602001611abd611d10565b8152602001600073ffffffffffffffffffffffffffffffffffffffff168152602001611ae7611d24565b8152602001611af4611d24565b815260200160008152602001600081526020016000151581526020016000151581525090565b815481835581811511611b4157818360005260206000209182019101611b409190611d38565b5b505050565b828054600181600116156101000203166002900490600052602060002090601f016020900481019282601f10611b8757805160ff1916838001178555611bb5565b82800160010185558215611bb5579182015b82811115611bb4578251825591602001919060010190611b99565b5b509050611bc29190611d38565b5090565b828054828255906000526020600020908101928215611c3f579160200282015b82811115611c3e5782518260006101000a81548173ffffffffffffffffffffffffffffffffffffffff021916908373ffffffffffffffffffffffffffffffffffffffff16021790555091602001919060010190611be6565b5b509050611c4c9190611d5d565b5090565b815481835581811511611c7757818360005260206000209182019101611c769190611d38565b5b505050565b602060405190810160405280600081525090565b828054600181600116156101000203166002900490600052602060002090601f016020900481019282601f10611cd157805160ff1916838001178555611cff565b82800160010185558215611cff579182015b82811115611cfe578251825591602001919060010190611ce3565b5b509050611d0c9190611d38565b5090565b602060405190810160405280600081525090565b602060405190810160405280600081525090565b611d5a91905b80821115611d56576000816000905550600101611d3e565b5090565b90565b611d9d91905b80821115611d9957600081816101000a81549073ffffffffffffffffffffffffffffffffffffffff021916905550600101611d63565b5090565b905600a165627a7a72305820a8130769270c03c662a3e2b397bd503d37893734b93b04abe95302db9f31eccd0029",
  "source": "pragma solidity ^0.4.19;\n\ncontract OkeyDokey {\n    /** Get addresses of other contracts. */\n    function getAddress(uint16) public view returns (address);\n}\n\ncontract Devices {\n    // function getAddress(uint16) public view returns (address);\n}\n\ncontract Houses {\n\n    /** Admin of this contract. */\n    address private admin;\n\n    /** Running count of house ids. Smallest valid house index is 1. */\n    uint256 houseId = 0;\n\n    /** Map of house ids to each corresponding house. */\n    mapping(uint256 => House) private houses;\n\n    /** Map of addresses to ids of houses it owns. */\n    mapping(address => uint256[]) private housesOf;\n\n    /** Map of a grid's id to houses located in that particular grid. */\n    mapping(uint256 => uint256[]) private housesInGrid;\n\n    /** Address of OkeyDokey contract. */\n    address private okeyDokeyAddress;\n\n    /** Instance of OkeyDokey contract. */\n    OkeyDokey private okeyDokey;\n\n    /** Address of Devices contract. */\n    address private devicesAddress;\n\n    /** Instance of Devices contract. */\n    Devices private devices;\n\n    /** Structure of a house. */\n    struct House {\n\n        /* House info */\n        uint256 id;\n        bytes ipfsHash;\n\n        /* Owner info */\n        address host;\n        address[] administrators;\n\n        /* Smart devices */\n        address[] devices;\n\n        /* Location */\n        uint256 latitude;\n        uint256 longitude;\n\n        /* Logistics */\n        bool active;\n        bool valid;\n    }\n\n    /**\n     * Modifier for functions only smart contract owner can run.\n     */\n    modifier system() {\n        /* Verify admin. */\n        require(admin == msg.sender);\n\n        _;\n    }\n\n    /**\n     * Modifier for functions only house host(owner) can run.\n     *\n     * @param id The id of house being manipulated.\n     */\n    modifier onlyHost(uint256 id) {\n        House memory house = houses[id]; \n\n        require(house.valid);  \n\n        /* Verify owner. */\n        require(house.host == msg.sender);\n\n        _;\n    }\n\n    /**\n     * Modifier for functions only designated admins can run.\n     *\n     * @param id The id of house being manipulated.\n     */\n    modifier onlyAdmins(uint256 id) {\n        House memory house = houses[id]; \n\n        require(house.valid);  \n\n        /* Search for admin address. */\n        bool found = false;\n        address[] memory admins = house.administrators;\n        for (uint256 i=0; i < admins.length; i++) {\n            if (admins[i] == msg.sender) {\n                found = true;\n            }\n        }\n\n        require(found);\n\n        _;\n    }\n\n    /**\n     * Constrctor function.\n     *\n     * Assign owner.\n     *\n     */\n    function Houses() public {\n        admin = msg.sender;\n    }\n\n    /**\n     * Reinitialize values dependant on other functions.\n     *\n     * @param _okeyDokeyAddress The address of main application contract.\n     * @return success Whether the reinitialization was successful.\n     */\n    function initializeContracts(address _okeyDokeyAddress) public returns (bool success) {\n        require(msg.sender == admin);\n        require(_okeyDokeyAddress != 0);\n        require(_okeyDokeyAddress != address(this));\n\n        okeyDokeyAddress = _okeyDokeyAddress;\n        okeyDokey = OkeyDokey(okeyDokeyAddress);\n\n        devicesAddress = okeyDokey.getAddress(2);\n        devices = Devices(okeyDokeyAddress);\n\n        return true;\n    }\n\n    /**\n     * Register and list a new house.\n     *\n     * @param ipfsHash Ipfs identifier of JSON file containing house info.\n     * @param latitude The lattitude of the house, multiplied by 1 million.\n     * @param longitude The longitude of the house, multiplied by 1 million.\n     * @return success Whether the registration was successful.\n     * @return newId Id of the new house. Must be greater than 0 to be considered valid.\n     */\n    function registerHouse(bytes ipfsHash, uint256 latitude, uint256 longitude) \n        public returns (bool success, uint256 newId) {\n\n        success = false;\n        newId = 0;\n\n        /* Smallest houseId is 1 */\n        houseId += 1;\n\n        House memory house; \n\n        house.id = houseId;\n        house.host = msg.sender;\n\n        house.ipfsHash = ipfsHash;\n\n        houses[house.id] = house;\n\n        /* Record grid. */\n        bool succ2;\n        uint256 gridId;\n        (succ2, gridId) = updateCoordinates(house.id, latitude, longitude);\n        if (!succ2) {\n            /* This listing failed. Reset houseId. */\n            houseId -= 1;\n            return;\n        }\n\n        /* Logistics */\n        house.active = true;\n        house.valid = true;\n\n        /* Add newly created house to storage. */\n        housesOf[msg.sender].push(house.id);\n\n        success = true;\n        newId = house.id;\n    } \n\n    /**\n     * Edit a listed house.\n     *\n     * @param id The id of the house to edit.\n     * @param ipfsHash Ipfs identifier of JSON file containing house info.\n     * @param latitude The lattitude of the house, multiplied by 1 million.\n     * @param longitude The longitude of the house, multiplied by 1 million.\n     * @return success Whether the edit was successful.\n     */\n    function editHouse(uint256 id, bytes ipfsHash, \n        uint256 latitude, uint256 longitude) onlyAdmins(id) public returns (bool success) {\n\n        success = false;\n\n        House storage house = houses[id]; \n\n        house.ipfsHash = ipfsHash;\n\n        /* Coordinates */\n        bool succ;\n        uint256 gridId;\n        (succ, gridId) = updateCoordinates(id, latitude, longitude);\n        if (!succ) {\n            return;\n        }\n        \n        success = true;\n    } \n\n    /**\n     * Update coordinates for a house listing. \n     *\n     * @param id The id of the house to edit.\n     * @param latitude The lattitude of the house, multiplied by 1 million.\n     * @param longitude The longitude of the house, multiplied by 1 million.\n     * @return success Whether the update was successful.\n     * @return gridId Id within the Earth's grid.\n     */\n    function updateCoordinates(uint256 id, uint256 latitude, uint256 longitude) \n        internal returns (bool success, uint256 gridId) {\n\n        success = false;\n\n        /* Check new coordinates. */\n        bool succ;\n        (succ, gridId) = getGridId(latitude, longitude);\n        if (!succ) {\n            return;\n        }\n\n        /* Fetch previous coordinates. */\n        House storage house = houses[id];  \n\n        if (house.valid) { /* This is not a new entry. */\n\n            bool prevSucc;\n            uint256 prevGridId;\n            (prevSucc, prevGridId) = getGridId(house.latitude, house.longitude);\n\n            /* This there was a previous entry. */\n            if (prevSucc) {\n                if (prevGridId == gridId) {\n                    return;\n                } else {\n                    /* Erase from previous grid group */\n                    removeFromGrid(prevGridId, house.id);\n                }\n            }\n        }\n\n        /* Add house to new grid group. */\n        housesInGrid[gridId].push(house.id);\n\n        /* Update location. */\n        house.latitude = latitude;\n        house.longitude = longitude;\n\n        success = true;\n     }\n\n     /**\n     * Remove houseId from grid.\n     *\n     * Helper function for editHouse3. \n     *\n     * @param prevGridId The id of the grid to erase from.\n     * @param id The id of the house to erase.\n     * @return success Whether the deletion was successful.\n     */\n    function removeFromGrid(uint256 prevGridId, uint256 id) internal returns (bool success) {\n        success = false;\n        uint256[] storage ids = housesInGrid[prevGridId];\n        uint256 toErase;\n        for (uint256 i=0; i < ids.length; i++) {\n            if (ids[i] == id) {\n                toErase = i;\n            }\n        } \n        delete ids[toErase];\n        success = true;\n    }\n\n    /**\n     * Add administrator to house.\n     *\n     * @param id Id of house to edit.\n     * @param newAdmin The address of new admin.\n     * @return success Whether the operation was successful.\n     */\n    function addAdministrator(uint256 id, address newAdmin) \n        onlyHost(id) public returns (bool success) {\n\n        success = false;\n\n        House storage house = houses[id];\n\n        if (house.valid) {\n            bool found = false;\n            uint256 index = 0;\n            address[] memory admins = house.administrators;\n\n            /* Search for previous entry */\n            for (uint256 i=0; i < admins.length; i++) {\n                if (admins[i] == newAdmin) {\n                    found = true;\n                    index = i;\n                }\n            }\n\n            if (!found) {\n                house.administrators.push(newAdmin);\n                success = true;\n                return;\n            }\n        }\n\n    }\n\n    /**\n     * Remove administrator from house.\n     *\n     * @param id Id of house to query.\n     * @param toDelete The address of admin to delete.\n     * @return success Whether the operation was successful.\n     */\n    function removeAdministrator(uint256 id, address toDelete) \n        onlyHost(id) public returns (bool success) {\n\n        success = false;\n\n        House storage house = houses[id];\n\n        if (house.valid) {\n\n            bool found = false;\n            uint256 index = 0;\n            address[] memory admins = house.administrators;\n\n            /* Search for previous entry */\n            for (uint256 i=0; i < admins.length; i++) {\n                if (admins[i] == toDelete) {\n                    found = true;\n                    index = i;\n                }\n            }\n\n            if (found) {\n                delete admins[index];\n                success = true;\n                return;\n            }\n        }\n    }\n\n    /**\n     * Getter for ipfs hash of house.\n     *\n     * @param id Id of house to query.\n     * @return success Whether the query was successful.\n     * @return ipfsHash Ipfs identifier of JSON file containing house info.\n     */\n    function getIpfsHash(uint256 id) public view returns (bool success, bytes ipfsHash) {\n        success = false;\n\n        House memory house = houses[id];\n        if (house.valid) {\n            success = true;\n            ipfsHash = house.ipfsHash;\n            return;\n        }\n    }\n\n    /**\n     * Calculate grid id from coordinates.\n     *\n     * @param latitude The lattitude of the house, multiplied by 1 million.\n     * @param longitude The longitude of the house, multiplied by 1 million.\n     * @return success Whether the coordinates were valid.\n     * @return gridId Id within the Earth's grid.\n     */\n    function getGridId(uint256 latitude, uint256 longitude) public pure returns (bool success, uint256 gridId) {\n        success = false;\n\n        success = true;\n        gridId = 0;\n    }\n\n    /**\n     * Self destruct.\n     */\n    function kill() system public { \n        selfdestruct(admin); \n    }\n\n}",
  "sourcePath": "/home/seongmin/okeydokey/contracts/houses.sol",
  "compiler": {
    "name": "solc",
    "version": "0.4.19+commit.c4cbbb05.Emscripten.clang"
  },
  "schemaVersion": "1.0.1",
  "updatedAt": "2018-02-13T05:30:54.840Z"
}