{
  "contractName": "Houses",
  "abi": [
    {
      "constant": false,
      "inputs": [
        {
          "name": "_okeyDokeyAddress",
          "type": "address"
        }
      ],
      "name": "initializeContracts",
      "outputs": [
        {
          "name": "success",
          "type": "bool"
        }
      ],
      "payable": false,
      "stateMutability": "nonpayable",
      "type": "function"
    },
    {
      "constant": true,
      "inputs": [
        {
          "name": "id",
          "type": "uint256"
        }
      ],
      "name": "getHouseInfo3",
      "outputs": [
        {
          "name": "success",
          "type": "bool"
        },
        {
          "name": "hourlyRate",
          "type": "uint256"
        },
        {
          "name": "dailyRate",
          "type": "uint256"
        },
        {
          "name": "utilityFee",
          "type": "uint256"
        },
        {
          "name": "cleaningFee",
          "type": "uint256"
        },
        {
          "name": "latitude",
          "type": "uint256"
        },
        {
          "name": "longitude",
          "type": "uint256"
        }
      ],
      "payable": false,
      "stateMutability": "view",
      "type": "function"
    },
    {
      "constant": false,
      "inputs": [
        {
          "name": "id",
          "type": "uint256"
        },
        {
          "name": "newAdmin",
          "type": "address"
        }
      ],
      "name": "addAdministrator",
      "outputs": [
        {
          "name": "success",
          "type": "bool"
        }
      ],
      "payable": false,
      "stateMutability": "nonpayable",
      "type": "function"
    },
    {
      "constant": false,
      "inputs": [
        {
          "name": "id",
          "type": "uint256"
        },
        {
          "name": "hourlyRate",
          "type": "uint256"
        },
        {
          "name": "dailyRate",
          "type": "uint256"
        },
        {
          "name": "utilityFee",
          "type": "uint256"
        },
        {
          "name": "cleaningFee",
          "type": "uint256"
        },
        {
          "name": "latitude",
          "type": "uint256"
        },
        {
          "name": "longitude",
          "type": "uint256"
        }
      ],
      "name": "registerHouse3",
      "outputs": [
        {
          "name": "success",
          "type": "bool"
        },
        {
          "name": "newId",
          "type": "uint256"
        }
      ],
      "payable": false,
      "stateMutability": "nonpayable",
      "type": "function"
    },
    {
      "constant": false,
      "inputs": [
        {
          "name": "id",
          "type": "uint256"
        },
        {
          "name": "housePolicy",
          "type": "string"
        },
        {
          "name": "cancellationPolicy",
          "type": "string"
        },
        {
          "name": "houseType",
          "type": "uint8"
        },
        {
          "name": "numGuest",
          "type": "uint256"
        },
        {
          "name": "numBedroom",
          "type": "uint256"
        },
        {
          "name": "numBed",
          "type": "uint256"
        },
        {
          "name": "numBathroom",
          "type": "uint256"
        }
      ],
      "name": "registerHouse2",
      "outputs": [
        {
          "name": "success",
          "type": "bool"
        },
        {
          "name": "newId",
          "type": "uint256"
        }
      ],
      "payable": false,
      "stateMutability": "nonpayable",
      "type": "function"
    },
    {
      "constant": false,
      "inputs": [
        {
          "name": "id",
          "type": "uint256"
        },
        {
          "name": "hourlyRate",
          "type": "uint256"
        },
        {
          "name": "dailyRate",
          "type": "uint256"
        },
        {
          "name": "utilityFee",
          "type": "uint256"
        },
        {
          "name": "cleaningFee",
          "type": "uint256"
        },
        {
          "name": "latitude",
          "type": "uint256"
        },
        {
          "name": "longitude",
          "type": "uint256"
        }
      ],
      "name": "editHouse3",
      "outputs": [
        {
          "name": "success",
          "type": "bool"
        }
      ],
      "payable": false,
      "stateMutability": "nonpayable",
      "type": "function"
    },
    {
      "constant": false,
      "inputs": [],
      "name": "kill",
      "outputs": [],
      "payable": false,
      "stateMutability": "nonpayable",
      "type": "function"
    },
    {
      "constant": false,
      "inputs": [
        {
          "name": "id",
          "type": "uint256"
        },
        {
          "name": "housePolicy",
          "type": "string"
        },
        {
          "name": "cancellationPolicy",
          "type": "string"
        },
        {
          "name": "houseType",
          "type": "uint8"
        },
        {
          "name": "numGuest",
          "type": "uint256"
        },
        {
          "name": "numBedroom",
          "type": "uint256"
        },
        {
          "name": "numBed",
          "type": "uint256"
        },
        {
          "name": "numBathroom",
          "type": "uint256"
        }
      ],
      "name": "editHouse2",
      "outputs": [
        {
          "name": "success",
          "type": "bool"
        }
      ],
      "payable": false,
      "stateMutability": "nonpayable",
      "type": "function"
    },
    {
      "constant": true,
      "inputs": [
        {
          "name": "id",
          "type": "uint256"
        }
      ],
      "name": "getHouseInfo1",
      "outputs": [
        {
          "name": "success",
          "type": "bool"
        },
        {
          "name": "houseName",
          "type": "string"
        },
        {
          "name": "hostName",
          "type": "string"
        },
        {
          "name": "addrFull",
          "type": "string"
        },
        {
          "name": "addrSummary",
          "type": "string"
        },
        {
          "name": "addrDirection",
          "type": "string"
        },
        {
          "name": "description",
          "type": "string"
        }
      ],
      "payable": false,
      "stateMutability": "view",
      "type": "function"
    },
    {
      "constant": false,
      "inputs": [
        {
          "name": "id",
          "type": "uint256"
        },
        {
          "name": "houseName",
          "type": "string"
        }
      ],
      "name": "setHouseName",
      "outputs": [
        {
          "name": "success",
          "type": "bool"
        }
      ],
      "payable": false,
      "stateMutability": "nonpayable",
      "type": "function"
    },
    {
      "constant": false,
      "inputs": [
        {
          "name": "houseName",
          "type": "string"
        },
        {
          "name": "hostName",
          "type": "string"
        },
        {
          "name": "addrFull",
          "type": "string"
        },
        {
          "name": "addrSummary",
          "type": "string"
        },
        {
          "name": "addrDirection",
          "type": "string"
        },
        {
          "name": "description",
          "type": "string"
        }
      ],
      "name": "registerHouse1",
      "outputs": [
        {
          "name": "success",
          "type": "bool"
        },
        {
          "name": "newId",
          "type": "uint256"
        }
      ],
      "payable": false,
      "stateMutability": "nonpayable",
      "type": "function"
    },
    {
      "constant": true,
      "inputs": [
        {
          "name": "id",
          "type": "uint256"
        }
      ],
      "name": "getHouseName",
      "outputs": [
        {
          "name": "success",
          "type": "bool"
        },
        {
          "name": "houseName",
          "type": "string"
        }
      ],
      "payable": false,
      "stateMutability": "view",
      "type": "function"
    },
    {
      "constant": true,
      "inputs": [
        {
          "name": "id",
          "type": "uint256"
        }
      ],
      "name": "getHostName",
      "outputs": [
        {
          "name": "success",
          "type": "bool"
        },
        {
          "name": "hostName",
          "type": "string"
        }
      ],
      "payable": false,
      "stateMutability": "view",
      "type": "function"
    },
    {
      "constant": true,
      "inputs": [
        {
          "name": "id",
          "type": "uint256"
        }
      ],
      "name": "getHouseInfo2",
      "outputs": [
        {
          "name": "success",
          "type": "bool"
        },
        {
          "name": "housePolicy",
          "type": "string"
        },
        {
          "name": "cancellationPolicy",
          "type": "string"
        },
        {
          "name": "houseType",
          "type": "uint8"
        },
        {
          "name": "numGuest",
          "type": "uint256"
        },
        {
          "name": "numBedroom",
          "type": "uint256"
        },
        {
          "name": "numBed",
          "type": "uint256"
        },
        {
          "name": "numBathroom",
          "type": "uint256"
        }
      ],
      "payable": false,
      "stateMutability": "view",
      "type": "function"
    },
    {
      "constant": false,
      "inputs": [
        {
          "name": "id",
          "type": "uint256"
        },
        {
          "name": "toDelete",
          "type": "address"
        }
      ],
      "name": "removeAdministrator",
      "outputs": [
        {
          "name": "success",
          "type": "bool"
        }
      ],
      "payable": false,
      "stateMutability": "nonpayable",
      "type": "function"
    },
    {
      "constant": false,
      "inputs": [
        {
          "name": "id",
          "type": "uint256"
        },
        {
          "name": "hostName",
          "type": "string"
        }
      ],
      "name": "setHostName",
      "outputs": [
        {
          "name": "success",
          "type": "bool"
        }
      ],
      "payable": false,
      "stateMutability": "nonpayable",
      "type": "function"
    },
    {
      "constant": false,
      "inputs": [
        {
          "name": "id",
          "type": "uint256"
        },
        {
          "name": "houseName",
          "type": "string"
        },
        {
          "name": "hostName",
          "type": "string"
        },
        {
          "name": "addrFull",
          "type": "string"
        },
        {
          "name": "addrSummary",
          "type": "string"
        },
        {
          "name": "addrDirection",
          "type": "string"
        },
        {
          "name": "description",
          "type": "string"
        }
      ],
      "name": "editHouse1",
      "outputs": [
        {
          "name": "success",
          "type": "bool"
        }
      ],
      "payable": false,
      "stateMutability": "nonpayable",
      "type": "function"
    },
    {
      "constant": false,
      "inputs": [
        {
          "name": "latitude",
          "type": "uint256"
        },
        {
          "name": "longitude",
          "type": "uint256"
        }
      ],
      "name": "getGridId",
      "outputs": [
        {
          "name": "success",
          "type": "bool"
        },
        {
          "name": "gridId",
          "type": "uint256"
        }
      ],
      "payable": false,
      "stateMutability": "nonpayable",
      "type": "function"
    },
    {
      "inputs": [],
      "payable": false,
      "stateMutability": "nonpayable",
      "type": "constructor"
    }
  ],
  "bytecode": "0x60606040526000600155341561001457600080fd5b336000806101000a81548173ffffffffffffffffffffffffffffffffffffffff021916908373ffffffffffffffffffffffffffffffffffffffff16021790555061756a80620000646000396000f3006060604052600436106100fc576000357c0100000000000000000000000000000000000000000000000000000000900463ffffffff16806312bb06041461010157806312f35666146101525780631e786cc1146101b757806324549f51146102115780632da564ff1461028957806333633c951461038157806341c0e1b5146103f25780634469eb68146104075780636f25f07a146104f8578063734a884e146107bb5780637ca8308214610839578063853982b914610a045780638d86bc6614610aab578063a63cb6f714610b52578063b62f066714610c8e578063bc5fd72e14610ce8578063c82a78d914610d66578063d98c998314610f33575b600080fd5b341561010c57600080fd5b610138600480803573ffffffffffffffffffffffffffffffffffffffff16906020019091905050610f7e565b604051808215151515815260200191505060405180910390f35b341561015d57600080fd5b61017360048080359060200190919050506110e9565b604051808815151515815260200187815260200186815260200185815260200184815260200183815260200182815260200197505050505050505060405180910390f35b34156101c257600080fd5b6101f7600480803590602001909190803573ffffffffffffffffffffffffffffffffffffffff16906020019091905050611a1f565b604051808215151515815260200191505060405180910390f35b341561021c57600080fd5b6102686004808035906020019091908035906020019091908035906020019091908035906020019091908035906020019091908035906020019091908035906020019091905050611c77565b60405180831515151581526020018281526020019250505060405180910390f35b341561029457600080fd5b610360600480803590602001909190803590602001908201803590602001908080601f0160208091040260200160405190810160405280939291908181526020018383808284378201915050505050509190803590602001908201803590602001908080601f0160208091040260200160405190810160405280939291908181526020018383808284378201915050505050509190803560ff16906020019091908035906020019091908035906020019091908035906020019091908035906020019091905050611f8c565b60405180831515151581526020018281526020019250505060405180910390f35b341561038c57600080fd5b6103d860048080359060200190919080359060200190919080359060200190919080359060200190919080359060200190919080359060200190919080359060200190919050506120d2565b604051808215151515815260200191505060405180910390f35b34156103fd57600080fd5b61040561226c565b005b341561041257600080fd5b6104de600480803590602001909190803590602001908201803590602001908080601f0160208091040260200160405190810160405280939291908181526020018383808284378201915050505050509190803590602001908201803590602001908080601f0160208091040260200160405190810160405280939291908181526020018383808284378201915050505050509190803560ff16906020019091908035906020019091908035906020019091908035906020019091908035906020019091905050612358565b604051808215151515815260200191505060405180910390f35b341561050357600080fd5b61051960048080359060200190919050506124da565b604051808815151515815260200180602001806020018060200180602001806020018060200187810387528d818151815260200191508051906020019080838360005b8381101561057757808201518184015260208101905061055c565b50505050905090810190601f1680156105a45780820380516001836020036101000a031916815260200191505b5087810386528c818151815260200191508051906020019080838360005b838110156105dd5780820151818401526020810190506105c2565b50505050905090810190601f16801561060a5780820380516001836020036101000a031916815260200191505b5087810385528b818151815260200191508051906020019080838360005b83811015610643578082015181840152602081019050610628565b50505050905090810190601f1680156106705780820380516001836020036101000a031916815260200191505b5087810384528a818151815260200191508051906020019080838360005b838110156106a957808201518184015260208101905061068e565b50505050905090810190601f1680156106d65780820380516001836020036101000a031916815260200191505b50878103835289818151815260200191508051906020019080838360005b8381101561070f5780820151818401526020810190506106f4565b50505050905090810190601f16801561073c5780820380516001836020036101000a031916815260200191505b50878103825288818151815260200191508051906020019080838360005b8381101561077557808201518184015260208101905061075a565b50505050905090810190601f1680156107a25780820380516001836020036101000a031916815260200191505b509d505050505050505050505050505060405180910390f35b34156107c657600080fd5b61081f600480803590602001909190803590602001908201803590602001908080601f01602080910402602001604051908101604052809392919081815260200183838082843782019150505050505091905050612e33565b604051808215151515815260200191505060405180910390f35b341561084457600080fd5b6109e3600480803590602001908201803590602001908080601f0160208091040260200160405190810160405280939291908181526020018383808284378201915050505050509190803590602001908201803590602001908080601f0160208091040260200160405190810160405280939291908181526020018383808284378201915050505050509190803590602001908201803590602001908080601f0160208091040260200160405190810160405280939291908181526020018383808284378201915050505050509190803590602001908201803590602001908080601f0160208091040260200160405190810160405280939291908181526020018383808284378201915050505050509190803590602001908201803590602001908080601f0160208091040260200160405190810160405280939291908181526020018383808284378201915050505050509190803590602001908201803590602001908080601f01602080910402602001604051908101604052809392919081815260200183838082843782019150505050505091905050613733565b60405180831515151581526020018281526020019250505060405180910390f35b3415610a0f57600080fd5b610a256004808035906020019091905050613b17565b604051808315151515815260200180602001828103825283818151815260200191508051906020019080838360005b83811015610a6f578082015181840152602081019050610a54565b50505050905090810190601f168015610a9c5780820380516001836020036101000a031916815260200191505b50935050505060405180910390f35b3415610ab657600080fd5b610acc600480803590602001909190505061441c565b604051808315151515815260200180602001828103825283818151815260200191508051906020019080838360005b83811015610b16578082015181840152602081019050610afb565b50505050905090810190601f168015610b435780820380516001836020036101000a031916815260200191505b50935050505060405180910390f35b3415610b5d57600080fd5b610b736004808035906020019091905050614d21565b604051808915151515815260200180602001806020018860ff1660ff16815260200187815260200186815260200185815260200184815260200183810383528a818151815260200191508051906020019080838360005b83811015610be5578082015181840152602081019050610bca565b50505050905090810190601f168015610c125780820380516001836020036101000a031916815260200191505b50838103825289818151815260200191508051906020019080838360005b83811015610c4b578082015181840152602081019050610c30565b50505050905090810190601f168015610c785780820380516001836020036101000a031916815260200191505b509a505050505050505050505060405180910390f35b3415610c9957600080fd5b610cce600480803590602001909190803573ffffffffffffffffffffffffffffffffffffffff1690602001909190505061566e565b604051808215151515815260200191505060405180910390f35b3415610cf357600080fd5b610d4c600480803590602001909190803590602001908201803590602001908080601f01602080910402602001604051908101604052809392919081815260200183838082843782019150505050505091905050615892565b604051808215151515815260200191505060405180910390f35b3415610d7157600080fd5b610f19600480803590602001909190803590602001908201803590602001908080601f0160208091040260200160405190810160405280939291908181526020018383808284378201915050505050509190803590602001908201803590602001908080601f0160208091040260200160405190810160405280939291908181526020018383808284378201915050505050509190803590602001908201803590602001908080601f0160208091040260200160405190810160405280939291908181526020018383808284378201915050505050509190803590602001908201803590602001908080601f0160208091040260200160405190810160405280939291908181526020018383808284378201915050505050509190803590602001908201803590602001908080601f0160208091040260200160405190810160405280939291908181526020018383808284378201915050505050509190803590602001908201803590602001908080601f01602080910402602001604051908101604052809392919081815260200183838082843782019150505050505091905050616192565b604051808215151515815260200191505060405180910390f35b3415610f3e57600080fd5b610f5d60048080359060200190919080359060200190919050506163bd565b60405180831515151581526020018281526020019250505060405180910390f35b60008060009054906101000a900473ffffffffffffffffffffffffffffffffffffffff1673ffffffffffffffffffffffffffffffffffffffff163373ffffffffffffffffffffffffffffffffffffffff16141515610fdb57600080fd5b60008273ffffffffffffffffffffffffffffffffffffffff161415151561100157600080fd5b3073ffffffffffffffffffffffffffffffffffffffff168273ffffffffffffffffffffffffffffffffffffffff161415151561103c57600080fd5b81600560006101000a81548173ffffffffffffffffffffffffffffffffffffffff021916908373ffffffffffffffffffffffffffffffffffffffff160217905550600560009054906101000a900473ffffffffffffffffffffffffffffffffffffffff16600660006101000a81548173ffffffffffffffffffffffffffffffffffffffff021916908373ffffffffffffffffffffffffffffffffffffffff16021790555060019050919050565b60008060008060008060006110fc616f37565b60009750600260008a81526020019081526020016000206103606040519081016040529081600082015481526020016001820160009054906101000a900473ffffffffffffffffffffffffffffffffffffffff1673ffffffffffffffffffffffffffffffffffffffff1673ffffffffffffffffffffffffffffffffffffffff168152602001600282018054600181600116156101000203166002900480601f0160208091040260200160405190810160405280929190818152602001828054600181600116156101000203166002900480156112195780601f106111ee57610100808354040283529160200191611219565b820191906000526020600020905b8154815290600101906020018083116111fc57829003601f168201915b50505050508152602001600382018054806020026020016040519081016040528092919081815260200182805480156112a757602002820191906000526020600020905b8160009054906101000a900473ffffffffffffffffffffffffffffffffffffffff1673ffffffffffffffffffffffffffffffffffffffff168152602001906001019080831161125d575b505050505081526020016004820180548060200260200160405190810160405280929190818152602001828054801561133557602002820191906000526020600020905b8160009054906101000a900473ffffffffffffffffffffffffffffffffffffffff1673ffffffffffffffffffffffffffffffffffffffff16815260200190600101908083116112eb575b50505050508152602001600582018054600181600116156101000203166002900480601f0160208091040260200160405190810160405280929190818152602001828054600181600116156101000203166002900480156113d75780601f106113ac576101008083540402835291602001916113d7565b820191906000526020600020905b8154815290600101906020018083116113ba57829003601f168201915b50505050508152602001600682018054600181600116156101000203166002900480601f0160208091040260200160405190810160405280929190818152602001828054600181600116156101000203166002900480156114795780601f1061144e57610100808354040283529160200191611479565b820191906000526020600020905b81548152906001019060200180831161145c57829003601f168201915b50505050508152602001600782018054600181600116156101000203166002900480601f01602080910402602001604051908101604052809291908181526020018280546001816001161561010002031660029004801561151b5780601f106114f05761010080835404028352916020019161151b565b820191906000526020600020905b8154815290600101906020018083116114fe57829003601f168201915b50505050508152602001600882018054600181600116156101000203166002900480601f0160208091040260200160405190810160405280929190818152602001828054600181600116156101000203166002900480156115bd5780601f10611592576101008083540402835291602001916115bd565b820191906000526020600020905b8154815290600101906020018083116115a057829003601f168201915b50505050508152602001600982018054600181600116156101000203166002900480601f01602080910402602001604051908101604052809291908181526020018280546001816001161561010002031660029004801561165f5780601f106116345761010080835404028352916020019161165f565b820191906000526020600020905b81548152906001019060200180831161164257829003601f168201915b50505050508152602001600a82018054600181600116156101000203166002900480601f0160208091040260200160405190810160405280929190818152602001828054600181600116156101000203166002900480156117015780601f106116d657610100808354040283529160200191611701565b820191906000526020600020905b8154815290600101906020018083116116e457829003601f168201915b50505050508152602001600b82018054600181600116156101000203166002900480601f0160208091040260200160405190810160405280929190818152602001828054600181600116156101000203166002900480156117a35780601f10611778576101008083540402835291602001916117a3565b820191906000526020600020905b81548152906001019060200180831161178657829003601f168201915b50505050508152602001600c820160009054906101000a900460ff1660ff1660ff168152602001600d8201548152602001600e8201548152602001600f8201548152602001601082015481526020016011820180548060200260200160405190810160405280929190818152602001828054801561186657602002820191906000526020600020906000905b82829054906101000a900460ff1660ff168152602001906001019060208260000104928301926001038202915080841161182f5790505b5050505050815260200160128201805480602002602001604051908101604052809291908181526020016000905b8282101561195157838290600052602060002090018054600181600116156101000203166002900480601f01602080910402602001604051908101604052809291908181526020018280546001816001161561010002031660029004801561193d5780601f106119125761010080835404028352916020019161193d565b820191906000526020600020905b81548152906001019060200180831161192057829003601f168201915b505050505081526020019060010190611894565b5050505081526020016013820154815260200160148201548152602001601582015481526020016016820154815260200160178201548152602001601882015481526020016019820160009054906101000a900460ff161515151581526020016019820160019054906101000a900460ff161515151581525050905080610340015115156119de57611a13565b80610260015196508061028001519550806102a001519450806102c001519350806102e0015192508061030001519150600197505b50919395979092949650565b600080600080611a2d617067565b60008760006002600083815260200190815260200160002090508060190160019054906101000a900460ff161515611a6457600080fd5b3373ffffffffffffffffffffffffffffffffffffffff168160010160009054906101000a900473ffffffffffffffffffffffffffffffffffffffff1673ffffffffffffffffffffffffffffffffffffffff16141515611ac257600080fd5b60009750600260008b815260200190815260200160002096508660190160019054906101000a900460ff1615611c6957600095506000945086600301805480602002602001604051908101604052809291908181526020018280548015611b7e57602002820191906000526020600020905b8160009054906101000a900473ffffffffffffffffffffffffffffffffffffffff1673ffffffffffffffffffffffffffffffffffffffff1681526020019060010190808311611b34575b50505050509350600092505b8351831015611bf3578873ffffffffffffffffffffffffffffffffffffffff168484815181101515611bb857fe5b9060200190602002015173ffffffffffffffffffffffffffffffffffffffff161415611be657600195508294505b8280600101935050611b8a565b851515611c6857866003018054806001018281611c10919061707b565b916000526020600020900160008b909190916101000a81548173ffffffffffffffffffffffffffffffffffffffff021916908373ffffffffffffffffffffffffffffffffffffffff1602179055505060019750611c6a565b5b5b5050505050505092915050565b6000806000806000809450611c8c87876163bd565b8093508194505050821515611e4157600260008d81526020019081526020016000206000808201600090556001820160006101000a81549073ffffffffffffffffffffffffffffffffffffffff0219169055600282016000611cee91906170a7565b600382016000611cfe91906170ef565b600482016000611d0e91906170ef565b600582016000611d1e91906170a7565b600682016000611d2e91906170a7565b600782016000611d3e91906170a7565b600882016000611d4e91906170a7565b600982016000611d5e91906170a7565b600a82016000611d6e91906170a7565b600b82016000611d7e91906170a7565b600c820160006101000a81549060ff0219169055600d820160009055600e820160009055600f8201600090556010820160009055601182016000611dc29190617110565b601282016000611dd29190617138565b6013820160009055601482016000905560158201600090556016820160009055601782016000905560188201600090556019820160006101000a81549060ff02191690556019820160016101000a81549060ff0219169055505060018060008282540392505081905550611f7d565b600260008d815260200190815260200160002090503373ffffffffffffffffffffffffffffffffffffffff168160010160009054906101000a900473ffffffffffffffffffffffffffffffffffffffff1673ffffffffffffffffffffffffffffffffffffffff16141515611eb457611f7d565b8a816013018190555089816014018190555088816015018190555087816016018190555086816017018190555085816018018190555060018160190160006101000a81548160ff02191690831515021790555060018160190160016101000a81548160ff021916908315150217905550611f32816000015433611a1f565b50600460008381526020019081526020016000208054806001018281611f589190617159565b9160005260206000209001600083600001549091909150555060019450806000015493505b50505097509795505050505050565b600080600080925060009150600260008c815260200190815260200160002090503373ffffffffffffffffffffffffffffffffffffffff168160010160009054906101000a900473ffffffffffffffffffffffffffffffffffffffff1673ffffffffffffffffffffffffffffffffffffffff1614151561200b576120c4565b8981600a019080519060200190612023929190617185565b508881600b01908051906020019061203c929190617185565b508781600c0160006101000a81548160ff021916908360ff1602179055508681600d01819055508581600e01819055508481600f018190555083816010018190555060008160190160006101000a81548160ff02191690831515021790555060008160190160016101000a81548160ff02191690831515021790555060019250806000015491505b509850989650505050505050565b6000806000896000806120e3617067565b60006002600086815260200190815260200160002093508360190160019054906101000a900460ff16151561211757600080fd5b600092508360030180548060200260200160405190810160405280929190818152602001828054801561219f57602002820191906000526020600020905b8160009054906101000a900473ffffffffffffffffffffffffffffffffffffffff1673ffffffffffffffffffffffffffffffffffffffff1681526020019060010190808311612155575b50505050509150600090505b8151811015612211573373ffffffffffffffffffffffffffffffffffffffff1682828151811015156121d957fe5b9060200190602002015173ffffffffffffffffffffffffffffffffffffffff16141561220457600192505b80806001019150506121ab565b82151561221d57600080fd5b6000975061222e8f8f8f8f8f6163d3565b965086151561223c5761225a565b6122478f8b8b61643b565b95508515156122555761225a565b600197505b50505050505050979650505050505050565b3373ffffffffffffffffffffffffffffffffffffffff166000809054906101000a900473ffffffffffffffffffffffffffffffffffffffff1673ffffffffffffffffffffffffffffffffffffffff161415156122c757600080fd5b6000809054906101000a900473ffffffffffffffffffffffffffffffffffffffff1673ffffffffffffffffffffffffffffffffffffffff163373ffffffffffffffffffffffffffffffffffffffff161415612356576000809054906101000a900473ffffffffffffffffffffffffffffffffffffffff1673ffffffffffffffffffffffffffffffffffffffff16ff5b565b60008089600080612367617067565b60006002600086815260200190815260200160002093508360190160019054906101000a900460ff16151561239b57600080fd5b600092508360030180548060200260200160405190810160405280929190818152602001828054801561242357602002820191906000526020600020905b8160009054906101000a900473ffffffffffffffffffffffffffffffffffffffff1673ffffffffffffffffffffffffffffffffffffffff16815260200190600101908083116123d9575b50505050509150600090505b8151811015612495573373ffffffffffffffffffffffffffffffffffffffff16828281518110151561245d57fe5b9060200190602002015173ffffffffffffffffffffffffffffffffffffffff16141561248857600192505b808060010191505061242f565b8215156124a157600080fd5b600096506124b58f8f8f8f8f8f8f8f616df1565b95508515156124c3576124c8565b600196505b50505050505098975050505050505050565b60006124e4617205565b6124ec617205565b6124f4617205565b6124fc617205565b612504617205565b61250c617205565b612514616f37565b60009750600260008a81526020019081526020016000206103606040519081016040529081600082015481526020016001820160009054906101000a900473ffffffffffffffffffffffffffffffffffffffff1673ffffffffffffffffffffffffffffffffffffffff1673ffffffffffffffffffffffffffffffffffffffff168152602001600282018054600181600116156101000203166002900480601f0160208091040260200160405190810160405280929190818152602001828054600181600116156101000203166002900480156126315780601f1061260657610100808354040283529160200191612631565b820191906000526020600020905b81548152906001019060200180831161261457829003601f168201915b50505050508152602001600382018054806020026020016040519081016040528092919081815260200182805480156126bf57602002820191906000526020600020905b8160009054906101000a900473ffffffffffffffffffffffffffffffffffffffff1673ffffffffffffffffffffffffffffffffffffffff1681526020019060010190808311612675575b505050505081526020016004820180548060200260200160405190810160405280929190818152602001828054801561274d57602002820191906000526020600020905b8160009054906101000a900473ffffffffffffffffffffffffffffffffffffffff1673ffffffffffffffffffffffffffffffffffffffff1681526020019060010190808311612703575b50505050508152602001600582018054600181600116156101000203166002900480601f0160208091040260200160405190810160405280929190818152602001828054600181600116156101000203166002900480156127ef5780601f106127c4576101008083540402835291602001916127ef565b820191906000526020600020905b8154815290600101906020018083116127d257829003601f168201915b50505050508152602001600682018054600181600116156101000203166002900480601f0160208091040260200160405190810160405280929190818152602001828054600181600116156101000203166002900480156128915780601f1061286657610100808354040283529160200191612891565b820191906000526020600020905b81548152906001019060200180831161287457829003601f168201915b50505050508152602001600782018054600181600116156101000203166002900480601f0160208091040260200160405190810160405280929190818152602001828054600181600116156101000203166002900480156129335780601f1061290857610100808354040283529160200191612933565b820191906000526020600020905b81548152906001019060200180831161291657829003601f168201915b50505050508152602001600882018054600181600116156101000203166002900480601f0160208091040260200160405190810160405280929190818152602001828054600181600116156101000203166002900480156129d55780601f106129aa576101008083540402835291602001916129d5565b820191906000526020600020905b8154815290600101906020018083116129b857829003601f168201915b50505050508152602001600982018054600181600116156101000203166002900480601f016020809104026020016040519081016040528092919081815260200182805460018160011615610100020316600290048015612a775780601f10612a4c57610100808354040283529160200191612a77565b820191906000526020600020905b815481529060010190602001808311612a5a57829003601f168201915b50505050508152602001600a82018054600181600116156101000203166002900480601f016020809104026020016040519081016040528092919081815260200182805460018160011615610100020316600290048015612b195780601f10612aee57610100808354040283529160200191612b19565b820191906000526020600020905b815481529060010190602001808311612afc57829003601f168201915b50505050508152602001600b82018054600181600116156101000203166002900480601f016020809104026020016040519081016040528092919081815260200182805460018160011615610100020316600290048015612bbb5780601f10612b9057610100808354040283529160200191612bbb565b820191906000526020600020905b815481529060010190602001808311612b9e57829003601f168201915b50505050508152602001600c820160009054906101000a900460ff1660ff1660ff168152602001600d8201548152602001600e8201548152602001600f82015481526020016010820154815260200160118201805480602002602001604051908101604052809291908181526020018280548015612c7e57602002820191906000526020600020906000905b82829054906101000a900460ff1660ff1681526020019060010190602082600001049283019260010382029150808411612c475790505b5050505050815260200160128201805480602002602001604051908101604052809291908181526020016000905b82821015612d6957838290600052602060002090018054600181600116156101000203166002900480601f016020809104026020016040519081016040528092919081815260200182805460018160011615610100020316600290048015612d555780601f10612d2a57610100808354040283529160200191612d55565b820191906000526020600020905b815481529060010190602001808311612d3857829003601f168201915b505050505081526020019060010190612cac565b5050505081526020016013820154815260200160148201548152602001601582015481526020016016820154815260200160178201548152602001601882015481526020016019820160009054906101000a900460ff161515151581526020016019820160019054906101000a900460ff16151515158152505090508061034001511515612df657612e27565b806040015195508060a0015196508060c0015194508060e00151935080610100015192508061012001519150600197505b50919395979092949650565b6000612e3d616f37565b60009150600260008581526020019081526020016000206103606040519081016040529081600082015481526020016001820160009054906101000a900473ffffffffffffffffffffffffffffffffffffffff1673ffffffffffffffffffffffffffffffffffffffff1673ffffffffffffffffffffffffffffffffffffffff168152602001600282018054600181600116156101000203166002900480601f016020809104026020016040519081016040528092919081815260200182805460018160011615610100020316600290048015612f5a5780601f10612f2f57610100808354040283529160200191612f5a565b820191906000526020600020905b815481529060010190602001808311612f3d57829003601f168201915b5050505050815260200160038201805480602002602001604051908101604052809291908181526020018280548015612fe857602002820191906000526020600020905b8160009054906101000a900473ffffffffffffffffffffffffffffffffffffffff1673ffffffffffffffffffffffffffffffffffffffff1681526020019060010190808311612f9e575b505050505081526020016004820180548060200260200160405190810160405280929190818152602001828054801561307657602002820191906000526020600020905b8160009054906101000a900473ffffffffffffffffffffffffffffffffffffffff1673ffffffffffffffffffffffffffffffffffffffff168152602001906001019080831161302c575b50505050508152602001600582018054600181600116156101000203166002900480601f0160208091040260200160405190810160405280929190818152602001828054600181600116156101000203166002900480156131185780601f106130ed57610100808354040283529160200191613118565b820191906000526020600020905b8154815290600101906020018083116130fb57829003601f168201915b50505050508152602001600682018054600181600116156101000203166002900480601f0160208091040260200160405190810160405280929190818152602001828054600181600116156101000203166002900480156131ba5780601f1061318f576101008083540402835291602001916131ba565b820191906000526020600020905b81548152906001019060200180831161319d57829003601f168201915b50505050508152602001600782018054600181600116156101000203166002900480601f01602080910402602001604051908101604052809291908181526020018280546001816001161561010002031660029004801561325c5780601f106132315761010080835404028352916020019161325c565b820191906000526020600020905b81548152906001019060200180831161323f57829003601f168201915b50505050508152602001600882018054600181600116156101000203166002900480601f0160208091040260200160405190810160405280929190818152602001828054600181600116156101000203166002900480156132fe5780601f106132d3576101008083540402835291602001916132fe565b820191906000526020600020905b8154815290600101906020018083116132e157829003601f168201915b50505050508152602001600982018054600181600116156101000203166002900480601f0160208091040260200160405190810160405280929190818152602001828054600181600116156101000203166002900480156133a05780601f10613375576101008083540402835291602001916133a0565b820191906000526020600020905b81548152906001019060200180831161338357829003601f168201915b50505050508152602001600a82018054600181600116156101000203166002900480601f0160208091040260200160405190810160405280929190818152602001828054600181600116156101000203166002900480156134425780601f1061341757610100808354040283529160200191613442565b820191906000526020600020905b81548152906001019060200180831161342557829003601f168201915b50505050508152602001600b82018054600181600116156101000203166002900480601f0160208091040260200160405190810160405280929190818152602001828054600181600116156101000203166002900480156134e45780601f106134b9576101008083540402835291602001916134e4565b820191906000526020600020905b8154815290600101906020018083116134c757829003601f168201915b50505050508152602001600c820160009054906101000a900460ff1660ff1660ff168152602001600d8201548152602001600e8201548152602001600f820154815260200160108201548152602001601182018054806020026020016040519081016040528092919081815260200182805480156135a757602002820191906000526020600020906000905b82829054906101000a900460ff1660ff16815260200190600101906020826000010492830192600103820291508084116135705790505b5050505050815260200160128201805480602002602001604051908101604052809291908181526020016000905b8282101561369257838290600052602060002090018054600181600116156101000203166002900480601f01602080910402602001604051908101604052809291908181526020018280546001816001161561010002031660029004801561367e5780601f106136535761010080835404028352916020019161367e565b820191906000526020600020905b81548152906001019060200180831161366157829003601f168201915b5050505050815260200190600101906135d5565b5050505081526020016013820154815260200160148201548152602001601582015481526020016016820154815260200160178201548152602001601882015481526020016019820160009054906101000a900460ff161515151581526020016019820160019054906101000a900460ff16151515158152505090508061034001511561372b57828160a001819052506001915061372c565b5b5092915050565b60008061373e616f37565b60009250600091506001806000828254019250508190555060015481600001818152505033816020019073ffffffffffffffffffffffffffffffffffffffff16908173ffffffffffffffffffffffffffffffffffffffff1681525050878160400181905250888160a00181905250868160c00181905250858160e0018190525084816101000181905250838161012001819052508060026000836000015181526020019081526020016000206000820151816000015560208201518160010160006101000a81548173ffffffffffffffffffffffffffffffffffffffff021916908373ffffffffffffffffffffffffffffffffffffffff1602179055506040820151816002019080519060200190613857929190617219565b506060820151816003019080519060200190613874929190617299565b506080820151816004019080519060200190613891929190617299565b5060a08201518160050190805190602001906138ae929190617219565b5060c08201518160060190805190602001906138cb929190617219565b5060e08201518160070190805190602001906138e8929190617219565b50610100820151816008019080519060200190613906929190617219565b50610120820151816009019080519060200190613924929190617219565b5061014082015181600a019080519060200190613942929190617219565b5061016082015181600b019080519060200190613960929190617219565b5061018082015181600c0160006101000a81548160ff021916908360ff1602179055506101a082015181600d01556101c082015181600e01556101e082015181600f015561020082015181601001556102208201518160110190805190602001906139cc929190617323565b506102408201518160120190805190602001906139ea9291906173ca565b50610260820151816013015561028082015181601401556102a082015181601501556102c082015181601601556102e0820151816017015561030082015181601801556103208201518160190160006101000a81548160ff0219169083151502179055506103408201518160190160016101000a81548160ff021916908315150217905550905050600360003373ffffffffffffffffffffffffffffffffffffffff1673ffffffffffffffffffffffffffffffffffffffff1681526020019081526020016000208054806001018281613ac39190617159565b91600052602060002090016000836000015190919091505550600081610320019015159081151581525050600081610340019015159081151581525050600192508060000151915050965096945050505050565b6000613b21617205565b613b29616f37565b60009250600260008581526020019081526020016000206103606040519081016040529081600082015481526020016001820160009054906101000a900473ffffffffffffffffffffffffffffffffffffffff1673ffffffffffffffffffffffffffffffffffffffff1673ffffffffffffffffffffffffffffffffffffffff168152602001600282018054600181600116156101000203166002900480601f016020809104026020016040519081016040528092919081815260200182805460018160011615610100020316600290048015613c465780601f10613c1b57610100808354040283529160200191613c46565b820191906000526020600020905b815481529060010190602001808311613c2957829003601f168201915b5050505050815260200160038201805480602002602001604051908101604052809291908181526020018280548015613cd457602002820191906000526020600020905b8160009054906101000a900473ffffffffffffffffffffffffffffffffffffffff1673ffffffffffffffffffffffffffffffffffffffff1681526020019060010190808311613c8a575b5050505050815260200160048201805480602002602001604051908101604052809291908181526020018280548015613d6257602002820191906000526020600020905b8160009054906101000a900473ffffffffffffffffffffffffffffffffffffffff1673ffffffffffffffffffffffffffffffffffffffff1681526020019060010190808311613d18575b50505050508152602001600582018054600181600116156101000203166002900480601f016020809104026020016040519081016040528092919081815260200182805460018160011615610100020316600290048015613e045780601f10613dd957610100808354040283529160200191613e04565b820191906000526020600020905b815481529060010190602001808311613de757829003601f168201915b50505050508152602001600682018054600181600116156101000203166002900480601f016020809104026020016040519081016040528092919081815260200182805460018160011615610100020316600290048015613ea65780601f10613e7b57610100808354040283529160200191613ea6565b820191906000526020600020905b815481529060010190602001808311613e8957829003601f168201915b50505050508152602001600782018054600181600116156101000203166002900480601f016020809104026020016040519081016040528092919081815260200182805460018160011615610100020316600290048015613f485780601f10613f1d57610100808354040283529160200191613f48565b820191906000526020600020905b815481529060010190602001808311613f2b57829003601f168201915b50505050508152602001600882018054600181600116156101000203166002900480601f016020809104026020016040519081016040528092919081815260200182805460018160011615610100020316600290048015613fea5780601f10613fbf57610100808354040283529160200191613fea565b820191906000526020600020905b815481529060010190602001808311613fcd57829003601f168201915b50505050508152602001600982018054600181600116156101000203166002900480601f01602080910402602001604051908101604052809291908181526020018280546001816001161561010002031660029004801561408c5780601f106140615761010080835404028352916020019161408c565b820191906000526020600020905b81548152906001019060200180831161406f57829003601f168201915b50505050508152602001600a82018054600181600116156101000203166002900480601f01602080910402602001604051908101604052809291908181526020018280546001816001161561010002031660029004801561412e5780601f106141035761010080835404028352916020019161412e565b820191906000526020600020905b81548152906001019060200180831161411157829003601f168201915b50505050508152602001600b82018054600181600116156101000203166002900480601f0160208091040260200160405190810160405280929190818152602001828054600181600116156101000203166002900480156141d05780601f106141a5576101008083540402835291602001916141d0565b820191906000526020600020905b8154815290600101906020018083116141b357829003601f168201915b50505050508152602001600c820160009054906101000a900460ff1660ff1660ff168152602001600d8201548152602001600e8201548152602001600f8201548152602001601082015481526020016011820180548060200260200160405190810160405280929190818152602001828054801561429357602002820191906000526020600020906000905b82829054906101000a900460ff1660ff168152602001906001019060208260000104928301926001038202915080841161425c5790505b5050505050815260200160128201805480602002602001604051908101604052809291908181526020016000905b8282101561437e57838290600052602060002090018054600181600116156101000203166002900480601f01602080910402602001604051908101604052809291908181526020018280546001816001161561010002031660029004801561436a5780601f1061433f5761010080835404028352916020019161436a565b820191906000526020600020905b81548152906001019060200180831161434d57829003601f168201915b5050505050815260200190600101906142c1565b5050505081526020016013820154815260200160148201548152602001601582015481526020016016820154815260200160178201548152602001601882015481526020016019820160009054906101000a900460ff161515151581526020016019820160019054906101000a900460ff16151515158152505090508061034001511561441557600192508060a001519150614416565b5b50915091565b6000614426617205565b61442e616f37565b60009250600260008581526020019081526020016000206103606040519081016040529081600082015481526020016001820160009054906101000a900473ffffffffffffffffffffffffffffffffffffffff1673ffffffffffffffffffffffffffffffffffffffff1673ffffffffffffffffffffffffffffffffffffffff168152602001600282018054600181600116156101000203166002900480601f01602080910402602001604051908101604052809291908181526020018280546001816001161561010002031660029004801561454b5780601f106145205761010080835404028352916020019161454b565b820191906000526020600020905b81548152906001019060200180831161452e57829003601f168201915b50505050508152602001600382018054806020026020016040519081016040528092919081815260200182805480156145d957602002820191906000526020600020905b8160009054906101000a900473ffffffffffffffffffffffffffffffffffffffff1673ffffffffffffffffffffffffffffffffffffffff168152602001906001019080831161458f575b505050505081526020016004820180548060200260200160405190810160405280929190818152602001828054801561466757602002820191906000526020600020905b8160009054906101000a900473ffffffffffffffffffffffffffffffffffffffff1673ffffffffffffffffffffffffffffffffffffffff168152602001906001019080831161461d575b50505050508152602001600582018054600181600116156101000203166002900480601f0160208091040260200160405190810160405280929190818152602001828054600181600116156101000203166002900480156147095780601f106146de57610100808354040283529160200191614709565b820191906000526020600020905b8154815290600101906020018083116146ec57829003601f168201915b50505050508152602001600682018054600181600116156101000203166002900480601f0160208091040260200160405190810160405280929190818152602001828054600181600116156101000203166002900480156147ab5780601f10614780576101008083540402835291602001916147ab565b820191906000526020600020905b81548152906001019060200180831161478e57829003601f168201915b50505050508152602001600782018054600181600116156101000203166002900480601f01602080910402602001604051908101604052809291908181526020018280546001816001161561010002031660029004801561484d5780601f106148225761010080835404028352916020019161484d565b820191906000526020600020905b81548152906001019060200180831161483057829003601f168201915b50505050508152602001600882018054600181600116156101000203166002900480601f0160208091040260200160405190810160405280929190818152602001828054600181600116156101000203166002900480156148ef5780601f106148c4576101008083540402835291602001916148ef565b820191906000526020600020905b8154815290600101906020018083116148d257829003601f168201915b50505050508152602001600982018054600181600116156101000203166002900480601f0160208091040260200160405190810160405280929190818152602001828054600181600116156101000203166002900480156149915780601f1061496657610100808354040283529160200191614991565b820191906000526020600020905b81548152906001019060200180831161497457829003601f168201915b50505050508152602001600a82018054600181600116156101000203166002900480601f016020809104026020016040519081016040528092919081815260200182805460018160011615610100020316600290048015614a335780601f10614a0857610100808354040283529160200191614a33565b820191906000526020600020905b815481529060010190602001808311614a1657829003601f168201915b50505050508152602001600b82018054600181600116156101000203166002900480601f016020809104026020016040519081016040528092919081815260200182805460018160011615610100020316600290048015614ad55780601f10614aaa57610100808354040283529160200191614ad5565b820191906000526020600020905b815481529060010190602001808311614ab857829003601f168201915b50505050508152602001600c820160009054906101000a900460ff1660ff1660ff168152602001600d8201548152602001600e8201548152602001600f82015481526020016010820154815260200160118201805480602002602001604051908101604052809291908181526020018280548015614b9857602002820191906000526020600020906000905b82829054906101000a900460ff1660ff1681526020019060010190602082600001049283019260010382029150808411614b615790505b5050505050815260200160128201805480602002602001604051908101604052809291908181526020016000905b82821015614c8357838290600052602060002090018054600181600116156101000203166002900480601f016020809104026020016040519081016040528092919081815260200182805460018160011615610100020316600290048015614c6f5780601f10614c4457610100808354040283529160200191614c6f565b820191906000526020600020905b815481529060010190602001808311614c5257829003601f168201915b505050505081526020019060010190614bc6565b5050505081526020016013820154815260200160148201548152602001601582015481526020016016820154815260200160178201548152602001601882015481526020016019820160009054906101000a900460ff161515151581526020016019820160019054906101000a900460ff161515151581525050905080610340015115614d1a576001925080604001519150614d1b565b5b50915091565b6000614d2b617205565b614d33617205565b6000806000806000614d43616f37565b60009850600260008b81526020019081526020016000206103606040519081016040529081600082015481526020016001820160009054906101000a900473ffffffffffffffffffffffffffffffffffffffff1673ffffffffffffffffffffffffffffffffffffffff1673ffffffffffffffffffffffffffffffffffffffff168152602001600282018054600181600116156101000203166002900480601f016020809104026020016040519081016040528092919081815260200182805460018160011615610100020316600290048015614e605780601f10614e3557610100808354040283529160200191614e60565b820191906000526020600020905b815481529060010190602001808311614e4357829003601f168201915b5050505050815260200160038201805480602002602001604051908101604052809291908181526020018280548015614eee57602002820191906000526020600020905b8160009054906101000a900473ffffffffffffffffffffffffffffffffffffffff1673ffffffffffffffffffffffffffffffffffffffff1681526020019060010190808311614ea4575b5050505050815260200160048201805480602002602001604051908101604052809291908181526020018280548015614f7c57602002820191906000526020600020905b8160009054906101000a900473ffffffffffffffffffffffffffffffffffffffff1673ffffffffffffffffffffffffffffffffffffffff1681526020019060010190808311614f32575b50505050508152602001600582018054600181600116156101000203166002900480601f01602080910402602001604051908101604052809291908181526020018280546001816001161561010002031660029004801561501e5780601f10614ff35761010080835404028352916020019161501e565b820191906000526020600020905b81548152906001019060200180831161500157829003601f168201915b50505050508152602001600682018054600181600116156101000203166002900480601f0160208091040260200160405190810160405280929190818152602001828054600181600116156101000203166002900480156150c05780601f10615095576101008083540402835291602001916150c0565b820191906000526020600020905b8154815290600101906020018083116150a357829003601f168201915b50505050508152602001600782018054600181600116156101000203166002900480601f0160208091040260200160405190810160405280929190818152602001828054600181600116156101000203166002900480156151625780601f1061513757610100808354040283529160200191615162565b820191906000526020600020905b81548152906001019060200180831161514557829003601f168201915b50505050508152602001600882018054600181600116156101000203166002900480601f0160208091040260200160405190810160405280929190818152602001828054600181600116156101000203166002900480156152045780601f106151d957610100808354040283529160200191615204565b820191906000526020600020905b8154815290600101906020018083116151e757829003601f168201915b50505050508152602001600982018054600181600116156101000203166002900480601f0160208091040260200160405190810160405280929190818152602001828054600181600116156101000203166002900480156152a65780601f1061527b576101008083540402835291602001916152a6565b820191906000526020600020905b81548152906001019060200180831161528957829003601f168201915b50505050508152602001600a82018054600181600116156101000203166002900480601f0160208091040260200160405190810160405280929190818152602001828054600181600116156101000203166002900480156153485780601f1061531d57610100808354040283529160200191615348565b820191906000526020600020905b81548152906001019060200180831161532b57829003601f168201915b50505050508152602001600b82018054600181600116156101000203166002900480601f0160208091040260200160405190810160405280929190818152602001828054600181600116156101000203166002900480156153ea5780601f106153bf576101008083540402835291602001916153ea565b820191906000526020600020905b8154815290600101906020018083116153cd57829003601f168201915b50505050508152602001600c820160009054906101000a900460ff1660ff1660ff168152602001600d8201548152602001600e8201548152602001600f820154815260200160108201548152602001601182018054806020026020016040519081016040528092919081815260200182805480156154ad57602002820191906000526020600020906000905b82829054906101000a900460ff1660ff16815260200190600101906020826000010492830192600103820291508084116154765790505b5050505050815260200160128201805480602002602001604051908101604052809291908181526020016000905b8282101561559857838290600052602060002090018054600181600116156101000203166002900480601f0160208091040260200160405190810160405280929190818152602001828054600181600116156101000203166002900480156155845780601f1061555957610100808354040283529160200191615584565b820191906000526020600020905b81548152906001019060200180831161556757829003601f168201915b5050505050815260200190600101906154db565b5050505081526020016013820154815260200160148201548152602001601582015481526020016016820154815260200160178201548152602001601882015481526020016019820160009054906101000a900460ff161515151581526020016019820160019054906101000a900460ff1615151515815250509050806103400151151561562557615662565b806101400151975080610160015196508061018001519550806101a001519450806101c001519350806101e0015192508061020001519150600198505b50919395975091939597565b60008060008061567c617067565b60008760006002600083815260200190815260200160002090508060190160019054906101000a900460ff1615156156b357600080fd5b3373ffffffffffffffffffffffffffffffffffffffff168160010160009054906101000a900473ffffffffffffffffffffffffffffffffffffffff1673ffffffffffffffffffffffffffffffffffffffff1614151561571157600080fd5b60009750600260008b815260200190815260200160002096508660190160019054906101000a900460ff1615615884576000955060009450866003018054806020026020016040519081016040528092919081815260200182805480156157cd57602002820191906000526020600020905b8160009054906101000a900473ffffffffffffffffffffffffffffffffffffffff1673ffffffffffffffffffffffffffffffffffffffff1681526020019060010190808311615783575b50505050509350600092505b8351831015615842578873ffffffffffffffffffffffffffffffffffffffff16848481518110151561580757fe5b9060200190602002015173ffffffffffffffffffffffffffffffffffffffff16141561583557600195508294505b82806001019350506157d9565b851561588357838581518110151561585657fe5b906020019060200201600073ffffffffffffffffffffffffffffffffffffffff1681525060019750615885565b5b5b5050505050505092915050565b600061589c616f37565b60009150600260008581526020019081526020016000206103606040519081016040529081600082015481526020016001820160009054906101000a900473ffffffffffffffffffffffffffffffffffffffff1673ffffffffffffffffffffffffffffffffffffffff1673ffffffffffffffffffffffffffffffffffffffff168152602001600282018054600181600116156101000203166002900480601f0160208091040260200160405190810160405280929190818152602001828054600181600116156101000203166002900480156159b95780601f1061598e576101008083540402835291602001916159b9565b820191906000526020600020905b81548152906001019060200180831161599c57829003601f168201915b5050505050815260200160038201805480602002602001604051908101604052809291908181526020018280548015615a4757602002820191906000526020600020905b8160009054906101000a900473ffffffffffffffffffffffffffffffffffffffff1673ffffffffffffffffffffffffffffffffffffffff16815260200190600101908083116159fd575b5050505050815260200160048201805480602002602001604051908101604052809291908181526020018280548015615ad557602002820191906000526020600020905b8160009054906101000a900473ffffffffffffffffffffffffffffffffffffffff1673ffffffffffffffffffffffffffffffffffffffff1681526020019060010190808311615a8b575b50505050508152602001600582018054600181600116156101000203166002900480601f016020809104026020016040519081016040528092919081815260200182805460018160011615610100020316600290048015615b775780601f10615b4c57610100808354040283529160200191615b77565b820191906000526020600020905b815481529060010190602001808311615b5a57829003601f168201915b50505050508152602001600682018054600181600116156101000203166002900480601f016020809104026020016040519081016040528092919081815260200182805460018160011615610100020316600290048015615c195780601f10615bee57610100808354040283529160200191615c19565b820191906000526020600020905b815481529060010190602001808311615bfc57829003601f168201915b50505050508152602001600782018054600181600116156101000203166002900480601f016020809104026020016040519081016040528092919081815260200182805460018160011615610100020316600290048015615cbb5780601f10615c9057610100808354040283529160200191615cbb565b820191906000526020600020905b815481529060010190602001808311615c9e57829003601f168201915b50505050508152602001600882018054600181600116156101000203166002900480601f016020809104026020016040519081016040528092919081815260200182805460018160011615610100020316600290048015615d5d5780601f10615d3257610100808354040283529160200191615d5d565b820191906000526020600020905b815481529060010190602001808311615d4057829003601f168201915b50505050508152602001600982018054600181600116156101000203166002900480601f016020809104026020016040519081016040528092919081815260200182805460018160011615610100020316600290048015615dff5780601f10615dd457610100808354040283529160200191615dff565b820191906000526020600020905b815481529060010190602001808311615de257829003601f168201915b50505050508152602001600a82018054600181600116156101000203166002900480601f016020809104026020016040519081016040528092919081815260200182805460018160011615610100020316600290048015615ea15780601f10615e7657610100808354040283529160200191615ea1565b820191906000526020600020905b815481529060010190602001808311615e8457829003601f168201915b50505050508152602001600b82018054600181600116156101000203166002900480601f016020809104026020016040519081016040528092919081815260200182805460018160011615610100020316600290048015615f435780601f10615f1857610100808354040283529160200191615f43565b820191906000526020600020905b815481529060010190602001808311615f2657829003601f168201915b50505050508152602001600c820160009054906101000a900460ff1660ff1660ff168152602001600d8201548152602001600e8201548152602001600f8201548152602001601082015481526020016011820180548060200260200160405190810160405280929190818152602001828054801561600657602002820191906000526020600020906000905b82829054906101000a900460ff1660ff1681526020019060010190602082600001049283019260010382029150808411615fcf5790505b5050505050815260200160128201805480602002602001604051908101604052809291908181526020016000905b828210156160f157838290600052602060002090018054600181600116156101000203166002900480601f0160208091040260200160405190810160405280929190818152602001828054600181600116156101000203166002900480156160dd5780601f106160b2576101008083540402835291602001916160dd565b820191906000526020600020905b8154815290600101906020018083116160c057829003601f168201915b505050505081526020019060010190616034565b5050505081526020016013820154815260200160148201548152602001601582015481526020016016820154815260200160178201548152602001601882015481526020016019820160009054906101000a900460ff161515151581526020016019820160019054906101000a900460ff16151515158152505090508061034001511561618a578281604001819052506001915061618b565b5b5092915050565b600080886000806161a1617067565b60006002600086815260200190815260200160002093508360190160019054906101000a900460ff1615156161d557600080fd5b600092508360030180548060200260200160405190810160405280929190818152602001828054801561625d57602002820191906000526020600020905b8160009054906101000a900473ffffffffffffffffffffffffffffffffffffffff1673ffffffffffffffffffffffffffffffffffffffff1681526020019060010190808311616213575b50505050509150600090505b81518110156162cf573373ffffffffffffffffffffffffffffffffffffffff16828281518110151561629757fe5b9060200190602002015173ffffffffffffffffffffffffffffffffffffffff1614156162c257600192505b8080600101915050616269565b8215156162db57600080fd5b60009650600260008f815260200190815260200160002095508560190160019054906101000a900460ff161515616311576163ac565b8b866002019080519060200190616329929190617185565b508c866005019080519060200190616342929190617185565b508a86600601908051906020019061635b929190617185565b5089866007019080519060200190616374929190617185565b508886600801908051906020019061638d929190617185565b50878660090190805190602001906163a6929190617185565b50600196505b505050505050979650505050505050565b6000806000915060019150600090509250929050565b6000806002600088815260200190815260200160002090508060190160019054906101000a900460ff16151561640857616431565b858160130181905550848160140181905550838160150181905550828160160181905550600191505b5095945050505050565b6000806000616448616f37565b6000806000955061645988886163bd565b809550819650505084151561646d57616de5565b600260008a81526020019081526020016000206103606040519081016040529081600082015481526020016001820160009054906101000a900473ffffffffffffffffffffffffffffffffffffffff1673ffffffffffffffffffffffffffffffffffffffff1673ffffffffffffffffffffffffffffffffffffffff168152602001600282018054600181600116156101000203166002900480601f0160208091040260200160405190810160405280929190818152602001828054600181600116156101000203166002900480156165865780601f1061655b57610100808354040283529160200191616586565b820191906000526020600020905b81548152906001019060200180831161656957829003601f168201915b505050505081526020016003820180548060200260200160405190810160405280929190818152602001828054801561661457602002820191906000526020600020905b8160009054906101000a900473ffffffffffffffffffffffffffffffffffffffff1673ffffffffffffffffffffffffffffffffffffffff16815260200190600101908083116165ca575b50505050508152602001600482018054806020026020016040519081016040528092919081815260200182805480156166a257602002820191906000526020600020905b8160009054906101000a900473ffffffffffffffffffffffffffffffffffffffff1673ffffffffffffffffffffffffffffffffffffffff1681526020019060010190808311616658575b50505050508152602001600582018054600181600116156101000203166002900480601f0160208091040260200160405190810160405280929190818152602001828054600181600116156101000203166002900480156167445780601f1061671957610100808354040283529160200191616744565b820191906000526020600020905b81548152906001019060200180831161672757829003601f168201915b50505050508152602001600682018054600181600116156101000203166002900480601f0160208091040260200160405190810160405280929190818152602001828054600181600116156101000203166002900480156167e65780601f106167bb576101008083540402835291602001916167e6565b820191906000526020600020905b8154815290600101906020018083116167c957829003601f168201915b50505050508152602001600782018054600181600116156101000203166002900480601f0160208091040260200160405190810160405280929190818152602001828054600181600116156101000203166002900480156168885780601f1061685d57610100808354040283529160200191616888565b820191906000526020600020905b81548152906001019060200180831161686b57829003601f168201915b50505050508152602001600882018054600181600116156101000203166002900480601f01602080910402602001604051908101604052809291908181526020018280546001816001161561010002031660029004801561692a5780601f106168ff5761010080835404028352916020019161692a565b820191906000526020600020905b81548152906001019060200180831161690d57829003601f168201915b50505050508152602001600982018054600181600116156101000203166002900480601f0160208091040260200160405190810160405280929190818152602001828054600181600116156101000203166002900480156169cc5780601f106169a1576101008083540402835291602001916169cc565b820191906000526020600020905b8154815290600101906020018083116169af57829003601f168201915b50505050508152602001600a82018054600181600116156101000203166002900480601f016020809104026020016040519081016040528092919081815260200182805460018160011615610100020316600290048015616a6e5780601f10616a4357610100808354040283529160200191616a6e565b820191906000526020600020905b815481529060010190602001808311616a5157829003601f168201915b50505050508152602001600b82018054600181600116156101000203166002900480601f016020809104026020016040519081016040528092919081815260200182805460018160011615610100020316600290048015616b105780601f10616ae557610100808354040283529160200191616b10565b820191906000526020600020905b815481529060010190602001808311616af357829003601f168201915b50505050508152602001600c820160009054906101000a900460ff1660ff1660ff168152602001600d8201548152602001600e8201548152602001600f82015481526020016010820154815260200160118201805480602002602001604051908101604052809291908181526020018280548015616bd357602002820191906000526020600020906000905b82829054906101000a900460ff1660ff1681526020019060010190602082600001049283019260010382029150808411616b9c5790505b5050505050815260200160128201805480602002602001604051908101604052809291908181526020016000905b82821015616cbe57838290600052602060002090018054600181600116156101000203166002900480601f016020809104026020016040519081016040528092919081815260200182805460018160011615610100020316600290048015616caa5780601f10616c7f57610100808354040283529160200191616caa565b820191906000526020600020905b815481529060010190602001808311616c8d57829003601f168201915b505050505081526020019060010190616c01565b5050505081526020016013820154815260200160148201548152602001601582015481526020016016820154815260200160178201548152602001601882015481526020016019820160009054906101000a900460ff161515151581526020016019820160019054906101000a900460ff16151515158152505092508261034001511515616d4b57616de5565b616d5f836102e001518461030001516163bd565b8092508193505050811515616d7357616de5565b8381141515616dca57600460008581526020019081526020016000208054806001018281616da19190617159565b91600052602060002090016000856000015190919091505550616dc8818460000151616eab565b505b87836102e00181815250508683610300018181525050600195505b50505050509392505050565b600080600260008b815260200190815260200160002090508060190160019054906101000a900460ff161515616e2657616e9e565b8881600a019080519060200190616e3e929190617185565b508781600b019080519060200190616e57929190617185565b508681600c0160006101000a81548160ff021916908360ff1602179055508581600d01819055508481600e01819055508381600f0181905550828160100181905550600191505b5098975050505050505050565b60008060008060009350600460008781526020019081526020016000209250600090505b8280549050811015616f0d57848382815481101515616eea57fe5b9060005260206000209001541415616f00578091505b8080600101915050616ecf565b8282815481101515616f1b57fe5b9060005260206000209001600090556001935050505092915050565b6103606040519081016040528060008152602001600073ffffffffffffffffffffffffffffffffffffffff168152602001616f7061742a565b8152602001616f7d61743e565b8152602001616f8a61743e565b8152602001616f9761742a565b8152602001616fa461742a565b8152602001616fb161742a565b8152602001616fbe61742a565b8152602001616fcb61742a565b8152602001616fd861742a565b8152602001616fe561742a565b8152602001600060ff16815260200160008152602001600081526020016000815260200160008152602001617018617452565b8152602001617025617466565b81526020016000815260200160008152602001600081526020016000815260200160008152602001600081526020016000151581526020016000151581525090565b602060405190810160405280600081525090565b8154818355818115116170a2578183600052602060002091820191016170a1919061747a565b5b505050565b50805460018160011615610100020316600290046000825580601f106170cd57506170ec565b601f0160209004906000526020600020908101906170eb919061747a565b5b50565b508054600082559060005260206000209081019061710d919061747a565b50565b50805460008255601f016020900490600052602060002090810190617135919061747a565b50565b5080546000825590600052602060002090810190617156919061749f565b50565b8154818355818115116171805781836000526020600020918201910161717f919061747a565b5b505050565b828054600181600116156101000203166002900490600052602060002090601f016020900481019282601f106171c657805160ff19168380011785556171f4565b828001600101855582156171f4579182015b828111156171f35782518255916020019190600101906171d8565b5b509050617201919061747a565b5090565b602060405190810160405280600081525090565b828054600181600116156101000203166002900490600052602060002090601f016020900481019282601f1061725a57805160ff1916838001178555617288565b82800160010185558215617288579182015b8281111561728757825182559160200191906001019061726c565b5b509050617295919061747a565b5090565b828054828255906000526020600020908101928215617312579160200282015b828111156173115782518260006101000a81548173ffffffffffffffffffffffffffffffffffffffff021916908373ffffffffffffffffffffffffffffffffffffffff160217905550916020019190600101906172b9565b5b50905061731f91906174cb565b5090565b82805482825590600052602060002090601f016020900481019282156173b95791602002820160005b8382111561738a57835183826101000a81548160ff021916908360ff160217905550926020019260010160208160000104928301926001030261734c565b80156173b75782816101000a81549060ff021916905560010160208160000104928301926001030261738a565b505b5090506173c6919061750e565b5090565b828054828255906000526020600020908101928215617419579160200282015b82811115617418578251829080519060200190617408929190617219565b50916020019190600101906173ea565b5b509050617426919061749f565b5090565b602060405190810160405280600081525090565b602060405190810160405280600081525090565b602060405190810160405280600081525090565b602060405190810160405280600081525090565b61749c91905b80821115617498576000816000905550600101617480565b5090565b90565b6174c891905b808211156174c457600081816174bb91906170a7565b506001016174a5565b5090565b90565b61750b91905b8082111561750757600081816101000a81549073ffffffffffffffffffffffffffffffffffffffff0219169055506001016174d1565b5090565b90565b61753b91905b8082111561753757600081816101000a81549060ff021916905550600101617514565b5090565b905600a165627a7a72305820c12cf8b02a8b48fe2a5d5ec3e57386d77c976312289217c7a8cb51ec02a238410029",
  "source": "pragma solidity ^0.4.19;\n\ncontract OkeyDokey {\n    /** Get addresses of other contracts. */\n    // function getAddress(uint16) public view returns (address);\n}\n\ncontract Houses {\n\n    /** Admin of this contract. */\n    address private admin;\n\n    /** Running count of house ids. Smallest valid house index is 1. */\n    uint256 houseId = 0;\n\n    /** Map of house ids to each corresponding house. */\n    mapping(uint256 => House) private houses;\n\n    /** Map of addresses to ids of houses it owns. */\n    mapping(address => uint256[]) private housesOf;\n\n    /** Map of a grid's id to houses located in that particular grid. */\n    mapping(uint256 => uint256[]) private housesInGrid;\n\n    /** Address of OkeyDokey contract. */\n    address private okeyDokeyAddress;\n\n    /** Instance of Devices contract. */\n    OkeyDokey private okeyDokey;\n\n    /** Structure of a house. */\n    struct House {\n        uint256 id;\n\n        /* Owner info */\n        address host;\n        string hostName;\n        address[] administrators;\n        address[] devices;\n\n        /* House info */\n        string houseName;\n        string addrFull;\n        string addrSummary;\n        string addrDirection;\n        string description;\n        string housePolicy;\n        string cancellationPolicy;\n        uint8 houseType;\n        uint256 numGuest;\n        uint256 numBedroom;\n        uint256 numBed;\n        uint256 numBathroom;\n        uint8[] amenities;\n        string[] imageHashes;\n\n        /* Price */\n        uint256 hourlyRate;\n        uint256 dailyRate;\n        uint256 utilityFee;\n        uint256 cleaningFee;\n\n        /* Location */\n        uint256 latitude;\n        uint256 longitude;\n\n        /* Logistics */\n        bool active;\n        bool valid;\n    }\n\n    /**\n     * Modifier for functions only smart contract owner can run.\n     */\n    modifier system() {\n        /* Verify admin. */\n        if (admin != msg.sender) {\n            throw;\n        }\n\n        _;\n    }\n\n    /**\n     * Modifier for functions only house host(owner) can run.\n     *\n     * @param id The id of house being manipulated.\n     */\n    modifier onlyHost(uint256 id) {\n        House storage house = houses[id];   \n        if (!house.valid) {\n            throw;\n        } \n\n        /* Verify owner. */\n        if (house.host != msg.sender) {\n            throw;\n        }\n\n        _;\n    }\n\n    /**\n     * Modifier for functions only designated admins can run.\n     *\n     * @param id The id of house being manipulated.\n     */\n    modifier onlyAdmins(uint256 id) {\n        House storage house = houses[id];   \n        if (!house.valid) {\n            throw;\n        } \n\n        /* Search for admin address. */\n        bool found = false;\n        address[] memory admins = house.administrators;\n        for (uint256 i=0; i < admins.length; i++) {\n            if (admins[i] == msg.sender) {\n                found = true;\n            }\n        }\n\n        if (!found) {\n            throw;\n        }\n\n        _;\n    }\n\n    /**\n     * Constrctor function.\n     *\n     * Assign owner.\n     *\n     */\n    function Houses() public {\n        admin = msg.sender;\n    }\n\n    /**\n     * Reinitialize values dependant on other functions.\n     *\n     * @param _okeyDokeyAddress The address of main application contract.\n     * @return success Whether the reinitialization was successful.\n     */\n    function initializeContracts(address _okeyDokeyAddress) public returns (bool success) {\n        require(msg.sender == admin);\n        require(_okeyDokeyAddress != 0);\n        require(_okeyDokeyAddress != address(this));\n\n        okeyDokeyAddress = _okeyDokeyAddress;\n        okeyDokey = OkeyDokey(okeyDokeyAddress);\n\n        return true;\n    }\n\n    /**\n     * Register and list a new house (1).\n     *\n     * Divided into three functions because \n     * Solidity limits the number of local variables to 16.\n     *\n     * @param houseName The name of the house. Also used as the title of listing.\n     * @param hostName The name of the host.\n     * @param addrFull Full address of the house.\n     * @param addrSummary Shortened address of the house.\n     * @param addrDirection Instructions on how to find the house.\n     * @param description House description, provided by the host.\n     * @return success Whether the registration was successful.\n     * @return newId Id of the new house. Must be greater than 0 to be considered valid.\n     */\n    function registerHouse1(string houseName, string hostName, \n        string addrFull, string addrSummary, string addrDirection, \n        string description) public returns (bool success, uint256 newId) {\n\n        success = false;\n        newId = 0;\n\n        /* Smallest houseId is 1 */\n        houseId += 1;\n\n        House memory house; \n\n        house.id = houseId;\n\n        /* Owner info */\n        house.host = msg.sender;\n        house.hostName = hostName;\n\n        /* House info */\n        house.houseName = houseName;\n        house.addrFull = addrFull;\n        house.addrSummary = addrSummary;\n        house.addrDirection = addrDirection;\n        house.description = description;\n\n        /* Add newly created house to storage. */\n        houses[house.id] = house;\n        housesOf[msg.sender].push(house.id);\n\n        /* Logistics */\n        house.active = false;\n        house.valid = false;\n\n        success = true;\n        newId = house.id;\n    } \n\n    /**\n     * Register and list a new house (2).\n     *\n     * Divided into three functions because \n     * Solidity limits the number of local variables to 16.\n     *\n     * @param id The id of the house to continue initializing.\n     * @param housePolicy Basic house rules set by the host.\n     * @param cancellationPolicy The cancellation policy of the booking.\n     * @param houseType The type of the house.\n     * @param numGuest The number of guests the house can accomodate.\n     * @param numBedroom The number of bedrooms in the house.\n     * @param numBed The total number of beds in the house.\n     * @param numBathroom The number of bathrooms in the house.\n     * @return success Whether the registration was successful.\n     * @return newId Id of the new house. Must be greater than 0 to be considered valid.\n     */\n    function registerHouse2(uint256 id, string housePolicy, string cancellationPolicy, \n        uint8 houseType, uint256 numGuest, uint256 numBedroom, \n        uint256 numBed, uint256 numBathroom) public returns (bool success, uint256 newId) {\n\n        success = false;\n        newId = 0;\n\n        House storage house = houses[id];   \n        if (house.host != msg.sender) {\n            return;\n        }\n\n        /* House info */\n        house.housePolicy = housePolicy;\n        house.cancellationPolicy = cancellationPolicy;\n        house.houseType = houseType;\n        house.numGuest = numGuest;\n        house.numBedroom = numBedroom;\n        house.numBed = numBed;\n        house.numBathroom = numBathroom;\n\n        /* Logistics */\n        house.active = false;\n        house.valid = false;\n\n        success = true;\n        newId = house.id;\n    } \n\n    /**\n     * Register and list a new house (3).\n     *\n     * Divided into three functions because \n     * Solidity limits the number of local variables to 16.\n     *\n     * @param id The id of the house to continue initializing.\n     * @param hourlyRate The hourly rate of the house.\n     * @param dailyRate The daily rate of the house.\n     * @param utilityFee The utility fee of the house.\n     * @param cleaningFee The cleaning fee of the house.\n     * @param latitude The lattitude of the house, multiplied by 1 million.\n     * @param longitude The longitude of the house, multiplied by 1 million.\n     * @return success Whether the registration was successful.\n     * @return newId Id of the new house. Must be greater than 0 to be considered valid.\n     */\n    function registerHouse3(uint256 id,  \n        uint256 hourlyRate, uint256 dailyRate, uint256 utilityFee, uint256 cleaningFee, \n        uint256 latitude, uint256 longitude) public returns (bool success, uint256 newId) {\n\n        success = false;\n\n        bool succ;\n        uint256 gridId;\n        (succ, gridId) = getGridId(latitude, longitude);\n        if (!succ) {\n            /* This listing failed. Erase houseId. */\n            delete houses[id];\n            houseId -= 1;\n            return;\n        }\n\n        House storage house = houses[id];   \n        if (house.host != msg.sender) {\n            return;\n        }\n\n        /* Price */\n        house.hourlyRate = hourlyRate;\n        house.dailyRate = dailyRate;\n        house.utilityFee = utilityFee;\n        house.cleaningFee = cleaningFee;\n\n        /* Location */\n        house.latitude = latitude;\n        house.longitude = longitude;\n\n        /* Logistics */\n        house.active = true;\n        house.valid = true;\n\n        /* Add host as administrator. */\n        addAdministrator(house.id, msg.sender);\n\n        /* Add newly created house to storage. */\n        housesInGrid[gridId].push(house.id);\n\n        success = true;\n        newId = house.id;\n    } \n\n    /**\n     * Edit a listed house (1).\n     *\n     * Divided into three functions because \n     * Solidity limits the number of local variables to 16.\n     *\n     * @param id The id of the house to edit.\n     * @param houseName The name of the house. Also used as the title of listing.\n     * @param hostName The name of the host.\n     * @param addrFull Full address of the house.\n     * @param addrSummary Shortened address of the house.\n     * @param addrDirection Instructions on how to find the house.\n     * @param description House description, provided by the host.\n     * @return success Whether the edit was successful.\n     */\n    function editHouse1(uint256 id, string houseName, string hostName, \n        string addrFull, string addrSummary, string addrDirection, \n        string description) onlyAdmins(id) public returns (bool success) {\n\n        success = false;\n\n        House storage house = houses[id]; \n        if (!house.valid) {\n            return;\n        } \n\n        /* Owner info */\n        house.hostName = hostName;\n\n        /* House info */\n        house.houseName = houseName;\n        house.addrFull = addrFull;\n        house.addrSummary = addrSummary;\n        house.addrDirection = addrDirection;\n        house.description = description;\n\n        success = true;\n    } \n\n    /**\n     * Edit a listed house (2).\n     *\n     * Divided into three functions because \n     * Solidity limits the number of local variables to 16.\n     *\n     * @param id The id of the house to edit.\n     * @param housePolicy Basic house rules set by the host.\n     * @param cancellationPolicy The cancellation policy of the booking.\n     * @param houseType The type of the house.\n     * @param numGuest The number of guests the house can accomodate.\n     * @param numBedroom The number of bedrooms in the house.\n     * @param numBed The total number of beds in the house.\n     * @param numBathroom The number of bathrooms in the house.\n     * @return success Whether the edit was successful.\n     */\n    function editHouse2(uint256 id, string housePolicy, string cancellationPolicy, \n        uint8 houseType, uint256 numGuest, uint256 numBedroom, \n        uint256 numBed, uint256 numBathroom) onlyAdmins(id) public returns (bool success) {\n\n        success = false;\n\n        /* Prices */\n        bool succ = updateSecondaryInfo(id, housePolicy, cancellationPolicy, \n                                        houseType, numGuest, numBedroom, \n                                        numBed, numBathroom);\n        if (!succ) {\n            return;\n        }\n\n        success = true;\n    } \n\n    /**\n     * Update secondary info for a house listing.\n     *\n     * Helper function for editHouse2. \n     *\n     * @param id The id of the house to edit.\n     * @param housePolicy Basic house rules set by the host.\n     * @param cancellationPolicy The cancellation policy of the booking.\n     * @param houseType The type of the house.\n     * @param numGuest The number of guests the house can accomodate.\n     * @param numBedroom The number of bedrooms in the house.\n     * @param numBed The total number of beds in the house.\n     * @param numBathroom The number of bathrooms in the house.\n     * @return success Whether the update was successful.\n     */\n    function updateSecondaryInfo(uint256 id, string housePolicy, string cancellationPolicy, \n        uint8 houseType, uint256 numGuest, uint256 numBedroom, \n        uint256 numBed, uint256 numBathroom) internal returns (bool success) {\n\n        House storage house = houses[id];  \n        if (!house.valid) {\n            return;\n        }\n\n        /* House info */\n        house.housePolicy = housePolicy;\n        house.cancellationPolicy = cancellationPolicy;\n        house.houseType = houseType;\n        house.numGuest = numGuest;\n        house.numBedroom = numBedroom;\n        house.numBed = numBed;\n        house.numBathroom = numBathroom;\n\n        success = true;\n     }\n\n    /**\n     * Edit a listed house (3).\n     *\n     * Divided into three functions because \n     * Solidity limits the number of local variables to 16.\n     *\n     * @param id The id of the house to edit.\n     * @param hourlyRate The hourly rate of the house.\n     * @param dailyRate The daily rate of the house.\n     * @param utilityFee The utility fee of the house.\n     * @param cleaningFee The cleaning fee of the house.\n     * @param latitude The lattitude of the house, multiplied by 1 million.\n     * @param longitude The longitude of the house, multiplied by 1 million.\n     * @return success Whether the edit was successful.\n     */\n    function editHouse3(uint256 id, uint256 hourlyRate, \n        uint256 dailyRate, uint256 utilityFee, uint256 cleaningFee, \n        uint256 latitude, uint256 longitude) onlyAdmins(id) public returns (bool success) {\n\n        success = false;\n\n        /* Prices */\n        bool succ1 = updatePrices(id, hourlyRate, dailyRate, utilityFee, cleaningFee);\n        if (!succ1) {\n            return;\n        }\n\n        /* Coordinates */\n        bool succ2 = updateCoordinates(id, latitude, longitude);\n        if (!succ2) {\n            return;\n        }\n\n        success = true;\n    } \n\n    /**\n     * Update prices for a house listing.\n     *\n     * Helper function for editHouse3. \n     * Currently public due to stack size limitations in EVM.\n     *\n     * @param id The id of the house to edit.\n     * @param hourlyRate The hourly rate of the house.\n     * @param dailyRate The daily rate of the house.\n     * @param utilityFee The utility fee of the house.\n     * @param cleaningFee The cleaning fee of the house.\n     * @return success Whether the update was successful.\n     */\n    function updatePrices(uint256 id, uint256 hourlyRate, uint256 dailyRate, \n        uint256 utilityFee, uint256 cleaningFee) internal returns (bool success) {\n\n        House storage house = houses[id];  \n        if (!house.valid) {\n            return;\n        }\n\n        /* Price */\n        house.hourlyRate = hourlyRate;\n        house.dailyRate = dailyRate;\n        house.utilityFee = utilityFee;\n        house.cleaningFee = cleaningFee;\n\n        success = true;\n     }\n\n    /**\n     * Update coordinates for a house listing.\n     *\n     * Helper function for editHouse3. \n     *\n     * @param id The id of the house to edit.\n     * @param latitude The lattitude of the house, multiplied by 1 million.\n     * @param longitude The longitude of the house, multiplied by 1 million.\n     * @return success Whether the update was successful.\n     */\n    function updateCoordinates(uint256 id, uint256 latitude, uint256 longitude) \n        internal returns (bool success) {\n\n        success = false;\n\n        /* Check new coordinates. */\n        bool succ;\n        uint256 gridId;\n        (succ, gridId) = getGridId(latitude, longitude);\n        if (!succ) {\n            return;\n        }\n\n        /* Fetch previous coordinates. */\n        House memory house = houses[id];  \n        if (!house.valid) {\n            return;\n        }\n\n        bool prevSucc;\n        uint256 prevGridId;\n        (prevSucc, prevGridId) = getGridId(house.latitude, house.longitude);\n        if (!prevSucc) {\n            return;\n        }\n\n        /* Add newly created house to storage. */\n        if (prevGridId != gridId) {\n            housesInGrid[gridId].push(house.id);\n            /* Erase from previous gridId */\n            removeFromGridId(prevGridId, house.id);\n        }\n\n        /* Update location. */\n        house.latitude = latitude;\n        house.longitude = longitude;\n\n        success = true;\n     }\n\n     /**\n     * Remove houseId from grid.\n     *\n     * Helper function for editHouse3. \n     *\n     * @param prevGridId The id of the grid to erase from.\n     * @param id The id of the house to erase.\n     * @return success Whether the deletion was successful.\n     */\n    function removeFromGridId(uint256 prevGridId, uint256 id) internal returns (bool success) {\n        success = false;\n        uint256[] storage ids = housesInGrid[prevGridId];\n        uint256 toErase;\n        for (uint256 i=0; i < ids.length; i++) {\n            if (ids[i] == id) {\n                toErase = i;\n            }\n        } \n        delete ids[toErase];\n        success = true;\n    }\n\n    /**\n     * Fetch house info (1).\n     *\n     * Divided into three functions because \n     * Solidity limits the number of local variables to 16.\n     *\n     * @param id The id of the house to query.\n     * @return success Whether the query was successful.\n     * @return houseName The name of the house. Also used as the title of listing.\n     * @return hostName The name of the host.\n     * @return addrFull Full address of the house.\n     * @return addrSummary Shortened address of the house.\n     * @return addrDirection Instructions on how to find the house.\n     * @return description House description, provided by the host.\n     * @return housePolicy Basic house rules set by the host.\n     * @return cancellationPolicy The cancellation policy of the booking.\n     * @return houseType The type of the house.\n     */\n    function getHouseInfo1(uint256 id) public view \n        returns (bool success, string houseName, string hostName,\n                 string addrFull, string addrSummary, string addrDirection,\n                 string description) {\n\n        success = false;\n        \n        House memory house = houses[id];   \n\n        if (!house.valid) {\n            return;\n        }\n\n        /* Owner info */\n        hostName = house.hostName;\n\n        /* House info */\n        houseName = house.houseName; \n        addrFull = house.addrFull;\n        addrSummary = house.addrSummary; \n        addrDirection = house.addrDirection; \n        description = house.description;\n\n        success = true;\n    } \n\n    /**\n     * Fetch house info (2).\n     *\n     * Divided into three functions because \n     * Solidity limits the number of local variables to 16.\n     *\n     * @param id The id of the house to query.\n     * @return success Whether the query was successful.\n     * @return description House description, provided by the host.\n     * @return housePolicy Basic house rules set by the host.\n     * @return cancellationPolicy The cancellation policy of the booking.\n     * @return houseType The type of the house.\n     * @return numGuest The number of guests the house can accomodate.\n     * @return numBedroom The number of bedrooms in the house.\n     * @return numBed The total number of beds in the house.\n     * @return numBathroom The number of bathrooms in the house.\n     */\n    function getHouseInfo2(uint256 id) public view \n        returns (bool success, string housePolicy, string cancellationPolicy, \n                 uint8 houseType, uint256 numGuest, uint256 numBedroom, \n                 uint256 numBed, uint256 numBathroom) {\n\n        success = false;\n        \n        House memory house = houses[id];   \n\n        if (!house.valid) {\n            return;\n        }\n\n        /* House info */\n        housePolicy = house.housePolicy;\n        cancellationPolicy = house.cancellationPolicy;\n        houseType = house.houseType;\n        numGuest = house.numGuest;\n        numBedroom = house.numBedroom;\n        numBed = house.numBed;\n        numBathroom = house.numBathroom;\n\n        success = true;\n    } \n\n    /**\n     * Fetch house info (3).\n     *\n     * Divided into three functions because \n     * Solidity limits the number of local variables to 16.\n     *\n     * @param id The id of the house to query.\n     * @return success Whether the query was successful.\n     * @return hourlyRate The hourly rate of the house.\n     * @return dailyRate The daily rate of the house.\n     * @return utilityFee The utility fee of the house.\n     * @return cleaningFee The cleaning fee of the house.\n     * @return latitude The lattitude of the house, multiplied by 1 million.\n     * @return longitude The longitude of the house, multiplied by 1 million.\n     */\n    function getHouseInfo3(uint256 id) public view \n        returns (bool success, uint256 hourlyRate, uint256 dailyRate, \n                 uint256 utilityFee, uint256 cleaningFee, \n                 uint256 latitude, uint256 longitude) {\n\n        success = false;\n        \n        House memory house = houses[id];   \n\n        if (!house.valid) {\n            return;\n        }\n\n        /* House info */\n        hourlyRate = house.hourlyRate; \n        dailyRate = house.dailyRate;\n        utilityFee = house.utilityFee; \n        cleaningFee = house.cleaningFee; \n        latitude = house.latitude; \n        longitude = house.longitude;\n\n        success = true;\n    } \n\n    /**\n     * Setter for house name.\n     *\n     * @param id Id of house to edit.\n     * @param houseName New name of house.\n     * @return success Whether the operation was successful.\n     */\n    function setHouseName(uint256 id, string houseName) public returns (bool success) {\n        success = false;\n\n        House memory house = houses[id];\n        if (house.valid) {\n            house.houseName = houseName;\n            success = true;\n            return;\n        }\n    }\n\n    /**\n     * Getter for house name.\n     *\n     * @param id Id of house to query.\n     * @return success Whether the query was successful.\n     * @return houseName Name of the house.\n     */\n    function getHouseName(uint256 id) public view returns (bool success, string houseName) {\n        success = false;\n\n        House memory house = houses[id];\n        if (house.valid) {\n            success = true;\n            houseName = house.houseName;\n            return;\n        }\n    }\n\n    /**\n     * Setter for host name.\n     *\n     * @param id Id of house to edit.\n     * @param hostName New name of host.\n     * @return success Whether the operation was successful.\n     */\n    function setHostName(uint256 id, string hostName) public returns (bool success) {\n        success = false;\n\n        House memory house = houses[id];\n        if (house.valid) {\n            house.hostName = hostName;\n            success = true;\n            return;\n        }\n    }\n\n    /**\n     * Getter for host name.\n     *\n     * @param id Id of house to query.\n     * @return success Whether the query was successful.\n     * @return hostName Name of the house.\n     */\n    function getHostName(uint256 id) public view returns (bool success, string hostName) {\n        success = false;\n\n        House memory house = houses[id];\n        if (house.valid) {\n            success = true;\n            hostName = house.hostName;\n            return;\n        }\n    }\n\n    /**\n     * Add administrator to house.\n     *\n     * @param id Id of house to edit.\n     * @param newAdmin The address of new admin.\n     * @return success Whether the operation was successful.\n     */\n    function addAdministrator(uint256 id, address newAdmin) \n        onlyHost(id) public returns (bool success) {\n\n        success = false;\n\n        House storage house = houses[id];\n        if (house.valid) {\n            \n            bool found = false;\n            uint256 index = 0;\n            address[] memory admins = house.administrators;\n\n            /* Search for previous entry */\n            for (uint256 i=0; i < admins.length; i++) {\n                if (admins[i] == newAdmin) {\n                    found = true;\n                    index = i;\n                }\n            }\n\n            if (!found) {\n                house.administrators.push(newAdmin);\n                success = true;\n                return;\n            }\n        }\n    }\n\n    /**\n     * Remove administrator from house.\n     *\n     * @param id Id of house to query.\n     * @param toDelete The address of admin to delete.\n     * @return success Whether the operation was successful.\n     */\n    function removeAdministrator(uint256 id, address toDelete) \n        onlyHost(id) public returns (bool success) {\n\n        success = false;\n\n        House storage house = houses[id];\n        if (house.valid) {\n\n            bool found = false;\n            uint256 index = 0;\n            address[] memory admins = house.administrators;\n\n            /* Search for previous entry */\n            for (uint256 i=0; i < admins.length; i++) {\n                if (admins[i] == toDelete) {\n                    found = true;\n                    index = i;\n                }\n            }\n\n            if (found) {\n                delete admins[index];\n                success = true;\n                return;\n            }\n        }\n    }\n\n    /**\n     * Calculate grid id from coordinates.\n     *\n     * @param latitude The lattitude of the house, multiplied by 1 million.\n     * @param longitude The longitude of the house, multiplied by 1 million.\n     * @return success Whether the coordinates were valid.\n     * @return gridId Id within the earth's grid.\n     */\n    function getGridId(uint256 latitude, uint256 longitude) public returns (bool success, uint256 gridId) {\n        success = false;\n\n        success = true;\n        gridId = 0;\n    }\n\n    /**\n     * Self destruct.\n     */\n    function kill() system public { \n        if (msg.sender == admin) selfdestruct(admin); \n    }\n\n}",
  "sourcePath": "/home/seongmin/okeydokey/contracts/houses.sol",
  "compiler": {
    "name": "solc",
    "version": "0.4.19+commit.c4cbbb05.Emscripten.clang"
  },
  "schemaVersion": "1.0.1",
  "updatedAt": "2018-02-08T19:05:29.127Z"
}