{
  "contractName": "OkeyDokey",
  "abi": [
    {
      "inputs": [],
      "payable": false,
      "stateMutability": "nonpayable",
      "type": "constructor"
    },
    {
      "constant": false,
      "inputs": [
        {
          "name": "newAdmin",
          "type": "address"
        }
      ],
      "name": "transferOwnership",
      "outputs": [
        {
          "name": "success",
          "type": "bool"
        }
      ],
      "payable": false,
      "stateMutability": "nonpayable",
      "type": "function"
    },
    {
      "constant": true,
      "inputs": [
        {
          "name": "tag",
          "type": "uint16"
        }
      ],
      "name": "getAddress",
      "outputs": [
        {
          "name": "contractAddr",
          "type": "address"
        }
      ],
      "payable": false,
      "stateMutability": "view",
      "type": "function"
    },
    {
      "constant": false,
      "inputs": [
        {
          "name": "tag",
          "type": "uint16"
        },
        {
          "name": "newAddress",
          "type": "address"
        }
      ],
      "name": "updateAddress",
      "outputs": [
        {
          "name": "success",
          "type": "bool"
        }
      ],
      "payable": false,
      "stateMutability": "nonpayable",
      "type": "function"
    },
    {
      "constant": false,
      "inputs": [],
      "name": "kill",
      "outputs": [],
      "payable": false,
      "stateMutability": "nonpayable",
      "type": "function"
    }
  ],
  "bytecode": "0x6060604052341561000f57600080fd5b336000806101000a81548173ffffffffffffffffffffffffffffffffffffffff021916908373ffffffffffffffffffffffffffffffffffffffff1602179055506104238061005e6000396000f300606060405260043610610062576000357c0100000000000000000000000000000000000000000000000000000000900463ffffffff16806341c0e1b5146100675780639a94879f1461007c578063f2fde38b146100da578063fda1213b1461012b575b600080fd5b341561007257600080fd5b61007a610192565b005b341561008757600080fd5b6100c0600480803561ffff1690602001909190803573ffffffffffffffffffffffffffffffffffffffff16906020019091905050610223565b604051808215151515815260200191505060405180910390f35b34156100e557600080fd5b610111600480803573ffffffffffffffffffffffffffffffffffffffff169060200190919050506102e4565b604051808215151515815260200191505060405180910390f35b341561013657600080fd5b610150600480803561ffff169060200190919050506103af565b604051808273ffffffffffffffffffffffffffffffffffffffff1673ffffffffffffffffffffffffffffffffffffffff16815260200191505060405180910390f35b6000809054906101000a900473ffffffffffffffffffffffffffffffffffffffff1673ffffffffffffffffffffffffffffffffffffffff163373ffffffffffffffffffffffffffffffffffffffff161415610221576000809054906101000a900473ffffffffffffffffffffffffffffffffffffffff1673ffffffffffffffffffffffffffffffffffffffff16ff5b565b60008060009054906101000a900473ffffffffffffffffffffffffffffffffffffffff1673ffffffffffffffffffffffffffffffffffffffff163373ffffffffffffffffffffffffffffffffffffffff1614151561028057600080fd5b81600160008561ffff1661ffff16815260200190815260200160002060006101000a81548173ffffffffffffffffffffffffffffffffffffffff021916908373ffffffffffffffffffffffffffffffffffffffff1602179055506001905092915050565b6000808273ffffffffffffffffffffffffffffffffffffffff161415151561030b57600080fd5b6000809054906101000a900473ffffffffffffffffffffffffffffffffffffffff1673ffffffffffffffffffffffffffffffffffffffff163373ffffffffffffffffffffffffffffffffffffffff1614151561036657600080fd5b816000806101000a81548173ffffffffffffffffffffffffffffffffffffffff021916908373ffffffffffffffffffffffffffffffffffffffff16021790555060019050919050565b6000600160008361ffff1661ffff16815260200190815260200160002060009054906101000a900473ffffffffffffffffffffffffffffffffffffffff1690508090509190505600a165627a7a723058200bf6fe5a7e43f51fec3d859a4c9413504626b08dc965c90b823666f233f4959d0029",
  "source": "pragma solidity ^0.4.19;\n\ncontract OkeyDokey {\n\n    /** Admin of this contract. */\n    address private admin;\n\n    /** Address of contracts. \n    * \n    * 0 - OkeyDokeyToken.\n    * 1 - Houses.\n    * 2 - Devices.\n    * 3 - Reservations.\n    * 4 - Reviews.\n    *\n    */\n    mapping (uint16 => address) private addresses;\n\n    /**\n     * Constrctor function.\n     *\n     * Set the admin.\n     */\n    function OkeyDokey() public {\n        admin = msg.sender;\n    }\n\n    /**\n     * Transfer ownership of contract.\n     *\n     * @param newAdmin The address of the potential new admin.\n     * @return success True if transfer of ownership was successful.\n     */\n    function transferOwnership(address newAdmin) public returns (bool success) {\n        require(newAdmin != 0x0);\n        require(msg.sender == admin);\n        admin = newAdmin;\n        return true;\n    }\n\n    /**\n     * Return address of contracts.\n     *\n     * @param tag The identifying tag of the contract.\n     * @return contractAddr Address of contract with tag.\n     */\n    function getAddress(uint16 tag) public view returns (address contractAddr) {\n        contractAddr = addresses[tag];\n        return contractAddr;\n    }\n\n    /**\n     * Update address of contracts.\n     *\n     * @param tag The identifying tag of the new contract.\n     * @param newAddress The address of the new contract.\n     * @return success True if update of address was successful.\n     */\n    function updateAddress(uint16 tag, address newAddress) public returns (bool success) {\n        require(msg.sender == admin);\n\n        addresses[tag] = newAddress;\n        \n        return true;\n    }\n\n    /**\n     * Self destruct.\n     */\n    function kill() public { \n        if (msg.sender == admin) selfdestruct(admin); \n    }\n\n}",
  "sourcePath": "/home/seongmin/okeydokey/contracts/okeydokey.sol",
  "compiler": {
    "name": "solc",
    "version": "0.4.19+commit.c4cbbb05.Emscripten.clang"
  },
  "schemaVersion": "1.0.1",
  "updatedAt": "2018-02-12T18:50:50.760Z"
}