{
  "contractName": "OkeyDokeyGod",
  "abi": [
    {
      "inputs": [],
      "payable": false,
      "stateMutability": "nonpayable",
      "type": "constructor"
    },
    {
      "constant": false,
      "inputs": [
        {
          "name": "newAdmin",
          "type": "address"
        }
      ],
      "name": "transferOwnership",
      "outputs": [
        {
          "name": "success",
          "type": "bool"
        }
      ],
      "payable": false,
      "stateMutability": "nonpayable",
      "type": "function"
    },
    {
      "constant": true,
      "inputs": [],
      "name": "getAddress",
      "outputs": [
        {
          "name": "okeyDokeyAddr",
          "type": "address"
        }
      ],
      "payable": false,
      "stateMutability": "view",
      "type": "function"
    },
    {
      "constant": false,
      "inputs": [
        {
          "name": "newAddress",
          "type": "address"
        }
      ],
      "name": "updateAddress",
      "outputs": [
        {
          "name": "success",
          "type": "bool"
        }
      ],
      "payable": false,
      "stateMutability": "nonpayable",
      "type": "function"
    },
    {
      "constant": false,
      "inputs": [],
      "name": "kill",
      "outputs": [],
      "payable": false,
      "stateMutability": "nonpayable",
      "type": "function"
    }
  ],
  "bytecode": "0x6060604052341561000f57600080fd5b336000806101000a81548173ffffffffffffffffffffffffffffffffffffffff021916908373ffffffffffffffffffffffffffffffffffffffff1602179055506104518061005e6000396000f300606060405260043610610062576000357c0100000000000000000000000000000000000000000000000000000000900463ffffffff16806338cc48311461006757806341c0e1b5146100bc578063ed6d9096146100d1578063f2fde38b14610122575b600080fd5b341561007257600080fd5b61007a610173565b604051808273ffffffffffffffffffffffffffffffffffffffff1673ffffffffffffffffffffffffffffffffffffffff16815260200191505060405180910390f35b34156100c757600080fd5b6100cf6101a0565b005b34156100dc57600080fd5b610108600480803573ffffffffffffffffffffffffffffffffffffffff16906020019091905050610231565b604051808215151515815260200191505060405180910390f35b341561012d57600080fd5b610159600480803573ffffffffffffffffffffffffffffffffffffffff1690602001909190505061035a565b604051808215151515815260200191505060405180910390f35b6000600160009054906101000a900473ffffffffffffffffffffffffffffffffffffffff16905080905090565b6000809054906101000a900473ffffffffffffffffffffffffffffffffffffffff1673ffffffffffffffffffffffffffffffffffffffff163373ffffffffffffffffffffffffffffffffffffffff16141561022f576000809054906101000a900473ffffffffffffffffffffffffffffffffffffffff1673ffffffffffffffffffffffffffffffffffffffff16ff5b565b6000808273ffffffffffffffffffffffffffffffffffffffff161415151561025857600080fd5b600160009054906101000a900473ffffffffffffffffffffffffffffffffffffffff1673ffffffffffffffffffffffffffffffffffffffff168273ffffffffffffffffffffffffffffffffffffffff16141515156102b557600080fd5b6000809054906101000a900473ffffffffffffffffffffffffffffffffffffffff1673ffffffffffffffffffffffffffffffffffffffff163373ffffffffffffffffffffffffffffffffffffffff1614151561031057600080fd5b81600160006101000a81548173ffffffffffffffffffffffffffffffffffffffff021916908373ffffffffffffffffffffffffffffffffffffffff16021790555060019050919050565b6000808273ffffffffffffffffffffffffffffffffffffffff161415151561038157600080fd5b6000809054906101000a900473ffffffffffffffffffffffffffffffffffffffff1673ffffffffffffffffffffffffffffffffffffffff163373ffffffffffffffffffffffffffffffffffffffff161415156103dc57600080fd5b816000806101000a81548173ffffffffffffffffffffffffffffffffffffffff021916908373ffffffffffffffffffffffffffffffffffffffff160217905550600190509190505600a165627a7a7230582026c5cd264c95667689cc4c2311cefb7dc75949d6382e0a362b6e3299a490ba070029",
  "source": "pragma solidity ^0.4.19;\n\ncontract OkeyDokeyGod {\n\n\t/** Admin of address. */\n    address private admin;\n\n\t/** Entry point to application. */\n    address private okeyDokeyAddress;\n\n    /**\n     * Constrctor function.\n     *\n     * Assign admin.\n     */\n    function OkeyDokeyGod() public {\n    \tadmin = msg.sender;\n    }\n\n    /**\n     * Transfer ownership of contract.\n     *\n     * @param newAdmin The address of the potential new admin.\n     * @return success True if transfer of ownership was successful.\n     */\n    function transferOwnership(address newAdmin) public returns (bool success) {\n        require(newAdmin != 0x0);\n        require(msg.sender == admin);\n        admin = newAdmin;\n        return true;\n    }\n\n    /**\n     * Return entry address to OkeyDokey.\n     *\n     * @return okeyDokeyAddr Address of OkeyDokey.\n     */\n    function getAddress() public view returns (address okeyDokeyAddr){\n        okeyDokeyAddr = okeyDokeyAddress;\n        return okeyDokeyAddr;\n    }\n\n    /**\n     * Update entry address to OkeyDokey.\n     *\n     * @param newAddress The address of the new contract.\n     * @return success True if transfer of ownership was successful.\n     */\n    function updateAddress(address newAddress) public returns (bool success) {\n        require(newAddress != 0x0);\n        require(newAddress != okeyDokeyAddress);\n        require(msg.sender == admin);\n    \tokeyDokeyAddress = newAddress;\n        return true;\n    }\n\n    /**\n     * Self destruct.\n     */\n    function kill() public { \n        if (msg.sender == admin) selfdestruct(admin); \n    }\n\n}",
  "sourcePath": "/home/seongmin/okeydokey/contracts/okeydokey_god.sol",
  "compiler": {
    "name": "solc",
    "version": "0.4.19+commit.c4cbbb05.Emscripten.clang"
  },
  "schemaVersion": "1.0.1",
  "updatedAt": "2018-02-12T00:16:06.794Z"
}